:020000040800F2
:10000000900400209D0100085F0500081702000809
:100010005D050008110200081F090008000000002B
:10002000000000000000000000000000E9060008D9
:10003000130200080000000065050008A107000881
:10004000B7010008B7010008B7010008B7010008B0
:10005000B7010008B701000815020008B701000841
:10006000B7010008B7010008B7010008B701000890
:10007000B7010008B7010008B7010008B701000880
:10008000B7010008B7010008B7010008B701000870
:10009000B7010008B7010008B7010008B701000860
:1000A000B7010008B7010008B701000801080008FF
:1000B000B7010008B7010008B7010008B701000840
:1000C000B7010008B7010008B7010008B701000830
:1000D000B7010008B7010008B7010008B701000820
:1000E000B7010008B701000863050008B701000860
:1000F000B7010008B7010008B7010008B701000800
:10010000B7010008B7010008B7010008B7010008EF
:10011000B7010008B7010008B7010008B9080008D6
:10012000B7010008B7010008B7010008B7010008CF
:10013000B7010008B7010008B7010008B7010008BF
:10014000B7010008B7010008B70100086105000801
:10015000B7010008B7010008B7010008B70100089F
:10016000B7010008B7010008B7010008B70100088F
:10017000B7010008B7010008B7010008B70100087F
:10018000B7010008B7010008DFF80CD000F02EF826
:1001900000480047D10A0008900400200648804724
:1001A00006480047FEE7FEE7FEE7FEE7FEE7FEE75C
:1001B000FEE7FEE7FEE7FEE7A50700088901000865
:1001C00030B50B46014600202022012409E021FA27
:1001D00002F59D4205D303FA02F5491B04FA02F524
:1001E0002844151EA2F10102F1DC30BD064C074D7A
:1001F00006E0E06840F0010394E8070098471034F7
:10020000AC42F6D3FFF7C4FF040F0008240F000828
:10021000FEE770477047FEE70029018802D041F4ED
:10022000806101E021F48061018070470246002076
:10023000938A128B43EA024323F07F42914300D119
:10024000012070470029018802D041F4807101E04B
:1002500021F48071018070470029018802D041F4A7
:10026000007101E021F40071018070470CB5024675
:10027000002000920A0F21F07F41019202D0009AE3
:10028000143202E0009A090C1832009212680A42F5
:1002900000D001200CBD008AC0B2704712B141F0FD
:1002A000010101E001F0FE01018270470182704707
:1002B0002DE9F05F9946904644F620658A468346CC
:1002C0002C46012300220A9F00F0CAF8284E02E0C3
:1002D000641E24B29CB331465846FFF7C7FF08B9E5
:1002E000002CF5D141465846FFF7E0FF584600F094
:1002F0000DF901231A465146584600F0B1F8012184
:100300005846FFF789FF0024DFF868802CE0781E4C
:1003100084422E461AD100215846FFF77DFF012165
:100320005846FFF799FF02E0761E36B23EB14146CD
:100330005846FFF77BFF80B9002EF5D10DE002E0B3
:10034000761E36B216B90120BDE8F09F41465846E8
:10035000FFF76CFF08B9002EF2D15846FFF79BFF5C
:1003600009F80400641CE4B2BC42D0D30020EBE7DF
:1003700080000010400003002DE9F0471E46904623
:1003800044F620650023894682462C461A4600F032
:1003900067F81E4F02E0641E24B264B3394650462B
:1003A000FFF764FF08B9002CF5D141465046FFF72E
:1003B0007DFF504600F0AAF800230122494650462E
:1003C00000F04EF826B101215046FFF725FF07E067
:1003D00000215046FFF720FF01215046FFF73CFF68
:1003E0000B4C02E06D1E2DB22DB121465046FFF799
:1003F0001DFF18B104E00120BDE8F087002DF1D108
:100400005046BDE8F047FFF746BF000080000010EF
:100410004000030030B585B00C4615460E21009112
:1004200001AB3B222946FFF743FFBDF8040040BA69
:100430002080BDF8060040BA6080BDF8080040BAD0
:10044000A080BDF80C0040BAE080BDF80E0040BAB4
:100450002081BDF8100040BA608105B0002030BD99
:100460002DE9F0471E461546884681464FF4003771
:1004700039464846FFF7FAFE0028F9D101214846DF
:10048000FFF7E0FE1E4F02E0641E24B27CB3394643
:100490004846FFF7CBFE08B9002CF5D11EB101216B
:1004A0001848FFF7B9FE2A4641464846FFF7F6FED0
:1004B00044F6206415B1012D0DD01EE0124D02E06E
:1004C000641E24B29CB129464846FFF7AFFEA0B98E
:1004D000002CF5D111E00A4D6D1C02E0641E24B21F
:1004E0002CB129464846FFF7A1FE20B105E0FFE701
:1004F0000120BDE8F087002CF0D10020F9E70000D2
:100500000100030000540040820007002DE9F04183
:10051000074644F620640121FFF79EFE0E4E0E4D65
:100520007C3E02E0641E24B254B129463846FFF7EF
:100530009DFE40B131463846FFF798FE18B104E001
:100540000120BDE8F081002CECD101213846FFF7F5
:1005500083FE0020F5E7000080000010FEE77047F2
:10056000704770477047000070B572B60023584D51
:100570003A22D0212846FFF7FFFE00287DD0554CB7
:10058000002100BF01EB410004EB8000491C90ED0D
:10059000010AC9B280ED000A90ED020A062980ED39
:1005A000010AEFD34B4A002112F1480201EB41004E
:1005B00002EB8000491C90ED010AC9B280ED000AEF
:1005C00090ED020A032980ED010AEFD34149D022C0
:1005D00078312846FFF71EFF3E48DFED3F0A7830AE
:1005E000B0F9001000EE101AB8EEC01A81EE200A21
:1005F00084ED020AB0F9021001EE101AB8EEC11A29
:10060000C1EE201AC4ED051AB0F9041001EE101A5B
:10061000B8EEC11AC1EE201AC4ED081AB0F90610DE
:1006200000EE901AB8EEE01ADFED2C0A81EE202AD7
:1006300084ED0B2AB0F9081001EE101AB8EEC11AB9
:1006400081EE202A84ED0E2AB0F90A0001EE100A8C
:100650002048B8EEC11A6C3081EE202AF1EE000A73
:1006600084ED112A94ED091A94ED0A2AD0ED002A9E
:1006700002EE201A31EE002A00E021E09FED181A68
:1006800004F1300142EE012AC0ED002A91EC022A69
:1006900002EEA02A32EE000A90ED012A00EE012AB5
:1006A00080ED012A94ED0F0A94ED102A02EE200A43
:1006B000D0ED020A30EE210A40EE010AC0ED020A36
:1006C00062B60121BDE87040064800F013B9000091
:1006D000005400400C00002000FEFF456811034359
:1006E0006F12033A00080040704700000CB500206C
:1006F0002749019000900A6842F480320A604FF462
:10070000A0430A6802F400320092019A521C01923E
:10071000009A12B9019A9A42F3D10A68920334D529
:10072000012000901A484030026842F08052026076
:100730001848026842F440420260154808300268D6
:100740000260026842F400420260026842F4A05271
:100750000260031F104A1A600A6842F080720A6041
:100760000A689201FCD50D4A40F2057111600168DA
:1007700021F003010160016841F00201016001689C
:10078000C1F381010229FAD10CBD00900CBD00001B
:100790000038024000700040195A4007003C0240F7
:1007A00070470000124810B5016841F47001016003
:1007B0001048016841F0010101600E4A0021083231
:1007C000116002680C4B1A400260031D0B4A1A604C
:1007D000026822F48022026006480C300160FFF7B4
:1007E00085FF03494FF000608039086010BD0000AC
:1007F00088ED00E000380240FFFFF6FE10300024D4
:100800002DE9F041DFF8A4800221404600F075F8A0
:10081000B8B3274C4FF4FA6677102088254D401C5A
:1008200080B220806188491C6180A188491CA18018
:10083000B04203D9A0F5FA6020800AE0B84201D99D
:10084000002103E0285CD22110FB01F1404600F0BA
:1008500060F86088B04203D9A0F5FA6060800AE0D1
:10086000B84201D9002103E0285CD22110FB01F13C
:10087000404600F050F8A088B04203D9A0F5FA60D5
:10088000A0800DE0B84204D90021404600F043F8B2
:1008900006E0285CD22110FB01F1404600F03DF853
:1008A0004046BDE8F041022100F024B800000140BC
:1008B000040000201C0B000810B50C4C0121204640
:1008C00000F01BF858B100233A22D0210848FFF766
:1008D00053FD002809D0BDE81040FFF745BE204673
:1008E000BDE81040012100F005B810BD0014004023
:1008F00000540040C9430182704702460020138A19
:1009000092890B4202EA010202D0002A00D00120A3
:1009100070474163704781637047C1637047FEE76A
:100920000FB4054B10B503A9044A029800F018F85B
:1009300010BC5DF814FB0000B50A000800000020A0
:1009400002E008C8121F08C1002AFAD17047704798
:10095000002001E001C1121F002AFBD170470000F6
:100960002DE9FF4F89B09B460446002597E02528D6
:1009700033D10027641C4E49B84601222378203B1E
:1009800002FA03F0084202D00743641CF6E720781D
:100990002E2819D114F8010F47F004072A280ED089
:1009A0006FF02F022078A0F1300109290CD808EB54
:1009B000880102EB410100EB0108641CF2E70A9890
:1009C000641C50F8048B0A90207800286BD06428AF
:1009D00008D0692806D0752820D05A460B99904730
:1009E0006D1C5BE00A994FF00A0901C90A910028C1
:1009F00004DAC0F100004FF02D0102E0390504D502
:100A00002B218DF82010012103E0F90704D02021CB
:100A1000F7E78A4608AE0EE00021FAE70A994FF0A0
:100A20000A0901C90A91F7E74946FFF7C9FB01F135
:100A3000300106F8011D0028F6D1ADEB060000F1EB
:100A40002009780701D44FF00108C84502DDA8EB62
:100A5000090000E000208046002706E008A85A466A
:100A6000C05D0B9990476D1C7F1C5745F6DB04E079
:100A700030205A460B9990476D1CB8F10001A8F13F
:100A80000108F5DC05E016F8010B5A460B99904772
:100A90006D1CB9F10001A9F10109F4DC641C207896
:100AA00000287FF464AF0DB02846BDE8F08F000049
:100AB0000928010005490968C90105D54FF06041C1
:100AC0000A68002AFCD0087070470000FCED00E0C6
:100AD00010B502A0FFF724FF002010BD48656C6C24
:100AE0006F20576F726C640A000000000000000065
:100AF00000000000010001000100010000000100F1
:100B000000000100010000000100010001000000E0
:100B100000000100010000000000000000010101D0
:100B20000202020303030304040405050506060686
:100B3000070707080808080909090A0A0A0B0B0B26
:100B40000C0C0C0D0D0D0D0E0E0E0F0F0F101010C6
:100B50001111111212121213131314141415151566
:100B600016161616171717181818191919191A1A08
:100B70001A1B1B1B1C1C1C1D1D1D1D1E1E1E1F1FAA
:100B80001F1F20202021212122222222232323244F
:100B900024242525252526262627272727282828F3
:100BA000292929292A2A2A2B2B2B2B2C2C2C2D2D99
:100BB0002D2D2E2E2E2F2F2F2F3030303031313142
:100BC00032323232333333333434343535353536EB
:100BD00036363637373737383838383939393A3A98
:100BE0003A3A3B3B3B3B3C3C3C3C3D3D3D3D3E3E45
:100BF0003E3E3F3F3F3F40404040404141414142F7
:100C000042424243434343444444444445454545AA
:100C10004646464646474747474848484848494960
:100C200049494A4A4A4A4A4B4B4B4B4B4C4C4C4C19
:100C30004C4D4D4D4D4D4E4E4E4E4E4F4F4F4F4FD6
:100C40005050505050515151515151525252525294
:100C50005353535353535454545454545555555556
:100C6000555556565656565657575757575757581D
:100C70005858585858595959595959595A5A5A5AE5
:100C80005A5A5A5A5B5B5B5B5B5B5B5C5C5C5C5CB3
:100C90005C5C5C5D5D5D5D5D5D5D5D5D5E5E5E5E83
:100CA0005E5E5E5E5E5F5F5F5F5F5F5F5F5F5F5F59
:100CB000606060606060606060606061616161612F
:100CC000616161616161616162626262626262620C
:100CD00062626262626262626363636363636363EC
:100CE00063636363636363636363636363636363D4
:100CF00064646464646464646464646464646464B4
:100D000064646464646464646464646464646464A3
:100D10006464646464646464646464646464646493
:100D20006464646464646464646464646464646384
:100D30006363636363636363636363636363636383
:100D4000636363636363636262626262626262627C
:100D5000626262626262626161616161616161617C
:100D60006161616160606060606060606060605F80
:100D70005F5F5F5F5F5F5F5F5F5F5E5E5E5E5E5E89
:100D80005E5E5E5D5D5D5D5D5D5D5D5D5C5C5C5C94
:100D90005C5C5C5C5B5B5B5B5B5B5B5A5A5A5A5AA4
:100DA0005A5A5A59595959595959585858585858B6
:100DB00057575757575757565656565656555555CF
:100DC00055555554545454545453535353535352E8
:100DD0005252525251515151515150505050504F06
:100DE0004F4F4F4F4E4E4E4E4E4D4D4D4D4D4C4C28
:100DF0004C4C4C4B4B4B4B4B4A4A4A4A4A4949494B
:100E00004948484848484747474746464646464572
:100E1000454545444444444443434343424242429B
:100E20004141414140404040403F3F3F3F3E3E3EC8
:100E30003E3D3D3D3D3C3C3C3C3B3B3B3B3A3A3AF6
:100E40003A39393938383838373737373636363629
:100E5000353535353434343333333332323232315D
:100E60003131303030302F2F2F2F2E2E2E2D2D2D93
:100E70002D2C2C2C2B2B2B2B2A2A2A2929292928CB
:100E80002828272727272626262525252524242404
:100E9000232323222222222121212020201F1F1F41
:100EA0001F1E1E1E1D1D1D1D1C1C1C1B1B1B1A1A7C
:100EB0001A191919191818181717171616161615BA
:100EC00015151414141313131212121211111110F8
:100ED00010100F0F0F0E0E0E0D0D0D0D0C0C0C0B38
:100EE0000B0B0A0A0A090909080808080707070678
:100EF00006060505050404040303030302020201B8
:100F000001010000240F0008000000200C00000078
:100F100040090008300F00080C0000208404000085
:100F2000500900080000000000009B023505000089
:040000050800018965
:00000001FF
