:020000040800F2
:10000000F80400209D01000843100008650900085D
:1000100041100008450700083D1C000800000000D2
:10002000000000000000000000000000491200086D
:10003000EF07000800000000AF10000801130008DF
:10004000B7010008B7010008B7010008B7010008B0
:10005000B7010008B7010008F1070008B701000860
:10006000B7010008B7010008B7010008B701000890
:10007000B7010008B7010008B7010008B701000880
:10008000B7010008B7010008B7010008B701000870
:10009000B7010008B7010008B7010008B701000860
:1000A000B7010008D9140008B7010008B70100081B
:1000B000CD170008B7010008B7010008B701000814
:1000C000B7010008B7010008B7010008B701000830
:1000D000B7010008B7010008B7010008B701000820
:1000E000B7010008B7010008AB100008B70100080D
:1000F000B7010008B7010008B7010008B701000800
:10010000B7010008B7010008B7010008B7010008EF
:10011000B7010008B7010008B7010008B7010008DF
:10012000B7010008B7010008B7010008B7010008CF
:10013000B7010008B7010008B7010008B7010008BF
:10014000B7010008B7010008B7010008A9100008AE
:10015000B7010008B7010008B7010008B70100089F
:10016000B7010008B7010008B7010008B70100088F
:10017000B7010008B7010008B7010008B70100087F
:10018000B7010008B7010008DFF80CD000F038FA1A
:100190000048004741250008F80400200648804731
:1001A00006480047FEE7FEE7FEE7FEE7FEE7FEE75C
:1001B000FEE7FEE7FEE7FEE70513000889010008F9
:1001C00040EA01039B0703D009E008C9121F08C0D9
:1001D000042AFAD203E011F8013B00F8013B521E59
:1001E000F9D2704700F0004230F000400AD0C10D53
:1001F00001F56071C0F3160042EA0151C2084007E0
:100200001143704700200146704730B50B46014648
:1002100000202022012409E021FA02F59D4205D3A5
:1002200003FA02F5491B04FA02F52844151EA2F14F
:100230000102F1DC30BD2DE9F05F05460020924659
:100240009B4688460646814640241BE02846414698
:100250004746224600F0F5F953465A46C01A9141E6
:1002600010D311461846224600F0DCF92D1A67EB30
:1002700001084F4622460120002100F0D3F917EB78
:1002800000094E41201EA4F10104DFDC484631463E
:100290002A464346BDE8F09F2DE9FE4F804681EA9D
:1002A0000300C00F0C46009021F0004123F00045F0
:1002B000B8EB0200A94105D24046214690461C46B3
:1002C0000B46024623F00040104304D1404621462D
:1002D00003B0BDE8F08F270DC7F30A00C3F30A513E
:1002E0000290401A0190402866DAC3F3130040F4EC
:1002F000801B0098924620B10023D2EB030A63EBE7
:100300000B0B01985946C0F14002504600F08AF9A3
:1003100006460D4650465946019A00F0A2F910EBE8
:1003200008006141002487EA115284EAE7731A4306
:100330003BD0009A3AB3019A012A4FEA075210DCE7
:10034000001B61EB02014FF0004202EA0752CDE9C7
:100350000042001C41F5801132462B4600F0A0F906
:10036000B6E7001B61EB0201001C41F58013001889
:100370005B412018A2F5001747EB030140EAD57056
:10038000B6196D4111E06D084FEA360645EAC075B1
:100390004FEA0752001B61EB0201001C41F580117E
:1003A00049084FEA30000019514132462B4603B04C
:1003B000BDE8F04F00F067B900980122400000232B
:1003C000D0EB020263EBE073009821464FEAE07441
:1003D000B8EB000061EB0401E9E783F000435BE761
:1003E00081F0004158E72DE9FE4F81EA030404F053
:1003F000004421F0004100944FF0000B23F0004333
:1004000050EA010402D052EA030404D1002001465C
:1004100003B0BDE8F08FC3F30A54C1F30A552C446E
:10042000A4F2F3340194A0FB0254C1F3130141F48C
:100430008011C3F3130343F4801301FB024400FB58
:10044000034E840A970A44EA815447EA8357A4FB7F
:10045000076802958D0A05FB07854FEA932C04FB7C
:100460000C542705029D4FEA065847EA1637B5EBAC
:1004700008056EEB070C870E920E47EA811742EAD9
:100480008312A7FB0201B6EB0B0164EB00042B0DFA
:1004900043EA0C335E1844EB1C50DA465146E7FB46
:1004A0000201C5F313044FEA0B3343EA14534FEA36
:1004B0000432019C43EA0603A4F10C040294009C5C
:1004C000CDE900B400F0ECF8A2E72DE9F04D81EAA7
:1004D000030404F0004B21F0004514464FF0000ADD
:1004E00023F0004150EA050220D054EA01021DD059
:1004F000C5F30A570246C5F31303C1F31300C1F352
:100500000A5640F4801543F48013A7EB0608101B2D
:10051000D64608F2FD3873EB050002D308F1010856
:1005200001E092185B41B8F1000F03DA00200146A8
:10053000BDE8F08D00204FF48011064684460EE0A1
:10054000171B73EB050705D3121B63EB050306436B
:100550004CEA010C49084FEA300092185B4150EA1E
:100560000107EDD152EA030012D082EA040083EAC7
:100570000501084303D100224FF0004308E0101B9F
:10058000AB4102D20122002302E06FF001025310BE
:100590001AEB06004CEB085110EB0A0041EB0B0183
:1005A000BDE8F04D00F06FB8C1F30A52C1F313017A
:1005B00040F2FF3341F480119A4202DA00200146F2
:1005C000704740F233439A42A2F2334202DC524275
:1005D00000F037B800F026B830B5002904DB4FF042
:1005E0000044404264EB0101002B04DB4FF0004467
:1005F000524264EB0303994208BF904230BD0000B1
:10060000064C074D06E0E06840F0010394E807005F
:1006100098471034AC42F6D3FFF7BAFD102E00080D
:10062000302E0008202A04DB203A00FA02F10020D4
:1006300070479140C2F1200320FA03F31943904020
:100640007047202A04DB203A21FA02F0002170478B
:1006500021FA02F3D040C2F120029140084319462A
:100660007047202A06DBCB17203A41FA02F043EA12
:10067000E07306E041FA02F3D040C2F1200291405B
:1006800008431946704710B5002B08DA401C41F1A9
:10069000000192185B411A4301D120F0010010BD06
:1006A0002DE9F04D92469B4611B1B1FA81F202E07C
:1006B000B0FA80F220329046FFF7B4FF04460F46AE
:1006C00040EA0A0041EA0B0153465A46084303D167
:1006D00020463946BDE8F08D114653EA010015D099
:1006E000C8F140025046FFF7ACFF05460E465046A3
:1006F00059464246FFF796FF084301D0012000E02B
:100700000020054346EAE0762C4337430A984FEA37
:100710004453A0EB08004FEAD4240A304FF0000203
:1007200044EA47544FEAD72502D500200146D1E7D5
:10073000010510196941DDE9084500196941BDE865
:10074000F04DA0E7FEE70FB42DED020B0CA89DEDD8
:100750000F1ADDED051A9DED062A71EE200A9DEDBA
:100760000B1ADDED0D2A41EE810ADDED0C1A42EE89
:10077000210A9DED072A42EE220A9DED0E2A8DEDFB
:100780000F2ACDED0E0AF5EEC00A8DED0B0AF1EE43
:1007900010FA80EC021A02D24FF0FF3000E0012084
:1007A00000EE100AB8EEC00A20EE801A9DED0A0A8B
:1007B000B4EEC01AF1EE10FA10D900EE100AB8EE3D
:1007C000C00A60EE800A9DED090AF4EEC00AF1EE5F
:1007D00010FA03DA9DED0E0A06B0704700EE900A9B
:1007E000F8EEE00A20EE200A8DED0E0AF4E77047DD
:1007F000704708B58DF800008DF801108DF80210D3
:1008000001208DF80300684600F01CFC08BD0000C4
:100810007CB5194C204601F073F80121022000F04C
:10082000A7FC0121042000F0AFFCC02000900220B2
:100830008DF804000020114D8DF807006946284608
:1008400000F024F802220621284600F070F8022267
:100850000721284600F06BF800231A4603212046A2
:1008600001F035F84FF4FA61204601F079F90121E1
:10087000204601F017F87CBD00080040000402404B
:10088000014801F0DDF9FEE7FC250008F0B5002382
:10089000012403270D6804FA03F21540954242D162
:1008A000D0F800C05E0007FA06F52CEA050CC0F887
:1008B00000C091F804C0D0F800E00CFA06FC4CEA45
:1008C0000E0CC0F800C091F804C0BCF1010F02D0BA
:1008D000BCF1020F1FD1D0F808C02CEA050CC0F8FB
:1008E00008C091F805C0D0F808E00CFA06FC4CEA04
:1008F0000E0CC0F808C0D0F804C02CEA020CC0F8F6
:1009000004C0426891F806C00CFA03FC1FFA8CFC84
:1009100042EA0C024260C268AA43C260CA79C56852
:10092000B2402A43C2605B1C102BB3D3F0BD4B070F
:10093000DB0E9A40C90810B500EB8100016A0F2454
:100940009C40A1430162016A1143016210BD02464D
:10095000002012690A4200D001207047418370478D
:1009600001837047FEE70029018802D041F48061CD
:1009700001E021F480610180704702460020938AE3
:10098000128B43EA024323F07F42914300D10120BE
:1009900070470029018802D041F0010101E021F0F7
:1009A0000101018070470029018802D041F4807163
:1009B00001E021F48071018070470029018802D094
:1009C00041F4007101E021F40071018070470CB521
:1009D0000246002000920A0F21F07F41019202D0CE
:1009E000009A143202E0009A090C18320092126840
:1009F0000A4200D001200CBD7FB5044680880D4618
:100A000020F03F06684600F0D7FB26490298B0FB6D
:100A1000F1F189B20E43A680228822F001022280E1
:100A2000214B2A689A421BD85200B0FBF2F080B2E8
:100A3000042800D20420491C2184A083208840F08F
:100A40000100208021884FF6F5300140A8886A898E
:100A5000104308432080A8892989084320817FBD4D
:100A6000EB88A3F53F46FF3E05D102EB4202B0FB07
:100A7000F2F080B208E002EBC20303EB0212B0FB1B
:100A8000F2F080B240F48040020501D140F0010054
:100A90004FF4967251434FF47A72B1FBF2F140F485
:100AA0000040C8E740420F00A0860100008AC0B2A3
:100AB000704712B141F0010101E001F0FE01018235
:100AC000704701827047000070B5144C054601461E
:100AD00000230822204600F025F808B1FFF7D0FED9
:100AE00000233A222946204600F086F9002813D038
:100AF000D0220B49204600F0CDF90948A0F10C01A5
:100B000002880A8042884A8082888A80C288CA8095
:100B100002890A814089488170BD0000005400406C
:100B2000B00000202DE9FF5F8B469A4691460546AE
:100B30000021FFF72EFF01212846FFF72AFF5E4C18
:100B400002205F4E20710120A071E07103206071CE
:100B50005A4885420DD10121480500F015FB0121BD
:100B6000022000F005FB4FF4407020602146304623
:100B700028E0544885427DD05348854224D1012144
:100B8000C80500F001FB0121084600F0F1FA01213F
:100B9000042000F0EDFA4D4F042208213846FFF7FB
:100BA000C6FEDFF82C81042209214046FFF7BFFE74
:100BB000A815206040493846FFF768FE6815206098
:100BC0003D494046FFF762FE424800904FF48040A6
:100BD000ADF80C000020ADF80800ADF80400ADF849
:100BE0000A004BF6FF70ADF8060069462846FFF78D
:100BF00003FF042208213046FFF799FE0422092151
:100C00003046FFF794FE012300225946284600F0A3
:100C100053F918B1012004B0BDE8F09F284600F058
:100C2000A1F92DA001F00CF80023752259462846A1
:100C300000F0E2F8682801D00220ECE731A000F0D3
:100C4000FFFF01236B225946284600F0B3F988B90B
:100C500000231C225946284600F0CEF800F0E70198
:100C600041EAC900C3B21C225946284600F0A2F945
:100C7000002300E01DE01B225946284600F0BCF886
:100C800000F0E70141EACA00C3B21B2259462846D8
:100C900000F090F905231A225946284600F08AF9F7
:100CA00038B940236A225946284600F083F90028C3
:100CB000B1D00320AFE700004800002000540040FE
:100CC0000004024000580040005C00400000024068
:100CD00000080240801A0600446576696365206951
:100CE0007320436F6E6E65637465642C205265617A
:100CF00064696E6720416464726573732E2E2E20C2
:100D00000A00000041646472657373206973206394
:100D10006F72726563742C20436F6E6669677572BB
:100D2000696E67204465766963652E2E2E200A0061
:100D30002DE9F05F9946904644F620658A46834641
:100D40002C46012300220A9F00F0B6F8284E02E04C
:100D5000641E24B29CB331465846FFF738FE08B9EA
:100D6000002CF5D141465846FFF7ABFE584600F03F
:100D7000F9F801231A465146584600F09DF8012122
:100D80005846FFF7F0FD0024DFF868802CE0781E5D
:100D900084422E461AD100215846FFF7E4FD012176
:100DA0005846FFF70AFE02E0761E36B23EB14146D3
:100DB0005846FFF7E2FD80B9002EF5D10DE002E0C4
:100DC000761E36B216B90120BDE8F09F414658465E
:100DD000FFF7D3FD08B9002EF2D15846FFF766FEA3
:100DE00009F80400641CE4B2BC42D0D30020EBE755
:100DF00080000010400003002DE9F0471E46904699
:100E000044F620650023894682462C461A4600F0A7
:100E100053F81E4F02E0641E24B264B339465046B4
:100E2000FFF7D5FD08B9002CF5D141465046FFF734
:100E300048FE504600F096F80023012249465046ED
:100E400000F03AF826B101215046FFF78CFD07E08B
:100E500000215046FFF787FD01215046FFF7ADFD09
:100E60000B4C02E06D1E2DB22DB121465046FFF70E
:100E700084FD18B104E00120BDE8F087002DF1D118
:100E80005046BDE8F047FFF711BE0000800000109B
:100E90004000030030B585B00C4615460221009194
:100EA00001AB47222946FFF743FFBDF8040040BAD3
:100EB000608105B0002030BD2DE9F04744F6206583
:100EC0001F461646894682462C464FF40038414656
:100ED0005046FFF77CFD0028F9D101215046FFF76D
:100EE00062FDDFF8748002E0641E24B26CB34146F8
:100EF0005046FFF742FD08B9002CF5D11FB1012182
:100F00001648FFF730FD324649465046FFF7D1FDFF
:100F100016B1012E0DD01DE0114C02E06D1E2DB258
:100F20009DB121465046FFF728FD98B9002DF5D117
:100F300010E0094C641C02E06D1E2DB22DB121465B
:100F40005046FFF71AFD18B104E00120BDE8F08714
:100F5000002DF1D10020F9E701000300005400400A
:100F6000820007002DE9F041074644F62064012184
:100F7000FFF723FD0E4E0E4D7C3E02E0641E24B2B0
:100F800054B129463846FFF722FD40B13146384674
:100F9000FFF71DFD18B104E00120BDE8F081002C31
:100FA000ECD101213846FFF708FD0020F5E70000ED
:100FB000800000102DE9F0479846174644F620655A
:100FC000002381462C461A46FFF776FF1A4E02E0B0
:100FD000641E24B2DCB131464846FFF7F8FC08B97C
:100FE000002CF5D139464846FFF76BFD134C4846B7
:100FF0002146FFF7C2FC0028F9D002E06D1E2DB299
:101000002DB131464846FFF7E2FC18B104E001205B
:10101000BDE8F087002DF1D141464846FFF751FD6C
:1010200021464846FFF7A9FC0028F9D04846FFF7BB
:1010300099FF0020ECE7000080000010840007000A
:10104000FEE7704770B50F21C478027801234FF096
:10105000E026E4B1124C246804F4E064C4F5E064D2
:10106000C4F30724C4F10405E1404478AC4085781A
:101070000D4025430B4C29011155007800F01F014C
:101080008B40400906EB8000C0F8003170BD02F0D3
:101090001F008340500906EB8000C0F8803170BD0E
:1010A0000CED00E000E400E07047704770477047C7
:1010B00010B572B60023284C3A22D0212046FFF703
:1010C0009BFEE0B3D02225492046FFF7E3FE2348EC
:1010D000244B603800F14001204ADFED231AD1ECA7
:1010E000020A1F4931EE600A81ED000A10EE101A63
:1010F000994200F13C01C1EC020A04DC10EE101A26
:1011000011F17F5F1CD9B2F90A1000EE101AB8EE87
:10111000C00A80EE212AB1EE000A41EE000A9FEDDE
:10112000131A80ED112A90ED080A0C48183830EE99
:10113000800AD0ED020A40EE010AC0ED020A09E081
:10114000B2F90A1000EE101AB8EEC00AC0EE210A79
:10115000C0ED110A62B610BD00540040B00000207E
:101160000000002000004040681103436F12033A62
:10117000044A0029116801D0014300E08143116055
:101180007047000030380240044A0029116801D03D
:10119000014300E081431160704700004038024085
:1011A000044A0029116801D0014300E08143116025
:1011B000704700004438024070B5204A1168204C46
:1011C00011F00C0104D06610042903D0082903D0C3
:1011D00004601BE0066019E01849091F0B68C3F39F
:1011E00080550B6803F03F0315B1B6FBF3F301E044
:1011F000B4FBF3F30C680968C4F388146343C1F3C8
:101200000141491C4900B3FBF1F1016011680F2352
:1012100003EA11110B4B5C5C0168E140416014680A
:10122000072505EA94241C5D21FA04F48460126801
:1012300005EA52329A5CD140C16070BD0838024064
:101240000024F40038000020704700000CB5002096
:101250002749019000900A6842F480320A604FF4F6
:10126000A0430A6802F400320092019A521C0192D3
:10127000009A12B9019A9A42F3D10A68920334D5BE
:10128000012000901A484030026842F0805202600B
:101290001848026842F4404202601548083002686B
:1012A0000260026842F400420260026842F4A05206
:1012B0000260031F104A1A600A6842F080720A60D6
:1012C0000A689201FCD50D4A40F20571116001686F
:1012D00021F003010160016841F002010160016831
:1012E000C1F381010229FAD10CBD00900CBD0000B0
:1012F000003802400070004008544007003C0240A3
:10130000FFF7D6BE124810B5016841F470010160C4
:101310001048016841F0010101600E4A00210832C5
:10132000116002680C4B1A400260031D0B4A1A60E0
:10133000026822F48022026006480C300160FFF748
:1013400085FF03494FF000608039086010BD000040
:1013500088ED00E000380240FFFFF6FE1030002468
:1013600070B5048C24F001040484058B048C4FF6C2
:10137000FF7606EA0313134325F0F3052B4324F00D
:101380000A020A4342F001010383018470BDF0B5F3
:10139000048C24F010040484078B068C4FF6FF7431
:1013A00004EA011527F4734704EA0331394304EAD8
:1013B00002220A4326F0A001294341F010010283D2
:1013C0000184F0BD2DE9F04101218AB00846FFF704
:1013D000E7FE01211020FFF7CBFE02258DF8185003
:1013E00000244FF428508DF81A400126DFF8E080E1
:1013F00005908DF81B6003278DF8197005A94046EC
:10140000FFF744FA012209214046FFF790FA012232
:101410000B214046FFF78BFA01220D214046FFF7D2
:1014200086FAADF81C70ADF82440ADF81E4045F2C8
:101430000820284C089007A9204600F0C1FB702026
:10144000ADF800004FF47A700290ADF80260ADF88C
:101450000C506946204600F0BFFA6946204600F06D
:10146000F1FA6946204600F037FB012200212046B0
:1014700000F00AFA0821204600F0DEFA01220421D9
:10148000204600F001FA0821204600F01BFB012253
:101490000821204600F0F8F90821204600F05AFB08
:1014A0000121204600F0FEF90121204600F0E2F97A
:1014B0000121204600F000FA01221146204600F0EA
:1014C00083FA00211920FFF794F90AB0BDE8F081F2
:1014D000001002400000014070B5704D01212DED5B
:1014E000028B8AB0284600F00DFA00287BD06C4EA3
:1014F000304600F005FA00EE100A6A4CB8EE401AC9
:1015000094ED020AF0EE400A9FED678A674911EEFA
:10151000080A10EE100A884241DA10EE100A6449F7
:1015200088423CD2C4ED030A304600F0E9F900EEEF
:10153000100AB8EE400A20EE080A84ED020AD4ED43
:10154000030A70EE600A9FED5B8A80EE880ADFED89
:101550005A0A28225949684670EEC08AFEF730FEC2
:101560005648B0EE680A10380FC8FFF7ECF8BDEE29
:10157000C00A04F1080084ED040A90EC020A70EE3F
:10158000600A80EE880A10EE100AFEF72BFE41EC8E
:10159000100B4BA053EC102B00F052FB0CE0C4EDF1
:1015A000030A304600F0ACF900EE100AB8EE400A2B
:1015B00020EE080A84ED020A20690C2190FBF1F06C
:1015C00010EB40004FF47A7120610DD5404220614C
:1015D000A06901280DDA0120C4E90510A0886188FE
:1015E000A180608042E040E0A069002801DD002089
:1015F000F2E76069012839DA21882069324E014416
:1016000089B22180628802446280A2880244A2805A
:10161000715C00EB40004143284600F0A3FA60886B
:10162000315C206900EB40004143284600F09CFA01
:10163000A088315C206900EB40004143284600F05F
:1016400095FA20884FF4FA61884202D9A0F5FA6031
:1016500020806088884202D9A0F5FA606080A08866
:10166000884212D9A0F5FA60A0800EE060690021DE
:10167000401E6061284600F075FA0021284600F0FF
:1016800073FA0021284600F071FA0AB02846BDEC32
:10169000028B0121BDE8704000F001B9000001405B
:1016A00000080040080000202EE34D3B0000A04051
:1016B0000000A0C06F12833A00002042CC0000203E
:1016C0002566200A000000004026000870B50121B0
:1016D00088B00846FFF74CFD01210420FFF748FDC4
:1016E00001210846FFF750FD01258DF80450132015
:1016F0008DF80750002400908DF8064003268DF8E1
:10170000056069462F48FFF7C1F80E2000900220BF
:101710008DF804008DF807508DF806408DF80560AF
:10172000294E69463046FFF7B1F80122114630468E
:10173000FFF7FDF8012202213046FFF7F8F80122F9
:1017400003213046FFF7F3F85320ADF814004EF6AE
:1017500060200690AE07ADF81640ADF81C4005A914
:10176000304600F02DFA0420ADF808000F20ADF847
:1017700010000A20ADF80A00ADF80E40ADF80C508C
:1017800002A9304600F0CAF80820ADF8080002A906
:10179000304600F0C3F80C20ADF8080002A930462E
:1017A00000F0BCF800211C20FFF723F801221C21C7
:1017B000304600F009F90121304600F073F808B016
:1017C00070BD000000080240000002402DE9F04119
:1017D0004FF080451C21284600F094F878B3224E43
:1017E00002213046FFF7B3F8840004213046FFF7AA
:1017F000AEF804EB400408213046FFF7A8F8204477
:10180000C1B2092900D90021184C01EB4106184F3B
:1018100034F816004FF001010028384602D0FFF7D7
:101820009FF801E0FFF79AF804EB46044FF002013D
:1018300060880028384603D0FFF792F802E00CE0F9
:10184000FFF78CF8A0884FF010010028384602D02E
:10185000FFF786F801E0FFF781F82846BDE8F04180
:101860001C2100F01CB800000000024010260008F7
:10187000000802400029018802D041F0800101E007
:1018800021F080010180704710B50123048C8B404A
:101890009C430484038C8A401343038410BDC943D2
:1018A000018270470029018802D041F0010101E066
:1018B00021F0010101807047002930F8441F02D057
:1018C00041F4004101E0C1F30E010180704770B5A1
:1018D0000589048B068C25F007050D434FF6FC4166
:1018E0000C4040F201110C434FF6FF7101EA031165
:1018F00026F022061143314305810483018470BD23
:10190000406A704702460020138A92890B4202EA1D
:10191000010202D0002A00D0012070472DE9F041D9
:101920000D460E884988AA882B89044616B3042ED2
:1019300028D0082E268C4FF6FF702BD026F4805628
:101940002684A78B268C00EA022200EA013127F4C4
:1019500073473A4300EA0330104326F420420A4317
:1019600042F48051A0832184E9882046BDE8F041FB
:1019700000F01AB9FFF7F4FCE9882046BDE8F04111
:1019800000F0F6B8FFF703FDE9882046BDE8F04116
:1019900000F0F6B826F480762684A78B268C00EA21
:1019A000012100EA0310104327F0F307384326F41F
:1019B00020620A4342F48071A0832184E988204692
:1019C000BDE8F04100F0E8B8002A828901D00A435E
:1019D00000E08A438281704730B5028C22F0010218
:1019E0000284028C8388048B22F0020224F07305A7
:1019F0000C882C438D8915434A882A430C4DA842F4
:101A000002D00C4DA8420DD122F00805CA8923F45A
:101A100040732A4322F004058A882A430D8A1D4315
:101A20004B8A2B438380048389684163028430BDE1
:101A30000000014000040140028B22F008020A432A
:101A40000283704770B5028C22F010020284028C6F
:101A50008488038B0D8823F4E6464FF6FF7303EA70
:101A6000052535438E8922F0200203EA0616164327
:101A70004A8803EA02123243104EB04202D0104E9E
:101A8000B04215D122F08006CA8924F4406403EAEA
:101A90000212324322F040068A8803EA02123243DD
:101AA0000E8A03EA860626434C8A03EA84043443FA
:101AB0008480058389688163028470BD00000140D1
:101AC00000040140028B4FF6FF7322F4006203EA28
:101AD000012111430183704770B5028C22F480729A
:101AE0000284028C8488838B0D8823F073031D434A
:101AF00022F400738E894FF6FF7202EA06261E4317
:101B00004B8802EA03233343104EB04202D0104EFA
:101B1000B04215D123F40066CB8924F4405402EA84
:101B20000323334323F480668B8802EA0323334381
:101B30000E8A02EA061626434C8A02EA041434434B
:101B4000848085838968C163038470BD000001407F
:101B500000040140828B22F008020A43828370470E
:101B6000C16270474163704781637047C1637047CA
:101B7000028B22F00C020283028B0A43028370471D
:101B8000028B22F440620283028B4FF6FF7303EA5A
:101B900001210A4302837047828B22F00C02828368
:101BA000828B0A4382837047828B22F44062828355
:101BB000828B4FF6FF7303EA01210A438283704749
:101BC00030B50288164B174C98420DD0A0420BD06E
:101BD000B0F1804F08D0144DA84205D0134DA84253
:101BE00002D0134DA84203D122F070054A882A433F
:101BF000104DA84206D0104DA84203D022F44075E3
:101C00000A892A4302804A68C2620A880285984289
:101C100001D0A04201D1897A01860121818230BDA3
:101C200000000140000401400004004000080040A2
:101C3000000C00400010004000140040FEE70000CF
:101C40000FB4054B10B503A9044A029800F0C6F87A
:101C500010BC5DF814FB00002525000804000020DE
:101C600002E008C8121F08C1002AFAD17047704765
:101C7000002001E001C1121F002AFBD170470000C3
:101C80002DE9FF5FDDE90220010DDDF838B00243E8
:101C900010D10F9801244CA2012808D000210098EF
:101CA0000F9BC0E90021C0E90243BDE8FF9F6FEA36
:101CB0000B01F4E7A1F2FF3144F6105041430D143B
:101CC0000F9801280ED0A5EB0B00401C4FF000042C
:101CD0003E4EDFF8FC90B0F1000AA04605DACAF1EA
:101CE000000717E0CBF10000F0E7074612E0F80725
:101CF00007D02246334640464946FEF774FB8046ED
:101D000089462246334610461946FEF76CFB0446C8
:101D10000E467F10002FEAD1DDE90201BAF1000F73
:101D200042464B4602DAFEF75EFB01E0FEF7CDFBD2
:101D300004460E460022274BFEF74EFC03D84FF018
:101D4000FF30014607E00022234B20463146FEF7D4
:101D5000A3FAFEF729FC102409E0002C0ADB0A2272
:101D60000023FEF768FA019B30321A55641E50EAD0
:101D70000102F2D1641C019AC4F1110314440F9AB8
:101D8000012A09D00122084301D15B450FDD4FF044
:101D9000000205F101050DE0084303D1A3EB0B059B
:101DA0006D1E09E000204FF0110B0F9088E701DA5B
:101DB00000226D1E002A83D000980F99C0E90231DD
:101DC000C0E9004571E70000300000000000244039
:101DD0000000F03F0000F0430000E03F2DE9FF4F1E
:101DE00095B09B4689460646002512E2252878D103
:101DF0000024761CF94A2746012105943378203BBC
:101E000001FA03F0104202D00443761CF6E7307862
:101E10002A2811D06FF02F033078A0F13002092A60
:101E200016D8059A44F0020402EB820203EB420248
:101E30001044761C0590EFE759F8042B0592002A10
:101E400003DA504244F40054059044F00204761C36
:101E500030782E2816D116F8010F44F004042A28F1
:101E60000DD06FF02F023078A0F13003092B09D884
:101E700007EB870302EB4303C718761CF3E759F817
:101E8000047B761C30786C280FD006DC4C2817D0E9
:101E900068280DD06A2814D104E0742810D07A285C
:101EA0000FD10DE044F400140AE044F4801401E082
:101EB00044F440147278824202D1761C04F58014F6
:101EC000761C307866280BD013DC582877D009DCD4
:101ED000002875D04528F6D04628F4D047281AD1D6
:101EE0009FE118E0632835D0642879D0652812D1A5
:101EF00097E1702873D008DC6728F1D069286FD08B
:101F00006E280DD06F2806D1B5E073282CD0752827
:101F100075D0782874D05A46179990476D1C76E191
:101F2000C4F30250022809D003280DD0D9F80010BC
:101F300004280DD00D6009F1040968E1D9F80010FA
:101F4000EA17C1E90052F6E7D9F800100D80F2E770
:101F50000D70F0E719F8041B8DF8001000208DF8C3
:101F60000100EA46012003E059F804AB4FF0FF30CE
:101F700061074FF0000102D40DE008F1010188462D
:101F8000B9420FDA8045F8DB1AF808100029F4D1BD
:101F900008E008F1010188468142FADB1AF80810CE
:101FA0000029F6D105985B46A0EB08072146384684
:101FB000179A00F09EFA284400EB080507E04DE070
:101FC0002BE10DE01AF8010B5A4617999047B8F12A
:101FD0000108F7D25B4621463846179A14E142E0E1
:101FE0000A220092C4F302524FF0000A022A08D0DB
:101FF00059F804CB032A4FEAEC710AD00DE029E02E
:102000002AE009F1070121F00702F2E802C1914636
:1020100009E00FFA8CFC4FEAEC71042A03D14FFA65
:102020008CFC4FEAEC71002907DA0A460021DCF14A
:10203000000C61EB02012D2202E0220504D52B22C7
:102040008DF80420012203E0E20701D02022F7E707
:10205000904653E00A2102E010220DE010214FF0DB
:10206000000A00910BE010224FF0000A44F0040433
:102070000827009203E008224FF0000A0092C4F300
:102080000252022A05D059F804CB0021032A08D0B5
:1020900009E009F1070121F00702F2E802C19146C7
:1020A00005E01FFA8CFC042A01D10CF0FF0C4FF064
:1020B0000008220722D5702827D0009B83F0100348
:1020C00053EA0A0309D15CEA010206D030228DF8F6
:1020D00004208DF8050002229046009B83F008033F
:1020E00053EA0A030AD15CEA010201D1620705D56D
:1020F00030228DF804204FF001087F1E582809D0A7
:1021000037A003900EA8029013E040228DF804201F
:102110000122E1E737A0F4E753466046009AFEF754
:102120008AF884460398825C0298A0F1010002902C
:1021300002705CEA0100EFD1029806A9A1EB000051
:1021400000F1200A600702D524F4803400E0012762
:10215000574502DDA7EB0A0000E0002000EB0A0172
:10216000009005984144A0EB01000590E00306D4DF
:102170005B462146179A059800F0BBF905440027F5
:1021800006E001A85A46C05D179990476D1C7F1C58
:102190004745F6DBE0030CD55B462146179A0598C8
:1021A00000F0A7F9054404E030205A4617999047FB
:1021B0006D1C0099481E00900029F5DC08E002988B
:1021C00002995A460078491C0291179990476D1C54
:1021D000BAF10001AAF1010AF1DC6BE10928010062
:1021E000303132333435363738396162636465668D
:1021F000000000003031323334353637383941424F
:10220000434445460000000000F060F9054406F133
:102210000106307800287FF4E9AD19B02846BDE802
:10222000F08F620700D4062709F1070222F0070C9D
:10223000FCE80223E14603F000485FEA080C02D004
:102240000FF27C2C0DE05FEA045C02D50FF2742CD7
:1022500007E05FEAC47C02D00FF26C2C01E0AFF221
:10226000700C4FF0FF3823F00043CDF850C06528C4
:102270000CD006DC452809D046281DD047283ED181
:102280003EE0662818D0672839D139E00021112FA7
:1022900001DB112000E0781CCDE9000106A90EA8A1
:1022A000FFF7EEFCDDE90F010E9A03910021009289
:1022B00007F1010A04914EE04FF000400097CDE98C
:1022C000011006A90EA8FFF7DBFCDDE90F0203925F
:1022D0000E9B11990022DDF80CA00093049219B90D
:1022E00007F1010100EB010AB7EB0A0004D4C0F1C9
:1022F000FF3007F1010A0490AAEB0700019046E0C5
:10230000012F00DA01270021112F01DD112000E04B
:102310003846CDE9000106A90EA8FFF7B1FCDDE9BA
:102320000F010E9A0391002104910092BA462107F1
:102330000CD40399514500DA8A46BAF1010F05DD44
:10234000009AAAF10101515C302908D0B84202DAA2
:1023500010F1040F06DA0121CDE9011017E0AAF10E
:102360000101E9E7002805DC049901440491AAEB86
:10237000000102E0411C514500DD8A460499A0EBB2
:10238000010000F1010001904FF000400290200791
:1023900004D40198504501DBCDF8048000208DF86D
:1023A0004F0002980DF14F07B0F1004F25D02B20C0
:1023B0000E9002984FF0020800280CDA404202907A
:1023C0002D200E9007E00A210298FDF71EFF303104
:1023D000029007F8011DB8F10001A8F10108F2DC34
:1023E00002980028EFD1791E0E980870307800F01E
:1023F000200040F0450007F8020D12A8A0EB0700EE
:1024000000F107081498007800B1012000EB0A01E0
:10241000019801EBE07105984144A0EB0100A0F1A7
:1024200001000590E00306D45B462146179A059803
:1024300000F05FF805441498007820B15A461799C7
:10244000904705F10105E00323D55B462146179A25
:10245000059800F04EF805441BE00498002807DBBF
:10246000DDE90301884203DD0098405C179901E033
:10247000179930205A46904704986D1C401C0490D0
:102480000198401E019004D12E205A46179990477A
:102490006D1CBAF10001AAF1010ADEDC05E017F8B3
:1024A000010B5A46179990476D1CB8F10001A8F12D
:1024B0000108F4DC5B462146179A0598A4E6000063
:1024C0002D0000002B000000200000002DE9F0414D
:1024D000044600251E461746880405D406E0394602
:1024E0002020B04705F10105641EF8D52846BDE857
:1024F000F0812DE9F041044600251E469046C803B0
:1025000001D5302700E02027880405D506E04146A4
:102510003846B04705F10105641EF8D52846BDE8E8
:10252000F081000005490968C90105D54FF06041F7
:102530000A68002AFCD0087070470000FCED00E03B
:102540008AB022A0FFF77CFB25489FED240A00F10A
:10255000100180ED010A9FED230A282280ED020A76
:102560009FED210A80ED000A9FED200A80ED060A0A
:10257000B7EE000A80ED080A9FED1D0A80ED070AFC
:102580006846FDF71DFE16480FC8FEF78FFDD020E8
:10259000FEF79AFA17484FF47A710068B0FBF1F031
:1025A000401EB0F1807F09D24FF0E0214861124A0D
:1025B000F02010700020886107200861FEF702FFFC
:1025C000FFF784F8FEF724F9FEE7000048656C6C1D
:1025D0006F20576F726C640A00000000B003673C04
:1025E000BC0000205B40D038ACA8C13B000000001C
:1025F000000048432400002023ED00E0437269748A
:102600006963616C204661696C757265200A00001F
:1026100000000000000000000100010001000100B6
:1026200000000100000001000100000001000100A5
:102630000100000000000100010000000000000097
:10264000000101010202020303030304040405055F
:1026500005060606070707080808080909090A0AFF
:102660000A0B0B0B0C0C0C0D0D0D0D0E0E0E0F0F9F
:102670000F1010101111111212121213131314143F
:1026800014151515161616161717171818181919E0
:1026900019191A1A1A1B1B1B1C1C1C1D1D1D1D1E83
:1026A0001E1E1F1F1F1F2020202121212222222227
:1026B00023232324242425252525262626272727CA
:1026C00027282828292929292A2A2A2B2B2B2B2C71
:1026D0002C2C2D2D2D2D2E2E2E2F2F2F2F30303018
:1026E00030313131323232323333333334343435C2
:1026F000353535363636363737373738383838396E
:1027000039393A3A3A3A3B3B3B3B3C3C3C3C3D3D19
:102710003D3D3E3E3E3E3F3F3F3F404040404041CA
:10272000414141424242424343434344444444447E
:102730004545454546464646464747474748484833
:102740004848494949494A4A4A4A4A4B4B4B4B4BEC
:102750004C4C4C4C4C4D4D4D4D4D4E4E4E4E4E4FA7
:102760004F4F4F4F50505050505151515151515265
:102770005252525253535353535354545454545427
:1027800055555555555556565656565657575757EB
:1027900057575758585858585859595959595959B5
:1027A0005A5A5A5A5A5A5A5A5B5B5B5B5B5B5B5C80
:1027B0005C5C5C5C5C5C5C5D5D5D5D5D5D5D5D5D50
:1027C0005E5E5E5E5E5E5E5E5E5F5F5F5F5F5F5F22
:1027D0005F5F5F5F606060606060606060606061FC
:1027E00061616161616161616161616162626262D5
:1027F00062626262626262626262626263636363B5
:102800006363636363636363636363636363636398
:10281000636363636464646464646464646464647C
:102820006464646464646464646464646464646468
:102830006464646464646464646464646464646458
:102840006464646464646464646464646464646448
:102850006464646363636363636363636363636345
:10286000636363636363636363636362626262623D
:10287000626262626262626262626261616161613D
:102880006161616161616161606060606060606040
:102890006060605F5F5F5F5F5F5F5F5F5F5F5E5E47
:1028A0005E5E5E5E5E5E5E5D5D5D5D5D5D5D5D5D51
:1028B0005C5C5C5C5C5C5C5C5B5B5B5B5B5B5B5A61
:1028C0005A5A5A5A5A5A5A59595959595959585873
:1028D0005858585857575757575757565656565689
:1028E00056555555555555545454545454535353A3
:1028F00053535352525252525151515151515050BF
:102900005050504F4F4F4F4F4E4E4E4E4E4D4D4DDF
:102910004D4D4C4C4C4C4C4B4B4B4B4B4A4A4A4A02
:102920004A49494949484848484847474747464629
:102930004646464545454544444444444343434351
:10294000424242424141414140404040403F3F3F7E
:102950003F3E3E3E3E3D3D3D3D3C3C3C3C3B3B3BAB
:102960003B3A3A3A3A3939393838383837373737DD
:102970003636363635353535343434333333333211
:10298000323232313131303030302F2F2F2F2E2E46
:102990002E2D2D2D2D2C2C2C2B2B2B2B2A2A2A297E
:1029A00029292928282827272727262626252525B7
:1029B00025242424232323222222222121212020F2
:1029C000201F1F1F1F1E1E1E1D1D1D1D1C1C1C1B2E
:1029D0001B1B1A1A1A19191919181818171717166C
:1029E00016161615151514141413131312121212A9
:1029F0001111111010100F0F0F0E0E0E0D0D0D0DE9
:102A00000C0C0C0B0B0B0A0A0A0909090808080828
:102A10000707070606060505050404040303030368
:102A2000020202010101000000000000000000009D
:102A30000000000000000000000000000000000096
:102A40000000000000000000000000000000000086
:102A50000000000000000000000000000000000076
:102A60000000000000000000000000000000000066
:102E1000302E00080000002050000000601C000858
:102E2000802E000850000020A8040000701C00083C
:102E3000000000000000000000009B0235050000BB
:102E40000000000000000000000000000000000082
:102E500000000000007A030A0000000000000000EB
:102E60000102030406070809000000000102030430
:102E7000010203040607080900000000000000002A
:040000050800018965
:00000001FF
