:020000040800F2
:10000000A80400209D01000853090008E702000829
:100010005109000811020008D30D0008000000007B
:10002000000000000000000000000000B10B00080C
:10003000130200080000000059090008690C0008BC
:10004000B7010008B7010008B7010008B7010008B0
:10005000B7010008B701000815020008B701000841
:10006000B7010008B7010008B7010008B701000890
:10007000B7010008B7010008B7010008B701000880
:10008000B7010008B7010008B7010008B701000870
:10009000B7010008B7010008B7010008B701000860
:1000A000B7010008B7010008B7010008C90C000833
:1000B000B7010008B7010008B7010008B701000840
:1000C000B7010008B7010008B7010008B701000830
:1000D000B7010008B7010008B7010008B701000820
:1000E000B7010008B701000857090008B701000868
:1000F000B7010008B7010008B7010008B701000800
:10010000B7010008B7010008B7010008B7010008EF
:10011000B7010008B7010008B7010008810D000809
:10012000B7010008B7010008B7010008B7010008CF
:10013000B7010008B7010008B7010008B7010008BF
:10014000B7010008B7010008B70100085509000809
:10015000B7010008B7010008B7010008B70100089F
:10016000B7010008B7010008B7010008B70100088F
:10017000B7010008B7010008B7010008B70100087F
:10018000B7010008B7010008DFF80CD000F02EF826
:1001900000480047850F0008A80400200648804753
:1001A00006480047FEE7FEE7FEE7FEE7FEE7FEE75C
:1001B000FEE7FEE7FEE7FEE76D0C00088901000898
:1001C00030B50B46014600202022012409E021FA27
:1001D00002F59D4205D303FA02F5491B04FA02F524
:1001E0002844151EA2F10102F1DC30BD064C074D7A
:1001F00006E0E06840F0010394E8070098471034F7
:10020000AC42F6D3FFF7C4FF2C1400084C140008CE
:10021000FEE7704770470000014800F0DBFDFEE795
:1002200000100008F0B50023012403270D6804FA2C
:1002300003F21540954242D1D0F800C05E0007FAA3
:1002400006F52CEA050CC0F800C091F804C0D0F8FF
:1002500000E00CFA06FC4CEA0E0CC0F800C091F865
:1002600004C0BCF1010F02D0BCF1020F1FD1D0F8C5
:1002700008C02CEA050CC0F808C091F805C0D0F8F9
:1002800008E00CFA06FC4CEA0E0CC0F808C0D0F8E6
:1002900004C02CEA020CC0F804C0426891F806C001
:1002A0000CFA03FC1FFA8CFC42EA0C024260C268A2
:1002B000AA43C260CA79C568B2402A43C2605B1CC7
:1002C000102BB3D3F0BD4B07DB0E9A40C90810B515
:1002D00000EB8100016A0F249C40A1430162016A86
:1002E0001143016210BDFEE70029018802D041F4EC
:1002F000806101E021F480610180704702460020A6
:10030000938A128B43EA024323F07F42914300D148
:10031000012070470029018802D041F0010101E06D
:1003200021F00101018070470029018802D041F4C9
:10033000807101E021F480710180704700290188FB
:1003400002D041F4007101E021F400710180704796
:100350000CB50246002000920A0F21F07F41019265
:1003600002D0009A143202E0009A090C183200926E
:1003700012680A4200D001200CBD00007FB504467F
:1003800080880D4620F03F06684600F0C9FB2649EC
:100390000298B0FBF1F189B20E43A680228822F0C8
:1003A00001022280214B2A689A421BD85200B0FBDE
:1003B000F2F080B2042800D20420491C2184A083DA
:1003C000208840F00100208021884FF6F530014060
:1003D000A8886A89104308432080A889298908438E
:1003E00020817FBDEB88A3F53F46FF3E05D102EBA0
:1003F0004202B0FBF2F080B208E002EBC20303EB72
:100400000212B0FBF2F080B240F48040020501D14C
:1004100040F001004FF4967251434FF47A72B1FBF1
:10042000F2F140F40040C8E740420F00A08601000E
:10043000008AC0B2704712B141F0010101E001F041
:10044000FE01018270470182704700002DE9FF5FC5
:100450008B469A46914605460021FFF75BFF012136
:100460002846FFF757FF564C0220574E20710120B7
:10047000A071E07103206071524885420DD10121C5
:10048000480500F041FB0121022000F031FB4FF450
:10049000407020602146304628E04C4885426BD0B1
:1004A0004B48854224D10121C80500F02DFB0121D4
:1004B000084600F01DFB0121042000F019FB454F08
:1004C000042208213846FFF7FEFEDFF80C810422E3
:1004D00009214046FFF7F7FEA81520603849384645
:1004E000FFF7A0FE6815206035494046FFF79AFEE9
:1004F0003A4800904FF48040ADF80C000020ADF871
:100500000800ADF80400ADF80A004BF6FF70ADF836
:10051000060069462846FFF731FF042208213046CD
:10052000FFF7D1FE042209213046FFF7CCFE01235C
:1005300000225946284600F057F918B1012004B0AE
:10054000BDE8F09F284600F0A5F925A000F042FC88
:10055000002375225946284600F0D2F8682801D0B9
:100560000220ECE729A000F035FC80236B225946DD
:10057000284600F0B7F908B10320E0E700231C2269
:100580005946284600F0BCF800F0E70141EAC900EE
:10059000C3B21C225946284600F0A4F900231B22AE
:1005A0005946284600F0ACF800F0E70141EACA00DD
:1005B000C3B21B225946284600F094F90020BEE73A
:1005C0001C0000200054004000040240005800407D
:1005D000005C00400000024000080240A0860100CC
:1005E00044657669636520697320436F6E6E656349
:1005F0007465642C2052656164696E67204164648F
:10060000726573732E2E2E200A00000041646472FE
:1006100065737320697320636F72726563742C2035
:10062000436F6E6669677572696E672044657669A7
:1006300063652E2E2E200A002DE9F05F9946904624
:1006400044F620658A4683462C46012300220A9FF1
:1006500000F0CAF8284E02E0641E24B29CB3314672
:100660005846FFF775FE08B9002CF5D141465846AB
:10067000FFF7E9FE584600F00DF901231A465146EE
:10068000584600F0B1F801215846FFF72DFE00242E
:10069000DFF868802CE0781E84422E461AD10021B3
:1006A0005846FFF721FE01215846FFF747FE02E0BA
:1006B000761E36B23EB141465846FFF71FFE80B95E
:1006C000002EF5D10DE002E0761E36B216B90120FB
:1006D000BDE8F09F41465846FFF710FE08B9002ECE
:1006E000F2D15846FFF7A4FE09F80400641CE4B2F6
:1006F000BC42D0D30020EBE7800000104000030094
:100700002DE9F0471E46904644F6206500238946B1
:1007100082462C461A4600F067F81E4F02E0641E1F
:1007200024B264B339465046FFF712FE08B9002CD4
:10073000F5D141465046FFF786FE504600F0AAF834
:10074000002301224946504600F04EF826B101210F
:100750005046FFF7C9FD07E000215046FFF7C4FDF2
:1007600001215046FFF7EAFD0B4C02E06D1E2DB251
:100770002DB121465046FFF7C1FD18B104E001201C
:10078000BDE8F087002DF1D15046BDE8F047FFF7F6
:100790004FBE0000800000104000030030B585B05F
:1007A0000C4615460E21009101AB3B222946FFF76E
:1007B00043FFBDF8040040BA2080BDF8060040BAEF
:1007C0006080BDF8080040BAA080BDF80C0040BAB7
:1007D000E080BDF80E0040BA2081BDF8100040BA9C
:1007E000608105B0002030BD2DE9F0471F46164658
:1007F000894682464FF4003421465046FFF7A8FD53
:100800000028F9D101215046FFF78EFD44F62065FE
:100810002C46DFF8748002E0641E24B26CB34146BB
:100820005046FFF76BFD08B9002CF5D11FB101212F
:100830001648FFF759FD324649465046FFF7FBFD83
:1008400016B1012E0DD01DE0114C02E06D1E2DB22F
:100850009DB121465046FFF751FD98B9002DF5D1C5
:1008600010E0094C641C02E06D1E2DB22DB1214632
:100870005046FFF743FD18B104E00120BDE8F087C2
:10088000002DF1D10020F9E70100030000540040E1
:10089000820007002DE9F041074644F6206401215B
:1008A000FFF74CFD0E4E0E4D7C3E02E0641E24B25E
:1008B00054B129463846FFF74BFD40B13146384622
:1008C000FFF746FD18B104E00120BDE8F081002CDF
:1008D000ECD101213846FFF731FD0020F5E700009B
:1008E000800000102DE9F0479846174644F6206531
:1008F000002381462C461A46FFF776FF134E02E08E
:10090000641E24B2A4B131464846FFF721FD08B960
:10091000002CF5D139464846FFF795FD02E06D1EE3
:100920002DB22DB131464846FFF712FD18B104E053
:100930000120BDE8F087002DF1D141464846FFF780
:1009400082FD4846FFF7A6FF0020F2E78000001076
:10095000FEE77047704770477047000070B572B689
:1009600000235A4E3A22D0213046FFF7C9FE584D97
:1009700000287BD00021A5F1780400BF01EB4100E5
:1009800004EB8000491C90ED010AC9B280ED000A19
:1009900090ED020A062980ED010AEFD34C4A0020AF
:1009A000B2F1300200EB400102EB8101401C91EDFD
:1009B000010AC0B281ED000A91ED020A032881ED1F
:1009C000010AEFD3D02242493046FFF7E7FEB5F9DE
:1009D000000000EE100AB8EEC01ADFED3E0A81EE0C
:1009E000200A84ED020AB5F9020001EE100AB8EE01
:1009F000C11AC1EE201AC4ED051AB5F9040001EEC2
:100A0000100AB8EEC11AC1EE201AC4ED081AB5F9E1
:100A1000060000EE900AB8EEE01ADFED2F0A81EE34
:100A2000202A84ED0B2AB5F9080001EE100AB8EE71
:100A3000C11A81EE202A84ED0E2AB5F90A0001EED2
:100A4000100A2348B8EEC11A0C3881EE202AF1EEC4
:100A5000000A84ED112A94ED091A94ED0A2AD0EDCA
:100A6000002A02EE201A31EE002A00E021E09FED7C
:100A70001B1A04F1300142EE012AC0ED002A91EC6C
:100A8000022A02EEA02A32EE000A90ED012A00EEC0
:100A9000012A80ED012A94ED0F0A94ED102A02EE4E
:100AA000200AD0ED020A30EE210A40EE010AC0ED24
:100AB000020AB5F906100AA000F08CF962B601210D
:100AC000BDE87040094800F06FB9000000540040D4
:100AD0009C00002000FEFF45681103436F12033A9B
:100AE000596177203D202564200A0000000800405D
:100AF000044A0029116801D0014300E081431160DC
:100B00007047000030380240044A0029116801D0C3
:100B1000014300E08143116070470000403802400B
:100B200070B5204A1168204C11F00C0104D06610F9
:100B3000042903D0082903D004601BE0066019E0F3
:100B40001849091F0B68C3F380550B6803F03F0376
:100B500015B1B6FBF3F301E0B4FBF3F30C680968DD
:100B6000C4F388146343C1F30141491C4900B3FB3A
:100B7000F1F1016011680F2303EA11110B4B5C5C6A
:100B80000168E14041601468072505EA94241C5D72
:100B900021FA04F48460126805EA52329A5CD1406A
:100BA000C16070BD083802400024F4000A00002033
:100BB000704700000CB500202749019000900A689A
:100BC00042F480320A604FF4A0430A6802F4003213
:100BD0000092019A521C0192009A12B9019A9A420B
:100BE000F3D10A68920334D5012000901A484030AE
:100BF000026842F0805202601848026842F44042A3
:100C000002601548083002680260026842F400423F
:100C10000260026842F4A0520260031F104A1A6088
:100C20000A6842F080720A600A689201FCD50D4A97
:100C300040F205711160016821F003010160016853
:100C400041F0020101600168C1F381010229FAD17A
:100C50000CBD00900CBD0000003802400070004048
:100C600008544007003C024070470000124810B58D
:100C7000016841F4700101601048016841F0010110
:100C800001600E4A00210832116002680C4B1A40C4
:100C90000260031D0B4A1A60026822F4802202607F
:100CA00006480C300160FFF785FF03494FF00060F4
:100CB0008039086010BD000088ED00E00038024077
:100CC000FFFFF6FE103000242DE9F041DFF8A4808C
:100CD0000221404600F06BF8B8B3274C4FF4FA6697
:100CE00077102088254D401C80B220806188491CE7
:100CF0006180A188491CA180B04203D9A0F5FA60A7
:100D000020800AE0B84201D9002103E0285CD2210A
:100D100010FB01F1404600F056F86088B04203D95C
:100D2000A0F5FA6060800AE0B84201D9002103E032
:100D3000285CD22110FB01F1404600F046F8A08863
:100D4000B04203D9A0F5FA60A0800DE0B84204D902
:100D50000021404600F039F806E0285CD22110FB63
:100D600001F1404600F033F84046BDE8F041022171
:100D700000F01AB8000001400400002044100008F0
:100D800010B5084C0121204600F011F818B1BDE85B
:100D90001040FFF7E3BD2046BDE81040012100F000
:100DA00003B8000000140040C943018270470246A6
:100DB0000020138A92890B4202EA010202D0002A23
:100DC00000D0012070474163704781637047C16361
:100DD0007047FEE70FB4054B10B503A9044A02980B
:100DE00000F018F810BC5DF814FB0000690F000853
:100DF0000000002002E008C8121F08C1002AFAD132
:100E000070477047002001E001C1121F002AFBD18A
:100E1000704700002DE9FF4F89B09B46044600252E
:100E200097E0252833D10027641C4E49B84601229B
:100E30002378203B02FA03F0084202D00743641CE7
:100E4000F6E720782E2819D114F8010F47F004078F
:100E50002A280ED06FF02F022078A0F13001092946
:100E60000CD808EB880102EB410100EB0108641C7F
:100E7000F2E70A98641C50F8048B0A902078002846
:100E80006BD0642808D0692806D0752820D05A462F
:100E90000B9990476D1C5BE00A994FF00A0901C954
:100EA0000A91002804DAC0F100004FF02D0102E0A1
:100EB000390504D52B218DF82010012103E0F90715
:100EC00004D02021F7E78A4608AE0EE00021FAE7B9
:100ED0000A994FF00A0901C90A91F7E74946FFF755
:100EE0006FF901F1300106F8011D0028F6D1ADEBD4
:100EF000060000F12009780701D44FF00108C84529
:100F000002DDA8EB090000E000208046002706E093
:100F100008A85A46C05D0B9990476D1C7F1C574529
:100F2000F6DB04E030205A460B9990476D1CB8F16F
:100F30000001A8F10108F5DC05E016F8010B5A469E
:100F40000B9990476D1CB9F10001A9F10109F4DC7E
:100F5000641C207800287FF464AF0DB02846BDE8FB
:100F6000F08F00000928010005490968C90105D56D
:100F70004FF060410A68002AFCD0087070470000FA
:100F8000FCED00E011A0FFF725FF72B6D021134C55
:100F9000002308222046FFF759FA08B1FFF73CF971
:100FA00000237522D0212046FFF7AAFB01460CA0A2
:100FB000FFF710FF00236B22D0212046FFF7A0FB94
:100FC00001460BA0FFF706FF62B6FEE748656C6CB2
:100FD0006F20576F726C640A0000000000540040DC
:100FE00057484F20414D20493D202564200A0000EC
:100FF000505752204D474D543D202564200A000093
:10100000437269746963616C204661696C757265CD
:10101000200A0000000000000000000001000100A4
:1010200001000100000001000000010001000000BB
:1010300001000100010000000000010001000000AB
:101040000000000000010101020202030303030487
:101050000404050505060606070707080808080929
:1010600009090A0A0A0B0B0B0C0C0C0D0D0D0D0EC9
:101070000E0E0F0F0F101010111111121212121369
:10108000131314141415151516161616171717180A
:101090001818191919191A1A1A1B1B1B1C1C1C1DAC
:1010A0001D1D1D1E1E1E1F1F1F1F20202021212150
:1010B00022222222232323242424252525252626F3
:1010C0002627272727282828292929292A2A2A2B99
:1010D0002B2B2B2C2C2C2D2D2D2D2E2E2E2F2F2F40
:1010E0002F303030303131313232323233333333EA
:1010F0003434343535353536363636373737373894
:101100003838383939393A3A3A3A3B3B3B3B3C3C40
:101110003C3C3D3D3D3D3E3E3E3E3F3F3F3F4040EF
:1011200040404041414141424242424343434344A3
:101130004444444445454545464646464647474758
:10114000474848484848494949494A4A4A4A4A4B0F
:101150004B4B4B4B4C4C4C4C4C4D4D4D4D4D4E4ECA
:101160004E4E4E4F4F4F4F4F505050505051515187
:101170005151515252525252535353535353545448
:10118000545454545555555555555656565656560D
:1011900057575757575757585858585858595959D3
:1011A000595959595A5A5A5A5A5A5A5A5B5B5B5B9F
:1011B0005B5B5B5C5C5C5C5C5C5C5C5D5D5D5D5D6D
:1011C0005D5D5D5D5E5E5E5E5E5E5E5E5E5F5F5F40
:1011D0005F5F5F5F5F5F5F5F606060606060606017
:1011E00060606061616161616161616161616161F2
:1011F00062626262626262626262626262626262CF
:1012000063636363636363636363636363636363AE
:101210006363636363636363646464646464646496
:10122000646464646464646464646464646464647E
:10123000646464646464646464646464646464646E
:10124000646464646464646464646464646464645E
:101250006464646464646463636363636363636357
:10126000636363636363636363636363636363624F
:10127000626262626262626262626262626262614F
:101280006161616161616161616161616060606052
:10129000606060606060605F5F5F5F5F5F5F5F5F57
:1012A0005F5F5E5E5E5E5E5E5E5E5E5D5D5D5D5D61
:1012B0005D5D5D5D5C5C5C5C5C5C5C5C5B5B5B5B6E
:1012C0005B5B5B5A5A5A5A5A5A5A5A595959595980
:1012D0005959585858585858575757575757575695
:1012E00056565656565555555555555454545454AE
:1012F00054535353535353525252525251515151CA
:10130000515150505050504F4F4F4F4F4E4E4E4EE8
:101310004E4D4D4D4D4D4C4C4C4C4C4B4B4B4B4B0B
:101320004A4A4A4A4A494949494848484848474731
:101330004747464646464645454545444444444459
:101340004343434342424242414141414040404085
:10135000403F3F3F3F3E3E3E3E3D3D3D3D3C3C3CB1
:101360003C3B3B3B3B3A3A3A3A39393938383838E2
:101370003737373736363636353535353434343316
:1013800033333332323232313131303030302F2F4B
:101390002F2F2E2E2E2D2D2D2D2C2C2C2B2B2B2B81
:1013A0002A2A2A29292929282828272727272626BB
:1013B00026252525252424242323232222222221F5
:1013C00021212020201F1F1F1F1E1E1E1D1D1D1D31
:1013D0001C1C1C1B1B1B1A1A1A191919191818186E
:1013E00017171716161616151515141414131313AC
:1013F000121212121111111010100F0F0F0E0E0EEB
:101400000D0D0D0D0C0C0C0B0B0B0A0A0A0909092A
:10141000080808080707070606060505050404046A
:101420000303030302020201010100004C1400083F
:101430000000002024000000F40D000870140008D3
:101440002400002084040000040E000800000000B6
:1014500000009B02350500000000010203040102A8
:101460000304060708090000000000000000000057
:040000050800018965
:00000001FF
