:020000040800F2
:10000000C80A00209D010008670A00081F070008B1
:10001000650A0008E5010008811F000800000000D3
:10002000000000000000000000000000BD0C0008FF
:100030002F06000800000000090B0008990D0008B9
:10004000B7010008B7010008B7010008B7010008B0
:10005000B7010008B701000831060008B701000821
:10006000B7010008B7010008B7010008B701000890
:10007000B7010008B7010008B7010008B701000880
:10008000B7010008B7010008B7010008B701000870
:10009000B7010008B7010008B7010008B701000860
:1000A000B7010008B7010008B7010008210E0008D9
:1000B000B7010008B7010008B7010008B701000840
:1000C000B7010008B7010008B7010008B701000830
:1000D000B7010008B7010008B7010008B701000820
:1000E000B7010008B7010008D90A0008B7010008E5
:1000F000B7010008B7010008B7010008B701000800
:10010000B7010008B7010008B7010008B7010008EF
:10011000B7010008B7010008B7010008F90F00088F
:10012000B7010008B7010008B7010008B7010008CF
:10013000B7010008B7010008B7010008B7010008BF
:10014000B7010008B7010008B7010008CD0A000890
:10015000B7010008B7010008B7010008B70100089F
:10016000B7010008B7010008B7010008B70100088F
:10017000B7010008B7010008B7010008B70100087F
:10018000B7010008B7010008DFF80CD000F018F83C
:1001900000480047A11F0008C80A00200648804701
:1001A00006480047FEE7FEE7FEE7FEE7FEE7FEE75C
:1001B000FEE7FEE7FEE7FEE7D10D00088901000833
:1001C000064C074D06E0E06840F0010394E80700A4
:1001D00098471034AC42F6D3FFF7DAFFC423000887
:1001E000E4230008FEE70A4610B5090602F07F0383
:1001F00006D503EB830100EBC10101F58C7105E02D
:1002000002EB820100EBC10101F55C7100248C70EE
:100210000B70D2094A7001F068FD002010BD70B566
:100220000C460E0601F07F0505EB850100EBC101D0
:1002300002D501F58C7101E001F55C71E4090D70E6
:100240004C708A60CB7000D0CD80022B01D100228F
:100250000A7101F021FD002070BD10B501F07F048E
:1002600004EB840100EBC10101F55C714B61CA60D4
:1002700000238B614B700C70C378012B00D10A6195
:1002800014F0FF0F03D001F061FD002010BD01F05C
:1002900095FCFAE70069002261F30A120168114334
:1002A000016070470A4610B5090602F07F0306D5C3
:1002B00003EB830100EBC10101F58C7105E002EB5A
:1002C000820100EBC10101F55C7101248C700B709F
:1002D000D2094A7001F022FD002010BD70B511F066
:1002E0007F0404EB840100EBC10101F58C714FF038
:1002F00001054D700C70CA600A614FF00002C1E93F
:10030000053203D001F022FD002070BD01F056FC43
:10031000FAE700002DE9F0410646002501F0E9FD6D
:10032000074663E0F8075FD03069E9B20369426BC2
:10033000CA4006EB810102F00102896943EAC21258
:100340008C681440E1071AD00124426B04FA05F1CD
:100350008A43426306EB8500806984602648E9B2DF
:100360000068426830469047F078012807D135B9D7
:1003700096F81101042802D1304601F07BFC600799
:1003800004D506EB8500042480698460200704D529
:1003900006EB8500082480698460E00604D506EB3E
:1003A0008500102480698460A00604D506EB8500D2
:1003B000202480698460600604D506EB8500402413
:1003C00080698460A00704D506EB8500022480695B
:1003D0008460200608D52946304600F0EBF806EB8D
:1003E00085018020896988606D1C7F08002F99D164
:1003F0000120BDE8F0810000400000202DE9F0411F
:100400000646002501F07BFD0746DFF8A4804AE0A0
:10041000F80746D0E9B2304601F077FD0446C00740
:1004200025D006EB85000124416D8C60F17801290F
:100430000CD1406D016905EB850006EBC000C1F3EE
:100440001201D0F87823511AC0F88813D8F80000A8
:10045000E9B2026830469047F078012807D135B9F3
:1004600096F81101052802D1304601F003FCA007DF
:1004700004D506EB85000224406D8460600704D536
:1004800006EB85000424406D8460200709D5D8F868
:10049000000081683046884706EB85010820496DD9
:1004A00088606D1C7F08002FB2D10120BDE8F0816B
:1004B0004000002070B50646C068816921F0100137
:1004C0008161F068056A05F00F0000EB800006EB23
:1004D000C004C5F3434004F55C74072821D2DFE86B
:1004E00000F0202004202020150047F6F07005427F
:1004F00017D0C5F30A152A463046E16801F00DFD14
:10050000E0682844E060A069284409E0082206F574
:10051000B961304601F001FDA069C5F30A11084434
:10052000A061F068816941F010018161012070BD16
:1005300070B50446006900250126416821F00101DB
:1005400041602946204601F093FC0021FF2006E08F
:1005500004EB810293699860526D9060491C627847
:100560008A42F5D821694FF0FF3088612846216919
:1005700066F30F0066F31F40C861216945F00F0064
:100580004861216945F02F0008612069016821F464
:10059000FE610160204601F06DFBE1684FF4805080
:1005A000486103480068016920468847012070BD02
:1005B000400000202DE9F0470D46064601EB85007E
:1005C00006EBC00404F58C74D4E90501421AA06856
:1005D000904200D20246D21C970806EB850917E02C
:1005E000A0EB0108A068404500D2804608F1030056
:1005F00087081FFA88F3EAB23046E16801F0ACFCE4
:10060000E16801EB0800E060A16901EB0800A0616E
:10061000D9F81800806980B2B84205D9D4E905013B
:10062000814201D20028DBD10120BDE8F08770476C
:10063000064910B5012008700021800700F006FE71
:10064000BDE81040012000F003B8000001000020C8
:100650000149086070470000143C0140F0B50023D8
:10066000012403270D6804FA03F21540954242D194
:10067000D0F800C05E0007FA06F52CEA050CC0F8B9
:1006800000C091F804C0D0F800E00CFA06FC4CEA77
:100690000E0CC0F800C091F804C0BCF1010F02D0EC
:1006A000BCF1020F1FD1D0F808C02CEA050CC0F82D
:1006B00008C091F805C0D0F808E00CFA06FC4CEA36
:1006C0000E0CC0F808C0D0F804C02CEA020CC0F828
:1006D00004C0426891F806C00CFA03FC1FFA8CFCB7
:1006E00042EA0C024260C268AA43C260CA79C56885
:1006F000B2402A43C2605B1C102BB3D3F0BD4B0742
:10070000DB0E9A40C90810B500EB8100016A0F2486
:100710009C40A1430162016A1143016210BDFEE7E2
:100720000029018802D041F4806101E021F4806158
:100730000180704702460020938A128B43EA0243ED
:1007400023F07F42914300D10120704700290188A6
:1007500002D041F4807101E021F480710180704782
:100760000029018802D041F4007101E021F40071F8
:10077000018070470CB50246002000920A0F21F05C
:100780007F41019202D0009A143202E0009A090CD3
:100790001832009212680A4200D001200CBD008A73
:1007A000C0B2704712B141F0010101E001F0FE0159
:1007B00001827047018270472DE9F05F99469046AB
:1007C00044F620658A4683462C46012300220A9F70
:1007D00000F0CAF8284E02E0641E24B29CB33146F1
:1007E0005846FFF7C7FF08B9002CF5D141465846D7
:1007F000FFF7E0FF584600F00DF901231A46514675
:10080000584600F0B1F801215846FFF789FF00244F
:10081000DFF868802CE0781E84422E461AD1002131
:100820005846FFF77DFF01215846FFF799FF02E088
:10083000761E36B23EB141465846FFF77BFF80B97F
:10084000002EF5D10DE002E0761E36B216B9012079
:10085000BDE8F09F41465846FFF76CFF08B9002EEF
:10086000F2D15846FFF79BFF09F80400641CE4B27C
:10087000BC42D0D30020EBE7800000104000030012
:100880002DE9F0471E46904644F620650023894630
:1008900082462C461A4600F067F81E4F02E0641E9E
:1008A00024B264B339465046FFF764FF08B9002C00
:1008B000F5D141465046FFF77DFF504600F0AAF8BB
:1008C000002301224946504600F04EF826B101218E
:1008D0005046FFF725FF07E000215046FFF720FFB5
:1008E00001215046FFF73CFF0B4C02E06D1E2DB27C
:1008F0002DB121465046FFF71DFF18B104E001203D
:10090000BDE8F087002DF1D15046BDE8F047FFF774
:1009100046BF0000800000104000030030B585B0E5
:100920000C4615460E21009101AB3B222946FFF7EC
:1009300043FFBDF8040040BA2080BDF8060040BA6D
:100940006080BDF8080040BAA080BDF80C0040BA35
:10095000E080BDF80E0040BA2081BDF8100040BA1A
:10096000608105B0002030BD2DE9F0471E461546D8
:10097000884681464FF4003739464846FFF7FAFE6D
:100980000028F9D101214846FFF7E0FE1E4F02E0A2
:10099000641E24B27CB339464846FFF7CBFE08B943
:1009A000002CF5D11EB101211848FFF7B9FE2A46E7
:1009B00041464846FFF7F6FE44F6206415B1012D86
:1009C0000DD01EE0124D02E0641E24B29CB12946F7
:1009D0004846FFF7AFFEA0B9002CF5D111E00A4D53
:1009E0006D1C02E0641E24B22CB129464846FFF774
:1009F000A1FE20B105E0FFE70120BDE8F087002C53
:100A0000F0D10020F9E7000001000300005400408D
:100A1000820007002DE9F041074644F620640121D9
:100A2000FFF79EFE0E4E0E4D7C3E02E0641E24B289
:100A300054B129463846FFF79DFE40B1314638464D
:100A4000FFF798FE18B104E00120BDE8F081002C0A
:100A5000ECD101213846FFF783FE0020F5E70000C6
:100A600080000010FEE7704770B50F21C47802784F
:100A700001234FF0E026E4B1124C246804F4E06452
:100A8000C4F5E064C4F30724C4F10405E1404478EC
:100A9000AC4085780D4025430B4C29011155007859
:100AA00000F01F018B40400906EB8000C0F80031C8
:100AB00070BD02F01F008340500906EB8000C0F8B3
:100AC000803170BD0CED00E000E400E0014800F072
:100AD00093BD0000D8000020094810B5807A48B1C5
:100AE0000848016821F00601016000F071F904482E
:100AF00001F023FABDE810404FF48020FFF7A8BDB5
:100B0000D800002010ED00E07047000070B572B60C
:100B10000023584D3A22D0212846FFF7B1FE002885
:100B20007DD0554C002100BF01EB410004EB80005B
:100B3000491C90ED010AC9B280ED000A90ED020A4D
:100B4000062980ED010AEFD34B4A002112F1480239
:100B500001EB410002EB8000491C90ED010AC9B293
:100B600080ED000A90ED020A032980ED010AEFD31F
:100B70004149D02278312846FFF7D0FE3E48DFEDCC
:100B80003F0A7830B0F9001000EE101AB8EEC01A23
:100B900081EE200A84ED020AB0F9021001EE101A6B
:100BA000B8EEC11AC1EE201AC4ED051AB0F904104E
:100BB00001EE101AB8EEC11AC1EE201AC4ED081ADF
:100BC000B0F9061000EE901AB8EEE01ADFED2C0A2C
:100BD00081EE202A84ED0B2AB0F9081001EE101ADC
:100BE000B8EEC11A81EE202A84ED0E2AB0F90A006F
:100BF00001EE100A2048B8EEC11A6C3081EE202AAE
:100C0000F1EE000A84ED112A94ED091A94ED0A2AF6
:100C1000D0ED002A02EE201A31EE002A00E021E099
:100C20009FED181A04F1300142EE012AC0ED002AAE
:100C300091EC022A02EEA02A32EE000A90ED012A7F
:100C400000EE012A80ED012A94ED0F0A94ED102A9E
:100C500002EE200AD0ED020A30EE210A40EE010A2F
:100C6000C0ED020A62B60121BDE87040064800F0FE
:100C7000F6B90000005400405400002000FEFF457B
:100C8000681103436F12033A00080040044A002928
:100C9000116801D0014300E08143116070470000FA
:100CA00030380240044A0029116801D0014300E0B5
:100CB00081431160704700004438024070470000D3
:100CC0000CB500222E4901920092086840F4803051
:100CD00008604FF4A063086800F4003000900198A9
:100CE000401C0190009810B901989842F3D108680F
:100CF0008303244841D501220092224A38321368E6
:100D000043F080531360204A136843F48043136018
:100D100002680260026842F400420260026842F423
:100D2000A0520260031F194A1A600A6842F08072DA
:100D30000A600A689201FCD5154B40F205621A6000
:100D4000026822F003020260026842F002020260BE
:100D50000268C2F38102022AFAD1026822F4000278
:100D60000260084A0B487C321060086840F08060DE
:100D7000086008680001FCD50CBD0092EDE700009A
:100D80000038024008380240007000400854400714
:100D9000003C0240003000500B4810B5007828B1EC
:100DA00000F0ECFB0146407838B903E0BDE81040A4
:100DB00000F08CBA8878002805D0BDE810400422E5
:100DC000024800F0FFBB10BD00000020D80000204A
:100DD0000F4810B5016841F0010101600C4A002183
:100DE0000832116002680B4B1A400260031D0A4A68
:100DF0001A60026822F48022026005480C3001600B
:100E0000FFF75EFF05494FF00060086010BD00006D
:100E100000380240FFFFF6FE1030002408ED00E02D
:100E20002DE9F041DFF8A4800221404600F02FF9BF
:100E3000B8B3274C4FF4FA6677102088254D401C34
:100E400080B220806188491C6180A188491CA180F2
:100E5000B04203D9A0F5FA6020800AE0B84201D977
:100E6000002103E0285CD22110FB01F1404600F094
:100E7000E7F96088B04203D9A0F5FA6060800AE023
:100E8000B84201D9002103E0285CD22110FB01F116
:100E9000404600F0D7F9A088B04203D9A0F5FA6027
:100EA000A0800DE0B84204D90021404600F0CAF904
:100EB00006E0285CD22110FB01F1404600F0C4F9A5
:100EC0004046BDE8F041022100F0C9B800000140F1
:100ED00008000020DA1F0008F0B501218BB0084699
:100EE000FFF7E0FE01211020FFF7D0FE4FF428505D
:100EF000059002208DF8180000248DF81A40012575
:100F00003B4F8DF81B5003268DF8196005A9384614
:100F1000FFF7A4FB012209213846FFF7F0FB01226D
:100F20000B213846FFF7EBFB01220D213846FFF776
:100F3000E6FBADF81C6045F208202E4E0890ADF897
:100F40002440ADF81E4007A9304600F081F970201A
:100F5000ADF800004FF47A700290ADF80250ADF891
:100F60000C406946304600F0A7F86946304600F06C
:100F7000D9F86946304600F01FF9012200213046B9
:100F800000F062F80821304600F0C6F80122042182
:100F9000304600F059F80821304600F003F90122EC
:100FA0000821304600F050F80821304600F042F9A0
:100FB0000121304600F056F80121304600F03AF8A1
:100FC0000121304600F058F801220221304600F09D
:100FD0006AF81B208DF828008DF829408DF82A40EA
:100FE0008DF82B500AA8FFF73FFD0BB0F0BD0000B5
:100FF000001002400000014010B50C4C01212046B9
:1010000000F045F858B100233A22D0210848FFF7F4
:1010100037FC002809D0BDE81040FFF777BD204617
:10102000BDE81040012100F01AB810BD00140040C6
:10103000005400400029018802D041F0800101E005
:1010400021F080010180704710B50123048C8B4092
:101050009C430484038C8A401343038410BDC9431A
:10106000018270470029018802D041F0010101E0AE
:1010700021F0010101807047002930F8441F02D09F
:1010800041F4004101E0C1F30E01018070470246C6
:101090000020138A92890B4202EA010202D0002A40
:1010A00000D001207047002A828901D00A4300E065
:1010B0008A4382817047000030B5028C22F0010221
:1010C0000284028C8388048B22F0020224F07305D0
:1010D0000C882C438D8915434A882A430C4DA8421D
:1010E00002D00C4DA8420DD122F00805CA8923F484
:1010F00040732A4322F004058A882A430D8A1D433F
:101100004B8A2B438380048389684163028430BD0A
:101110000000014000040140028B22F008020A4353
:101120000283704770B5028C22F010020284028C98
:101130008488038B0D8823F4E6464FF6FF7303EA99
:10114000052535438E8922F0200203EA0616164350
:101150004A8803EA02123243104EB04202D0104EC7
:10116000B04215D122F08006CA8924F4406403EA13
:101170000212324322F040068A8803EA0212324306
:101180000E8A03EA860626434C8A03EA8404344323
:101190008480058389688163028470BD00000140FA
:1011A00000040140028B4FF6FF7322F4006203EA51
:1011B000012111430183704770B5028C22F48072C3
:1011C0000284028C8488838B0D8823F073031D4373
:1011D00022F400738E894FF6FF7202EA06261E4340
:1011E0004B8802EA03233343104EB04202D0104E24
:1011F000B04215D123F40066CB8924F4405402EAAE
:101200000323334323F480668B8802EA03233343AA
:101210000E8A02EA061626434C8A02EA0414344374
:10122000848085838968C163038470BD00000140A8
:1012300000040140828B22F008020A438283704737
:101240004163704781637047C16370474162704773
:1012500030B50288164B174C98420DD0A0420BD0E7
:10126000B0F1804F08D0144DA84205D0134DA842CC
:1012700002D0134DA84203D122F070054A882A43B8
:10128000104DA84206D0104DA84203D022F440755C
:101290000A892A4302804A68C2620A880285984203
:1012A00001D0A04201D1897A01860121818230BD1D
:1012B000000001400004014000040040000800401C
:1012C000000C00400010004000140040034801687A
:1012D000002902D00168491E016070470400002007
:1012E00010B5D0F8E02552689047002010BD10B529
:1012F000134600240A462146FEF7AFFF204610BDE4
:1013000010B5134600240A462146FEF7E7FF2046A3
:1013100010BD10B50446087800060AD4C88840B14C
:1013200000212046FEF7BEFF2046BDE8104000F039
:10133000A1BC8021F5E770B505460024052085F89D
:1013400011012346224621462846FEF786FF2846FD
:1013500000F090FC204670BD10B5C0F83821022383
:10136000C0F8342180F81131134600240A46214682
:10137000FEF7B4FF204610BD70B5054600240420DA
:1013800085F811012346224621462846FEF7A6FF8E
:10139000284600F06FFC204670BD70B5054641B18F
:1013A000D5F8E005426982B395F8120103283BD0D5
:1013B0003CE095F8110105F58C74022836D1E169FD
:1013C000A06881420FD9081AE061E878012803D1AA
:1013D000D4E902100844E060A08BE16882B228469C
:1013E000FFF78EFF22E0216AB1FBF0F200FB121240
:1013F00062B981420AD3606A814207D20022114653
:101400002846FFF77DFF002060620FE0D5F8E00579
:10141000C16829B195F81201032801D128468847EF
:101420002846FFF788FF01E028469047002070BD5E
:1014300070B5054641B1D5F8E00582690AB395F863
:10144000120103282CD02DE095F8110105F55C74EC
:10145000032827D1E169A068814213D9081AE06105
:10146000E878012803D1D4E902100844E060E1697A
:10147000A068814200D2084682B22846E168FFF7A0
:1014800036FF0FE0D5F8E005016929B195F81201A2
:10149000032801D1284688472846FFF76DFF01E061
:1014A00028469047002070BD38B5044648880D4650
:1014B000010A04295CD2DFE801F05B021420D4F8B1
:1014C000E815A0780A68694690470146E8884028F0
:1014D00003D094F81201012837D10820ADF800009C
:1014E00037E0D4F8E015A0788A6A6946904701464B
:1014F00002204870C4F8EC1527E0C0B2062837D2A5
:10150000DFE800F003080D12171CD4F8E815A078E6
:101510004A6817E0D4F8E815A0788A6812E0D4F891
:10152000E815A078CA680DE0D4F8E815A0780A6933
:1015300008E0D4F8E815A0784A6903E0D4F8E81583
:10154000A0788A69694690470146BDF800000028E6
:101550000DD0E88800280AD0BDF80020904200D9BC
:101560001046ADF8000082B22046FFF7F5FE38BD08
:1015700029462046FFF7CDFE38BD000030B50F48A4
:1015800000210F4B4170817059694FF04044032294
:10159000A14200D942704FF08045A94202DD417856
:1015A000C91E4170196AA14200D98270A94202DDA8
:1015B0008178C91E8170014830BD00000E000020F6
:1015C0009C00002010B590F81231032B04D1134673
:1015D0000A468121FEF782FE002010BD10B5D0F82A
:1015E000E015096A8847002010BD10B5D0F8E01555
:1015F000496A8847002010BD2DE9F04704460025C0
:1016000000F069FC00287CD0204600F06DFC06004C
:1016100078D0300303D52046FEF7F0FE0546700370
:1016200003D52046FEF776FE0543B0074FF0000ACB
:1016300002D5E168022048614D4F4FF00109002EAC
:1016400017DAA07A30B1D4F80C01D4F80C1120F0DC
:10165000030008602069416821F001014160386899
:10166000816920468847E1684FF00040486145F0B5
:101670000105300520D53868416920468847206932
:101680008068E2684FF400615161A17A91B1C007AE
:1016900010D0D4F80C01016841F001010160D4F8C8
:1016A0000C01016841F0030101603248016841F01A
:1016B0000601016045F00105300708D53868C168AA
:1016C00020468847E1680820486145F00105F0069A
:1016D00003D52046FEF7EEFE0543F00403D5204671
:1016E000FEF726FF0543B0041DD5204600F048FA5A
:1016F000E068D0F80C80204600F0DAFB03282DD0FB
:1017000001E028E028E084F80290402128F470509D
:10171000A18000F5A050E168C860E1684FF4005076
:10172000486145F00105F00209D53868C1692046D5
:101730008847E1684FF48010486145F00105B00228
:1017400009D53868016A20468847E1684FF40010DF
:10175000486145F001052846BDE8F08784F802A0FD
:101760004FF4007128F47050A18000F51050D2E7BA
:101770004000002010ED00E090F8C8250A7090F8B5
:10178000C9254A7090F8CA2590F8CB3502EB0322A0
:101790004A8090F8CC2590F8CD3502EB03228A8060
:1017A00090F8CE2590F8CF3502EB032292B2CA8092
:1017B0000121C0F83C2180F81111704710B50023B9
:1017C000044640221946FEF72AFD002340228021CC
:1017D0002046FEF724FD012084F81201D4F8E41518
:1017E000A07849688847002010BD10B50446D0F89D
:1017F000E40500698047032084F81201002010BD31
:1018000010B5D0F8E015C96901B18847002010BDB6
:1018100010B50446D0F8E005026820469047D4F899
:10182000E40580688047002010BD000070B50A46BE
:101830001A4D897804462970012905D894F81201B7
:10184000022807D003280CD02046BDE8704011467E
:10185000FFF75FBDA1B184F81011032084F81201D5
:101860000BE091B194F81001884209D0014620465E
:10187000FFF736FD297884F810112046FFF7C8FFDE
:101880002046BDE87040FFF777BD022084F81201C2
:1018900084F810112046FFF723FDF1E744000020F3
:1018A00010B50446488801280FD002282FD1888817
:1018B00010F0FF0F2BD122695168000A062820D2B0
:1018C000DFE800F01F0C1014181C0120C4F81401EC
:1018D000D4F8E00582682046904713E021F07001BB
:1018E00010310EE021F0700120310AE021F070018A
:1018F000303106E021F07001403102E021F070014A
:10190000503151602046BDE81040FFF735BD10BD95
:101910001CB504466946FFF72FFF9DF8001011F033
:101920001F000AD001280DD0022810D001F080013C
:101930002046FEF7B7FC00201CBD6946204600F09B
:101940000BF8F8E76946204600F0EAF8F3E7694645
:10195000204600F07BF8EEE72DE9F0414A780026BA
:1019600001250A2A42D2DFE802F03B5641534108E2
:1019700005412A27FFF798FD62E004468888C8B928
:10198000C888B8B9887800F07F0794F81201032856
:1019900010D084F8137139462046FEF77BFC2046B0
:1019A000FFF7EAFC1FB1022084F8120148E084F836
:1019B000125145E0204619E0FFF738FF40E0CA88A1
:1019C000012A13D190F81221022A02D0032A0DD144
:1019D00002E001221C4918E0012200F5887114E0A0
:1019E00090F81221022A04D0032A02D0FFF791FCBA
:1019F00026E01549D0F81421083912B10322CA6033
:101A000000E0CD6010490122091DFFF7A5FC17E099
:101A1000FFF746FF14E0044690F81201022801D0B7
:101A20000328C7D1488801280AD10020C4F814012E
:101A3000D4F8E0058268204690472046FFF79CFCDA
:101A40003046BDE8F08100004C00002070B50D4626
:101A5000044609796878002658B3012816D003286F
:101A600031D194F8120102282FD0032827D1688899
:101A700028B921B1802902D02046FEF713FCD4F802
:101A8000E00529468268204690470EE094F812014E
:101A900002281AD0032812D16888A0B929B1802958
:101AA00003D02046FEF79FFBE9E72046FFF764FCE2
:101AB00009E094F81201022807D003280DD0294626
:101AC0002046FFF726FC304670BD0029FBD0802958
:101AD000F9D02046FEF7E6FBF5E710480D064FF07B
:101AE00000034FF0010208D501F07F0101EB8101F5
:101AF00004EBC10191F81A1105E001EB810104EB3F
:101B0000C10191F8721309B1426000E043600349DA
:101B10000222091D2046FFF71FFCD4E744000020E5
:101B200070B5054690F8120100260C4603280DD129
:101B3000207901280AD8D5F8E00582682846904720
:101B4000E08830B92846FFF717FC02E02846FFF787
:101B5000E0FB304670BD10B5042180F81211D0F8BA
:101B6000E405C0688047002010BDC0EB00100021D4
:101B7000C0000722B0FBF2F0491C8142FCD970473B
:101B800010B5016900238C6882691168C4F34104AF
:101B90002CB1012C03D0022C04D0032C05D16FF3FF
:101BA0000A0102E06FF30A01C91C11600069416873
:101BB00041F480714160184610BD0000F0B54A78CC
:101BC00000254C69012A15D00A7800EB82035A6D72
:101BD00016681269DCB38C68C1F8144064F306021D
:101BE0005B6D22F4C01202F500221A61C278012A4C
:101BF00030D035E083691F681A6934B18E68B44209
:101C000006D966F306024E6104E022F07F0201E08D
:101C100064F3060222F4C01202F500221A61C278AF
:101C2000012A05D10C780A6900EB8404A469626179
:101C300047F004421A60C278CAB94A69BAB10A7850
:101C4000006901219140426B0A4342630FE0FFE7C4
:101C50000C7AC3E70B780A6900EB83035B6D5A616A
:101C6000097846F0044200EB8100406D026028468E
:101C7000F0BD0000426D07491161C178012908D10A
:101C8000426D00F5B9615161406D01684FF08021EE
:101C900001607047180008C0F0B50E7800254F7835
:101CA0000122B2402B4600EB8604012F19D0646D4F
:101CB00062F31F43226816040DD40E8966F30A02EC
:101CC000CE78897966F3934261F3995242F080515C
:101CD00041F4004121600069C1691943C16128468E
:101CE000F0BDA46962F30F03E4E710B502464C7837
:101CF0000B78002002EB8302012C09D0526D13688F
:101D0000C97823F40013032904D0022902D003E088
:101D10009269F4E743F08053136010BD02464B789C
:101D20000978002002EB8101012B05D0496D0A687A
:101D300042F400120A6070478A691168002901DACA
:101D400041F0804141F4001111607047F0B54B78CB
:101D50000A78002401264F6900EB8202012B15D07E
:101D6000556D2B682A69002F62D08E6837447F1E1C
:101D7000B7FBF6F767F3DC42C2F3C947774367F373
:101D800012022A61C278012A58D05DE095692B6859
:101D90002A696FB1D1F808C067F3120267447F1E49
:101DA000B7FBFCF767F3DC42CF78012F05D008E0E2
:101DB0006FF3120266F3DC4203E022F0C04202F14C
:101DC00000522A61C278012A0ED0CA78012A12D0A4
:101DD0004A69C2B10A7896400269556B354355632A
:101DE000CA78012A07D00EE00D780A6900EB850554
:101DF000AD696A61F4E702699268C2F30D22D20705
:101E00000CD043F0805343F004420B7800EB830383
:101E10009B691A60CA78012A03D026E043F0005378
:101E2000F1E78A8A93B20A78C96800F095F81CE055
:101E30008F6867F3120266F3DC42A2E70D780A6945
:101E400000EB85056D6D6A61CA78012A06D14A7971
:101E500012B143F0005301E043F08053097843F09E
:101E6000044200EB8100406D02602046F0BD00009E
:101E700038B5002422460094009B43F020030093D1
:101E8000009B61F38A1300930099C36819610749A5
:101E9000C06803690093521C8A4202D8009B9B06CB
:101EA000F7D40320FFF761FE204638BD400D030044
:101EB0000146002009698968C1F3410139B101294E
:101EC00003D0022905D0032900D102207047032046
:101ED000704701207047C068406910F0010F01D0C1
:101EE0000020704701207047C06841698069084040
:101EF000704700698169C069084080B27047006915
:101F00008169C0690840000C704700EB8101496D90
:101F100089680069406908407047034610B5002091
:101F2000D21C9208D3F8D03003E01C6841F8044B6F
:101F3000401C9042F9D3084610BD817A00290AD08E
:101F400001698968C90706D0D0F80C11D0F80C01D6
:101F500021F003010160704730B5C47800256CB9E9
:101F600000EB82000024DB1C9B08D0F8D00003E0CB
:101F700051F8042B0260641C9C42F9D3284630BD02
:101F8000FEE702E008C8121F08C1002AFAD1704714
:101F90007047002001E001C1121F002AFBD17047E9
:101FA000FEF716FFFEF798FFFEE7000000000000B6
:101FB000000001000100010001000000010000001C
:101FC000010001000000010001000100000000000C
:101FD00001000100000000000000000101010202F8
:101FE00002030303030404040505050606060707A8
:101FF00007080808080909090A0A0A0B0B0B0C0C48
:102000000C0D0D0D0D0E0E0E0F0F0F1010101111E7
:102010001112121212131313141414151515161687
:102020001616171717181818191919191A1A1A1B2A
:102030001B1B1C1C1C1D1D1D1D1E1E1E1F1F1F1FCC
:102040002020202121212222222223232324242470
:102050002525252526262627272727282828292914
:1020600029292A2A2A2B2B2B2B2C2C2C2D2D2D2DBC
:102070002E2E2E2F2F2F2F30303030313131323263
:10208000323233333333343434353535353636360E
:102090003637373737383838383939393A3A3A3ABB
:1020A0003B3B3B3B3C3C3C3C3D3D3D3D3E3E3E3E68
:1020B0003F3F3F3F4040404040414141414242421A
:1020C00042434343434444444444454545454646CE
:1020D0004646464747474748484848484949494986
:1020E0004A4A4A4A4A4B4B4B4B4B4C4C4C4C4C4D3E
:1020F0004D4D4D4D4E4E4E4E4E4F4F4F4F4F5050FB
:1021000050505051515151515152525252525353B9
:10211000535353535454545454545555555555557D
:102120005656565656565757575757575758585842
:10213000585858595959595959595A5A5A5A5A5A0C
:102140005A5A5B5B5B5B5B5B5B5C5C5C5C5C5C5CDA
:102150005C5D5D5D5D5D5D5D5D5D5E5E5E5E5E5EAA
:102160005E5E5E5F5F5F5F5F5F5F5F5F5F5F606080
:102170006060606060606060606161616161616158
:102180006161616161616262626262626262626235
:102190006262626262626363636363636363636315
:1021A00063636363636363636363636363636464FD
:1021B00064646464646464646464646464646464DF
:1021C00064646464646464646464646464646464CF
:1021D00064646464646464646464646464646464BF
:1021E00064646464646464646464646464636363B2
:1021F00063636363636363636363636363636363AF
:1022000063636363636262626262626262626262A9
:1022100062626262626161616161616161616161A9
:10222000616160606060606060606060605F5F5FAF
:102230005F5F5F5F5F5F5F5F5E5E5E5E5E5E5E5EB6
:102240005E5D5D5D5D5D5D5D5D5D5C5C5C5C5C5CC3
:102250005C5C5B5B5B5B5B5B5B5A5A5A5A5A5A5AD3
:102260005A595959595959595858585858585757E7
:1022700057575757575656565656565555555555FE
:102280005554545454545453535353535352525219
:10229000525251515151515150505050504F4F4F37
:1022A0004F4F4E4E4E4E4E4D4D4D4D4D4C4C4C4C59
:1022B0004C4B4B4B4B4B4A4A4A4A4A49494949487D
:1022C00048484848474747474646464646454545A5
:1022D00045444444444443434343424242424141CF
:1022E000414140404040403F3F3F3F3E3E3E3E3DFB
:1022F0003D3D3D3C3C3C3C3B3B3B3B3A3A3A3A392A
:10230000393938383838373737373636363635355D
:102310003535343434333333333232323231313190
:10232000303030302F2F2F2F2E2E2E2D2D2D2D2CC7
:102330002C2C2B2B2B2B2A2A2A29292929282828FF
:102340002727272726262625252525242424232339
:1023500023222222222121212020201F1F1F1F1E75
:102360001E1E1D1D1D1D1C1C1C1B1B1B1A1A1A19B1
:1023700019191918181817171716161616151515EE
:10238000141414131313121212121111111010102D
:102390000F0F0F0E0E0E0D0D0D0D0C0C0C0B0B0B6D
:1023A0000A0A0A09090908080808070707060606AD
:1023B00005050504040403030303020202010101ED
:1023C00000000000E423000800000020540000008A
:1023D000821F00083824000854000020740A0000FE
:1023E000921F0008000000000000000000009B0297
:1023F0003505000000000000311400089B130008A0
:102400001119000801180008BD170008571B000823
:10241000EB170008DD150008EB15000800000000B0
:102420000000000014000020000000000000000078
:082430000000000000000000A4
:040000050800018965
:00000001FF
