:020000040800F2
:10000000B00400209D0100081B0A00081903000825
:10001000190A000811020008451500080000000038
:10002000000000000000000000000000110C0008AB
:100030001302000800000000850A0008C90C00082F
:10004000B7010008B7010008B7010008B7010008B0
:10005000B7010008B701000815020008B701000841
:10006000B7010008B7010008B7010008B701000890
:10007000B7010008B7010008B7010008B701000880
:10008000B7010008B7010008B7010008B701000870
:10009000B7010008B7010008B7010008B701000860
:1000A000B7010008E90E0008B7010008B701000811
:1000B000F1100008B7010008B7010008B7010008F7
:1000C000B7010008B7010008B7010008B701000830
:1000D000B7010008B7010008B7010008B701000820
:1000E000B7010008B7010008830A0008B70100083B
:1000F000B7010008B7010008B7010008B701000800
:10010000B7010008B7010008B7010008B7010008EF
:10011000B7010008B7010008B701000899110008ED
:10012000B7010008B7010008B7010008B7010008CF
:10013000B7010008B7010008B7010008B7010008BF
:10014000B7010008B7010008B7010008810A0008DC
:10015000B7010008B7010008B7010008B70100089F
:10016000B7010008B7010008B7010008B70100088F
:10017000B7010008B7010008B7010008B70100087F
:10018000B7010008B7010008DFF80CD000F02EF826
:1001900000480047F9160008B004002006488047D0
:1001A00006480047FEE7FEE7FEE7FEE7FEE7FEE75C
:1001B000FEE7FEE7FEE7FEE7150D000889010008EF
:1001C00030B50B46014600202022012409E021FA27
:1001D00002F59D4205D303FA02F5491B04FA02F524
:1001E0002844151EA2F10102F1DC30BD064C074D7A
:1001F00006E0E06840F0010394E8070098471034F7
:10020000AC42F6D3FFF7C4FF601F0008801F000850
:10021000FEE77047704708B58DF800008DF80110B3
:100220008DF8021001208DF80300684600F0F6FBFF
:1002300008BD0000014801F087F9FEE74C170008EF
:10024000F0B50023012403270D6804FA03F21540DA
:10025000954242D1D0F800C05E0007FA06F52CEABC
:10026000050CC0F800C091F804C0D0F800E00CFA0A
:1002700006FC4CEA0E0CC0F800C091F804C0BCF1BA
:10028000010F02D0BCF1020F1FD1D0F808C02CEA38
:10029000050CC0F808C091F805C0D0F808E00CFAC9
:1002A00006FC4CEA0E0CC0F808C0D0F804C02CEADA
:1002B000020CC0F804C0426891F806C00CFA03FCB6
:1002C0001FFA8CFC42EA0C024260C268AA43C26078
:1002D000CA79C568B2402A43C2605B1C102BB3D3F5
:1002E000F0BD4B07DB0E9A40C90810B500EB81004A
:1002F000016A0F249C40A1430162016A114301621B
:1003000010BD0246002012690A4200D00120704749
:100310004183704701837047FEE70029018802D0BE
:1003200041F4806101E021F4806101807047024660
:100330000020938A128B43EA024323F07F429143C9
:1003400000D1012070470029018802D041F001014D
:1003500001E021F00101018070470029018802D0ED
:1003600041F4807101E021F480710180704700291F
:10037000018802D041F4007101E021F40071018094
:1003800070470CB50246002000920A0F21F07F4111
:10039000019202D0009A143202E0009A090C18323D
:1003A000009212680A4200D001200CBD7FB50446BD
:1003B00080880D4620F03F06684600F0E1FB2649A4
:1003C0000298B0FBF1F189B20E43A680228822F098
:1003D00001022280214B2A689A421BD85200B0FBAE
:1003E000F2F080B2042800D20420491C2184A083AA
:1003F000208840F00100208021884FF6F530014030
:10040000A8886A89104308432080A889298908435D
:1004100020817FBDEB88A3F53F46FF3E05D102EB6F
:100420004202B0FBF2F080B208E002EBC20303EB41
:100430000212B0FBF2F080B240F48040020501D11C
:1004400040F001004FF4967251434FF47A72B1FBC1
:10045000F2F140F40040C8E740420F00A0860100DE
:10046000008AC0B2704712B141F0010101E001F011
:10047000FE010182704701827047000010B5134CE5
:10048000014600230822204600F024F808B1FFF7B7
:10049000D1FE00233A22D021204600F085F9002821
:1004A00013D0D0220A49204600F0CCF90848A0F128
:1004B0000C0102880A8042884A8082888A80C28829
:1004C000CA8002890A814089488110BD00540040D9
:1004D000A40000202DE9FF5F8B469A469146054611
:1004E0000021FFF730FF01212846FFF72CFF5E4C6B
:1004F00002205F4E20710120A071E0710320607125
:100500005A4885420DD10121480500F021FB012107
:10051000022000F011FB4FF440702060214630466D
:1005200028E0544885427DD05348854224D101219A
:10053000C80500F00DFB0121084600F0FDFA01217D
:10054000042000F0F9FA4D4F042208213846FFF745
:10055000C8FEDFF82C81042209214046FFF7C1FEC6
:10056000A815206040493846FFF76AFE68152060EC
:100570003D494046FFF764FE424800904FF48040FA
:10058000ADF80C000020ADF80800ADF80400ADF89F
:100590000A004BF6FF70ADF8060069462846FFF7E3
:1005A00005FF042208213046FFF79BFE04220921A3
:1005B0003046FFF796FE012300225946284600F0F8
:1005C00067F918B1012004B0BDE8F09F284600F09B
:1005D000B5F92DA000F0B8FF002375225946284632
:1005E00000F0E2F8682801D00220ECE731A000F02A
:1005F000ABFF01236B225946284600F0C7F988B9A2
:1006000000231C225946284600F0CEF800F0E701EE
:1006100041EAC900C3B21C225946284600F0B6F987
:10062000002300E01DE01B225946284600F0BCF8DC
:1006300000F0E70141EACA00C3B21B22594628462E
:1006400000F0A4F905231A225946284600F09EF925
:1006500038B940236A225946284600F097F9002805
:10066000B1D00320AFE700003C0000200054004060
:100670000004024000580040005C004000000240BE
:1006800000080240801A06004465766963652069A7
:100690007320436F6E6E65637465642C20526561D0
:1006A00064696E6720416464726573732E2E2E2018
:1006B0000A000000416464726573732069732063EB
:1006C0006F72726563742C20436F6E666967757212
:1006D000696E67204465766963652E2E2E200A00B8
:1006E0002DE9F05F9946904644F620658A46834698
:1006F0002C46012300220A9F00F0CAF8284E02E08F
:10070000641E24B29CB331465846FFF73AFE08B93E
:10071000002CF5D141465846FFF7ADFE584600F093
:100720000DF901231A465146584600F0B1F801214F
:100730005846FFF7F2FD0024DFF868802CE0781EB1
:1007400084422E461AD100215846FFF7E6FD0121CA
:100750005846FFF70CFE02E0761E36B23EB1414627
:100760005846FFF7E4FD80B9002EF5D10DE002E018
:10077000761E36B216B90120BDE8F09F41465846B4
:10078000FFF7D5FD08B9002EF2D15846FFF768FEF5
:1007900009F80400641CE4B2BC42D0D30020EBE7AB
:1007A00080000010400003002DE9F0471E469046EF
:1007B00044F620650023894682462C461A4600F0FE
:1007C00067F81E4F02E0641E24B264B339465046F7
:1007D000FFF7D7FD08B9002CF5D141465046FFF789
:1007E0004AFE504600F0AAF800230122494650462E
:1007F00000F04EF826B101215046FFF78EFD07E0CC
:1008000000215046FFF789FD01215046FFF7AFFD5B
:100810000B4C02E06D1E2DB22DB121465046FFF764
:1008200086FD18B104E00120BDE8F087002DF1D16C
:100830005046BDE8F047FFF713BE000080000010EF
:100840004000030030B585B00C4615460E210091DE
:1008500001AB3B222946FFF743FFBDF8040040BA35
:100860002080BDF8060040BA6080BDF8080040BA9C
:10087000A080BDF80C0040BAE080BDF80E0040BA80
:100880002081BDF8100040BA608105B0002030BD65
:100890002DE9F04744F620651F46164689468246F4
:1008A0002C464FF4003841465046FFF76AFD0028B9
:1008B000F9D101215046FFF750FDDFF8748002E0C6
:1008C000641E24B26CB341465046FFF730FD08B9B0
:1008D000002CF5D11FB101211648FFF71EFD32464D
:1008E00049465046FFF7BFFD16B1012E0DD01DE061
:1008F000114C02E06D1E2DB29DB121465046FFF70E
:1009000016FD98B9002DF5D110E0094C641C02E0E9
:100910006D1E2DB22DB121465046FFF708FD18B1CE
:1009200004E00120BDE8F087002DF1D10020F9E7B7
:100930000100030000540040820007002DE9F0414F
:10094000074644F620640121FFF711FD0E4E0E4DBF
:100950007C3E02E0641E24B254B129463846FFF7BB
:1009600010FD40B131463846FFF70BFD18B104E0E9
:100970000120BDE8F081002CECD101213846FFF7C1
:10098000F6FC0020F5E70000800000102DE9F0479C
:100990009846174644F62065002381462C461A46A1
:1009A000FFF776FF1A4E02E0641E24B2DCB1314636
:1009B0004846FFF7E6FC08B9002CF5D13946484611
:1009C000FFF759FD134C48462146FFF7B0FC0028BD
:1009D000F9D002E06D1E2DB22DB131464846FFF729
:1009E000D0FC18B104E00120BDE8F087002DF1D162
:1009F00041464846FFF73FFD21464846FFF797FC32
:100A00000028F9D04846FFF799FF0020ECE70000E6
:100A10008000001084000700FEE7704770B50F21CA
:100A2000C478027801234FF0E026E4B1124C246828
:100A300004F4E064C4F5E064C4F30724C4F10405DD
:100A4000E1404478AC4085780D4025430B4C2901AA
:100A50001155007800F01F018B40400906EB800023
:100A6000C0F8003170BD02F01F008340500906EB52
:100A70008000C0F8803170BD0CED00E000E400E0C3
:100A8000704770477047000070B572B60023264D5E
:100A90003A22D0212846FFF787FEE8B3234C0021F5
:100AA00001EB410004EB8002491C92ED010AC9B23E
:100AB00082ED000A92ED020A062982ED010AEFD3C7
:100AC0001A49D02260312846FFF7BCFE1748603033
:100AD000B0F90A0000F5FA71B1F5167F09D900EEF8
:100AE000100ADFED130AB8EEC00A80EE201A84ED7A
:100AF000111A04F13C00B1EE001A90EC020A0B4806
:100B0000483000EE810AD4ED080A9FED0A1A30EE53
:100B1000200AD0ED020A00E003E040EE010AC0ED39
:100B2000020A62B670BD000000540040440000207C
:100B3000681103436F12033A044A0029116801D077
:100B4000014300E0814311607047000030380240EB
:100B5000044A0029116801D0014300E0814311607B
:100B60007047000040380240044A0029116801D053
:100B7000014300E0814311607047000044380240A7
:100B800070B5204A1168204C11F00C0104D0661099
:100B9000042903D0082903D004601BE0066019E093
:100BA0001849091F0B68C3F380550B6803F03F0316
:100BB00015B1B6FBF3F301E0B4FBF3F30C6809687D
:100BC000C4F388146343C1F30141491C4900B3FBDA
:100BD000F1F1016011680F2303EA11110B4B5C5C0A
:100BE0000168E14041601468072505EA94241C5D12
:100BF00021FA04F48460126805EA52329A5CD1400A
:100C0000C16070BD083802400024F4002C000020B0
:100C1000704700000CB500202749019000900A6839
:100C200042F480320A604FF4A0430A6802F40032B2
:100C30000092019A521C0192009A12B9019A9A42AA
:100C4000F3D10A68920334D5012000901A4840304D
:100C5000026842F0805202601848026842F4404242
:100C600002601548083002680260026842F40042DF
:100C70000260026842F4A0520260031F104A1A6028
:100C80000A6842F080720A600A689201FCD50D4A37
:100C900040F205711160016821F0030101600168F3
:100CA00041F0020101600168C1F381010229FAD11A
:100CB0000CBD00900CBD00000038024000700040E8
:100CC00008544007003C024010B5FFF7DDFE074C1A
:100CD00007A0218800F038FC618808A000F034FCEF
:100CE000A188BDE8104008A000F02EBC0400002040
:100CF0005031203D20256420000000005032203D6E
:100D000020256420000000005033203D2025642071
:100D10000A000000124810B5016841F4700101603A
:100D20001048016841F0010101600E4A00210832BB
:100D3000116002680C4B1A400260031D0B4A1A60D6
:100D4000026822F48022026006480C300160FFF73E
:100D500061FF03494FF000608039086010BD00005A
:100D600088ED00E000380240FFFFF6FE103000245E
:100D700070B5048C24F001040484058B048C4FF6B8
:100D8000FF7606EA0313134325F0F3052B4324F003
:100D90000A020A4342F001010383018470BDF0B5E9
:100DA000048C24F010040484078B068C4FF6FF7427
:100DB00004EA011527F4734704EA0331394304EACE
:100DC00002220A4326F0A001294341F010010283C8
:100DD0000184F0BD2DE9F04101218AB00846FFF7FA
:100DE000C3FE01211020FFF7A7FE02258DF8185041
:100DF00000244FF428508DF81A400126DFF8E080D7
:100E000005908DF81B6003278DF8197005A94046E1
:100E1000FFF716FA012209214046FFF762FA012284
:100E20000B214046FFF75DFA01220D214046FFF7F6
:100E300058FAADF81C70ADF82440ADF81E4045F2EC
:100E40000820284C089007A9204600F03DFB7020A0
:100E5000ADF800004FF47A700290ADF80260ADF882
:100E60000C506946204600F03DFA6946204600F0E5
:100E70006FFA6946204600F0B5FA012200212046AB
:100E800000F0A2F90821204600F05CFA01220421BA
:100E9000204600F099F90821204600F099FA012235
:100EA0000821204600F090F90821204600F0D8FAE9
:100EB0000121204600F096F90121204600F07AF940
:100EC0000121204600F098F901221146204600F049
:100ED00000FA00211920FFF79EF90AB0BDE8F08161
:100EE000001002400000014070B53D4D0121284630
:100EF00000F08DF900286CD03A483B4C90ED020A86
:100F00004FF47A70B5EEC00AF1EE10FA04DDE16834
:100F1000002901DD002108E0B5EEC00AF1EE10FA6B
:100F20000BD2E168012908DA0121C4E90201A08895
:100F300020616188A18060803CE0A068012839DAE6
:100F400020882A4E401D80B220806188491D618022
:100F5000A188491DA180305C00EBC00101EB0011AC
:100F6000284600F083FA6088305C00EBC00101EB9A
:100F70000011284600F07CFAA088305C00EBC0012C
:100F800001EB0011284600F075FA20884FF4FA6151
:100F9000884202D9A0F5FA6020806088884202D990
:100FA000A0F5FA606080A088884212D9A0F5FA60A6
:100FB000A0800EE0A0680021401EA060284600F03E
:100FC00055FA0021284600F053FA0021284600F087
:100FD00051FA2846BDE87040012100F000B9000038
:100FE000000001408C000020040000209017000841
:100FF00070B5012188B00846FFF79EFD012104204D
:10100000FFF79AFD01210846FFF7A2FD01258DF8A3
:10101000045013208DF80750002400908DF80640EE
:1010200003268DF8056069462F48FFF709F90E2061
:10103000009002208DF804008DF807508DF80640CE
:101040008DF80560294E69463046FFF7F9F8012210
:1010500011463046FFF745F9012202213046FFF7DD
:1010600040F9012203213046FFF73BF95320ADF848
:1010700014004EF660200690AE07ADF81640ADF8AD
:101080001C4005A9304600F01FFA0420ADF8080006
:101090000F20ADF810000A20ADF80A00ADF80E40A0
:1010A000ADF80C5002A9304600F0BDF80820ADF8AC
:1010B000080002A9304600F0B6F80C20ADF8080090
:1010C00002A9304600F0AFF800211C20FFF7A3F87A
:1010D00001221C21304600F0FCF80121304600F0CE
:1010E00081F808B070BD0000000802400000024016
:1010F0002DE9F0414FF080451C21284600F087F88B
:1011000078B3224E02213046FFF7FBF88400042119
:101110003046FFF7F6F804EB400408213046FFF7AD
:10112000F0F82044C1B2092900D90021184C01EB84
:101130004106184F34F816004FF0010100283846D8
:1011400002D0FFF7E7F801E0FFF7E2F804EB46040E
:101150004FF0020160880028384603D0FFF7DAF824
:1011600002E00CE0FFF7D4F8A0884FF0100100284F
:10117000384602D0FFF7CEF801E0FFF7C9F828465D
:10118000BDE8F0411C2100F02AB800000000024038
:10119000601700080008024010B5054C01212046E8
:1011A00000F035F82046BDE81040012100F017B8E6
:1011B000001400400029018802D041F0800101E0C4
:1011C00021F080010180704710B50123048C8B4011
:1011D0009C430484038C8A401343038410BDC94399
:1011E000018270470029018802D041F0010101E02D
:1011F00021F0010101807047002930F8441F02D01E
:1012000041F4004101E0C1F30E0101807047024644
:101210000020138A92890B4202EA010202D0002ABE
:1012200000D0012070472DE9F0410D460E88498815
:10123000AA882B89044616B3042E28D0082E268CA3
:101240004FF6FF702BD026F480562684A78B268C71
:1012500000EA022200EA013127F473473A4300EA28
:101260000330104326F420420A4342F48051A08305
:101270002184E9882046BDE8F04100F019B9FFF764
:1012800077FDE9882046BDE8F04100F0F5B8FFF7AA
:1012900086FDE9882046BDE8F04100F0F5B826F467
:1012A00080762684A78B268C00EA012100EA0310B1
:1012B000104327F0F307384326F420620A4342F430
:1012C0008071A0832184E9882046BDE8F04100F0C8
:1012D000E7B8002A828901D00A4300E08A4382816C
:1012E0007047000030B5028C22F001020284028CAB
:1012F0008388048B22F0020224F073050C882C43AF
:101300008D8915434A882A430C4DA84202D00C4DC2
:10131000A8420DD122F00805CA8923F440732A435C
:1013200022F004058A882A430D8A1D434B8A2B43E9
:101330008380048389684163028430BD00000140DA
:1013400000040140028B22F008020A430283704726
:1013500070B5028C22F010020284028C8488038B08
:101360000D8823F4E6464FF6FF7303EA052535435F
:101370008E8922F0200203EA061616434A8803EA01
:1013800002123243104EB04202D0104EB04215D17C
:1013900022F08006CA8924F4406403EA0212324330
:1013A00022F040068A8803EA021232430E8A03EAD8
:1013B000860626434C8A03EA8404344384800583EA
:1013C00089688163028470BD00000140000401400F
:1013D000028B4FF6FF7322F4006203EA01211143EE
:1013E0000183704770B5028C22F480720284028CF3
:1013F0008488838B0D8823F073031D4322F40073CC
:101400008E894FF6FF7202EA06261E434B8802EAD7
:1014100003233343104EB04202D0104EB04215D1D8
:1014200023F40066CB8924F4405402EA03233343B7
:1014300023F480668B8802EA032333430E8A02EA90
:10144000061626434C8A02EA0414344384808583BA
:101450008968C163038470BD00000140000401403D
:10146000828B22F008020A438283704741637047EF
:1014700081637047C1637047028B22F00C020283C4
:10148000028B0A4302837047028B22F4406202837C
:10149000028B4FF6FF7303EA01210A430283704770
:1014A000828B22F00C028283828B0A4382837047F4
:1014B000828B22F440628283828B4FF6FF7303EAB1
:1014C00001210A438283704730B50288164B174CBE
:1014D00098420DD0A0420BD0B0F1804F08D0144DEF
:1014E000A84205D0134DA84202D0134DA84203D103
:1014F00022F070054A882A43104DA84206D0104DAC
:10150000A84203D022F440750A892A4302804A681F
:10151000C2620A880285984201D0A04201D1897A2C
:1015200001860121818230BD00000140000401409C
:101530000004004000080040000C00400010004083
:1015400000140040FEE700000FB4054B10B503A9DE
:10155000044A029800F018F810BC5DF814FB000073
:10156000DD1600080000002002E008C8121F08C1B4
:10157000002AFAD170477047002001E001C1121F14
:10158000002AFBD1704700002DE9FF4F89B09B4630
:101590000446002597E0252833D10027641C4E49D6
:1015A000B84601222378203B02FA03F0084202D019
:1015B0000743641CF6E720782E2819D114F8010F90
:1015C00047F004072A280ED06FF02F022078A0F1F0
:1015D000300109290CD808EB880102EB410100EB2E
:1015E0000108641CF2E70A98641C50F8048B0A9006
:1015F000207800286BD0642808D0692806D0752888
:1016000020D05A460B9990476D1C5BE00A994FF029
:101610000A0901C90A91002804DAC0F100004FF05C
:101620002D0102E0390504D52B218DF82010012170
:1016300003E0F90704D02021F7E78A4608AE0EE060
:101640000021FAE70A994FF00A0901C90A91F7E760
:101650004946FEF7B5FD01F1300106F8011D0028ED
:10166000F6D1ADEB060000F12009780701D44FF068
:101670000108C84502DDA8EB090000E00020804613
:10168000002706E008A85A46C05D0B9990476D1CDC
:101690007F1C5745F6DB04E030205A460B999047F3
:1016A0006D1CB8F10001A8F10108F5DC05E016F8A1
:1016B000010B5A460B9990476D1CB9F10001A9F135
:1016C0000109F4DC641C207800287FF464AF0DB0BD
:1016D0002846BDE8F08F0000092801000549096887
:1016E000C90105D54FF060410A68002AFCD0087096
:1016F00070470000FCED00E00EA0FFF725FFD020B2
:10170000FEF7BCFE0F4832210068B0FBF1F0401E2E
:10171000B0F1807F09D24FF0E02148610A4AF02001
:1017200010700020886107200861FFF753FBFFF766
:101730005FFCFEE748656C6C6F20576F726C640A43
:10174000000000001800002023ED00E043726974DF
:101750006963616C204661696C757265200A0000DE
:101760000000000000000000010001000100010075
:101770000000010000000100010000000100010064
:101780000100000000000100010000000000000056
:10179000000101010202020303030304040405051E
:1017A00005060606070707080808080909090A0ABE
:1017B0000A0B0B0B0C0C0C0D0D0D0D0E0E0E0F0F5E
:1017C0000F101010111111121212121313131414FE
:1017D000141515151616161617171718181819199F
:1017E00019191A1A1A1B1B1B1C1C1C1D1D1D1D1E42
:1017F0001E1E1F1F1F1F20202021212122222222E6
:101800002323232424242525252526262627272788
:1018100027282828292929292A2A2A2B2B2B2B2C2F
:101820002C2C2D2D2D2D2E2E2E2F2F2F2F303030D6
:101830003031313132323232333333333434343580
:10184000353535363636363737373738383838392C
:1018500039393A3A3A3A3B3B3B3B3C3C3C3C3D3DD8
:101860003D3D3E3E3E3E3F3F3F3F40404040404189
:10187000414141424242424343434344444444443D
:1018800045454545464646464647474747484848F2
:101890004848494949494A4A4A4A4A4B4B4B4B4BAB
:1018A0004C4C4C4C4C4D4D4D4D4D4E4E4E4E4E4F66
:1018B0004F4F4F4F50505050505151515151515224
:1018C00052525252535353535353545454545454E6
:1018D00055555555555556565656565657575757AA
:1018E0005757575858585858585959595959595974
:1018F0005A5A5A5A5A5A5A5A5B5B5B5B5B5B5B5C3F
:101900005C5C5C5C5C5C5C5D5D5D5D5D5D5D5D5D0E
:101910005E5E5E5E5E5E5E5E5E5F5F5F5F5F5F5FE0
:101920005F5F5F5F606060606060606060606061BA
:101930006161616161616161616161616262626293
:101940006262626262626262626262626363636373
:101950006363636363636363636363636363636357
:10196000636363636464646464646464646464643B
:101970006464646464646464646464646464646427
:101980006464646464646464646464646464646417
:101990006464646464646464646464646464646407
:1019A0006464646363636363636363636363636304
:1019B00063636363636363636363636262626262FC
:1019C00062626262626262626262626161616161FC
:1019D00061616161616161616060606060606060FF
:1019E0006060605F5F5F5F5F5F5F5F5F5F5F5E5E06
:1019F0005E5E5E5E5E5E5E5D5D5D5D5D5D5D5D5D10
:101A00005C5C5C5C5C5C5C5C5B5B5B5B5B5B5B5A1F
:101A10005A5A5A5A5A5A5A59595959595959585831
:101A20005858585857575757575757565656565647
:101A30005655555555555554545454545453535361
:101A4000535353525252525251515151515150507D
:101A50005050504F4F4F4F4F4E4E4E4E4E4D4D4D9E
:101A60004D4D4C4C4C4C4C4B4B4B4B4B4A4A4A4AC1
:101A70004A494949494848484848474747474646E8
:101A80004646464545454544444444444343434310
:101A9000424242424141414140404040403F3F3F3D
:101AA0003F3E3E3E3E3D3D3D3D3C3C3C3C3B3B3B6A
:101AB0003B3A3A3A3A39393938383838373737379C
:101AC00036363636353535353434343333333332D0
:101AD000323232313131303030302F2F2F2F2E2E05
:101AE0002E2D2D2D2D2C2C2C2B2B2B2B2A2A2A293D
:101AF0002929292828282727272726262625252576
:101B000025242424232323222222222121212020B0
:101B1000201F1F1F1F1E1E1E1D1D1D1D1C1C1C1BEC
:101B20001B1B1A1A1A19191919181818171717162A
:101B30001616161515151414141313131212121267
:101B40001111111010100F0F0F0E0E0E0D0D0D0DA7
:101B50000C0C0C0B0B0B0A0A0A09090908080808E7
:101B60000707070606060505050404040303030327
:101B7000020202010101000000000000000000005C
:101B80000000000000000000000000000000000055
:101B90000000000000000000000000000000000045
:101BA0000000000000000000000000000000000035
:101BB0000000000000000000000000000000000025
:101F6000801F0008000000204400000068150008E1
:101F7000C41F0008440000206C040000781500080D
:101F80000000000000009B0235050000000000007A
:101F90000000000000000000007A030A00000000BA
:101FA0000000000001020304060708090000000009
:101FB00001020304010203040607080900000000EF
:041FC000000000001D
:040000050800018965
:00000001FF
