:020000040800F2
:10000000380C00209D010008DF0D0008950A00084B
:10001000DD0D0008410200081B3000080000000050
:100020000000000000000000000000004D12000869
:100030006907000800000000950E00085113000831
:10004000B7010008B7010008B7010008B7010008B0
:10005000B7010008B701000895080008B7010008BB
:10006000B7010008B7010008B7010008B701000890
:10007000B7010008B7010008B7010008B701000880
:10008000B7010008B7010008B7010008B701000870
:10009000B7010008B7010008B7010008B701000860
:1000A000B7010008B7010008B70100083D140008B7
:1000B000B7010008B7010008B7010008B701000840
:1000C000B7010008B7010008B7010008B701000830
:1000D000B7010008B7010008B7010008B701000820
:1000E000B7010008B7010008650E0008B701000855
:1000F000B7010008B7010008B7010008B701000800
:10010000B7010008B7010008B7010008B7010008EF
:10011000B7010008B7010008B7010008451700083B
:10012000B7010008B7010008B7010008B7010008CF
:10013000B7010008B7010008B7010008B7010008BF
:10014000B7010008B7010008B7010008590E000800
:10015000B7010008B7010008B7010008B70100089F
:10016000B7010008B7010008B7010008B70100088F
:10017000B7010008B7010008B7010008B70100087F
:10018000B7010008B7010008DFF80CD000F018F83C
:100190000048004789300008380C00200648804796
:1001A00006480047FEE7FEE7FEE7FEE7FEE7FEE75C
:1001B000FEE7FEE7FEE7FEE7891300088901000875
:1001C000064C074D06E0E06840F0010394E80700A4
:1001D00098471034AC42F6D3FFF7DAFF3C350008FD
:1001E0005C35000870B501EB020410F8015B15F0F6
:1001F000070301D110F8013B2A1106D110F8012B99
:1002000003E010F8016B01F8016B5B1EF9D12B07BD
:1002100005D40023521E0FD401F8013BFAE710F871
:10022000013B02F10202A1EB030303E013F8015BBF
:1002300001F8015B521EF9D5A142D6D3002070BD52
:10024000FEE70069416841F002014160032002F0CD
:1002500099BA10B50A460C0601F07F0303EB83013F
:1002600000EBC10102D501F58C7101E001F55C7173
:10027000D2090B704A7002F09DFC002010BD0A46A6
:1002800010B5090602F07F0306D503EB830100EBEE
:10029000C10101F58C7105E002EB820100EBC101A7
:1002A00001F55C7100248C700B70D2094A7002F069
:1002B00068FC002010BD10B50A0604D501F07F01CE
:1002C00002F082FD01E002F063FD002010BD70B578
:1002D0000C460E0601F07F0505EB850100EBC10120
:1002E00002D501F58C7101E001F55C71E4090D7036
:1002F0004C708A60CB7000D0CD80022B01D10022DF
:100300000A7102F015FC002070BD10B501F07F04E9
:1003100004EB840100EBC10101F55C714B61CA6023
:1003200000238B614B700C70C378012B00D10A61E4
:1003300014F0FF0F03D002F06FFC002010BD02F09C
:1003400089FBFAE70069002261F30A120168114390
:10035000016070470A4610B5090602F07F0306D512
:1003600003EB830100EBC10101F58C7105E002EBA9
:10037000820100EBC10101F55C7101248C700B70EE
:10038000D2094A7002F030FC002010BD70B511F0A7
:100390007F0404EB840100EBC10101F58C714FF087
:1003A00001054D700C70CA600A614FF00002C1E98E
:1003B000053203D002F030FC002070BD02F04AFB91
:1003C000FAE700002DE9F0410646002502F043FD62
:1003D000074663E0F8075FD03069E9B20369426B12
:1003E000CA4006EB810102F00102896943EAC212A8
:1003F0008C681440E1071AD00124426B04FA05F11D
:100400008A43426306EB8500806984602648E9B22E
:100410000068426830469047F078012807D135B926
:1004200096F81101042802D1304602F06FFB6007F4
:1004300004D506EB8500042480698460200704D578
:1004400006EB8500082480698460E00604D506EB8D
:100450008500102480698460A00604D506EB850021
:10046000202480698460600604D506EB8500402462
:1004700080698460A00704D506EB850002248069AA
:100480008460200608D52946304600F030F906EB96
:1004900085018020896988606D1C7F08002F99D1B3
:1004A0000120BDE8F0810000700100202DE9F0413D
:1004B0000646002502F0D5FC0746DFF8A4804AE096
:1004C000F80746D0E9B2304602F0D1FC0446C00736
:1004D00025D006EB85000124416D8C60F17801295F
:1004E0000CD1406D016905EB850006EBC000C1F33E
:1004F0001201D0F87823511AC0F88813D8F80000F8
:10050000E9B2026830469047F078012807D135B942
:1005100096F81101052802D1304602F0F7FAA0073B
:1005200004D506EB85000224406D8460600704D585
:1005300006EB85000424406D8460200709D5D8F8B7
:10054000000081683046884706EB85010820496D28
:1005500088606D1C7F08002FB2D10120BDE8F081BA
:100560007001002070B50646C068816921F0100155
:100570008161F068056A05F00F0000EB800006EB72
:10058000C004C5F3434004F55C74072821D2DFE8BA
:1005900000F0202004202020150047F6F0700542CE
:1005A00017D0C5F30A152A463046E16802F067FC09
:1005B000E0682844E060A069284409E0082206F5C4
:1005C000B961304602F05BFCA069C5F30A1108442A
:1005D000A061F068816941F010018161012070BD66
:1005E00070B50446006900250126416821F001012B
:1005F00041602946204602F0E7FB0021FF2006E08B
:1006000004EB810293699860526D9060491C627896
:100610008A42F5D821694FF0FF3088612846216968
:1006200066F30F0066F31F40C861216945F00F00B3
:100630004861216945F02F0008612069016821F4B3
:10064000FE610160204602F061FAE1684FF48050DB
:10065000486103480068016920468847012070BD51
:100660007001002070B5044602F01AFC012200233C
:1006700084F8122184F81331194640250EE000BF9A
:1006800001EB810004EBC00000F58C70427001703A
:10069000C180C370C0E90253491C4361607888423D
:1006A000EED800210EE000BF01EB810004EBC00298
:1006B00002F55C7253701170D180D370C2E902539D
:1006C000491C536160788842EED8204602F09CF9BC
:1006D000204602F067F80021204602F041FC204647
:1006E00002F0CEF82046BDE8704002F049BB2DE98B
:1006F000F0470D46064601EB850006EBC00404F505
:100700008C74D4E90501421AA068904200D20246D6
:10071000D21C970806EB850917E0A0EB0108A0683A
:10072000404500D2804608F1030087081FFA88F38D
:10073000EAB23046E16802F05CFCE16801EB0800D7
:10074000E060A16901EB0800A061D9F81800806998
:1007500080B2B84205D9D4E90501814201D200280E
:10076000DBD10120BDE8F0877047000001B50348E8
:100770000099416041680029FCD108BD14000020A7
:1007800086B0002601A800F083FC02984FF47A712D
:10079000B0FBF1F00025B0F1807F0BD220F07F415B
:1007A0004FF0E020491E4161334AF021117085610C
:1007B00007210161314C25706570012000F0B0FC0B
:1007C000002000F0ADFC022000F0AAFC032000F0A5
:1007D000A7FC012000F0C8FC002000F0C5FC0220AE
:1007E00000F0C2FC032000F0BFFC4FF4FA7718E0E1
:1007F000761CF6B2102E14D10026002000F0C0FCAA
:10080000012000F0BDFC022000F0BAFC032000F043
:10081000B7FC3846FFF7AAFF761CF6B2102EECD3D1
:10082000002660780028E3D0002000F0B7FC012803
:10083000FAD06570124802F0F1FB72B600F074FE57
:1008400000F0FEFE00F084F80E4800900E4B0F4AB8
:1008500001210F4801F0A6FB62B660780028FCD0A9
:10086000002000F09BFC0128FAD00948FFF7E9FCC2
:10087000074802F08AFB9EE723ED00E01400002009
:10088000D030000874000020A000002040000020AC
:10089000FC010020064910B50120087000218007E6
:1008A00001F0F4F8BDE81040012000F003B80000AA
:1008B000150000200149086070470000143C014009
:1008C00030B51A498379026853B30B6893430B60C0
:1008D0000A1D13680468A343136002790A4413686D
:1008E000046823431360114A083213680468A34361
:1008F0001360131D1C680568AC431C604479102C00
:1009000005D021440A68006802430A6030BD1168BE
:10091000046821431160196800680143196030BD03
:100920000079084401689143016030BD003C0140FA
:1009300008B58DF8000000208DF801008DF8021038
:1009400001208DF80300684600F04AFA08BD000057
:100950001CB50121022000F05FFB0121042000F002
:1009600073FB0121880300F087FBC0200090022068
:100970008DF804000120114C8DF8070069462046CF
:1009800000F020F802220621204600F06CF8022236
:100990000721204600F067F8094C00231A4603217E
:1009A000204600F00FFF4FF4FA61204601F06AF88C
:1009B0000121204600F0FCFE1CBD000000040240A6
:1009C00000080040F0B50023012403270D6804FA55
:1009D00003F21540954242D1D0F800C05E0007FAFC
:1009E00006F52CEA050CC0F800C091F804C0D0F858
:1009F00000E00CFA06FC4CEA0E0CC0F800C091F8BE
:100A000004C0BCF1010F02D0BCF1020F1FD1D0F81D
:100A100008C02CEA050CC0F808C091F805C0D0F851
:100A200008E00CFA06FC4CEA0E0CC0F808C0D0F83E
:100A300004C02CEA020CC0F804C0426891F806C059
:100A40000CFA03FC1FFA8CFC42EA0C024260C268FA
:100A5000AA43C260CA79C568B2402A43C2605B1C1F
:100A6000102BB3D3F0BD4B07DB0E9A40C90810B56D
:100A700000EB8100016A0F249C40A1430162016ADE
:100A80001143016210BD0246002012690A4200D0E3
:100A900001207047FEE70029018802D041F48061FF
:100AA00001E021F480610180704702460020938AB2
:100AB000128B43EA024323F07F42914300D101208D
:100AC00070470029018802D041F4807101E021F4CF
:100AD0008071018070470029018802D041F40071C3
:100AE00001E021F40071018070470CB5024600203E
:100AF00000920A0F21F07F41019202D0009A143235
:100B000002E0009A090C1832009212680A4200D0E2
:100B100001200CBD008AC0B2704712B141F0010142
:100B200001E001F0FE010182704701827047000080
:100B30002DE9F05F9946904644F620658A46834643
:100B40002C46012300220A9F00F0CAF8284E02E03A
:100B5000641E24B29CB331465846FFF7C6FF08B95D
:100B6000002CF5D141465846FFF7DFFF584600F00C
:100B70000DF901231A465146584600F0B1F80121FB
:100B80005846FFF788FF0024DFF868802CE0781EC5
:100B900084422E461AD100215846FFF77CFF0121DE
:100BA0005846FFF798FF02E0761E36B23EB1414646
:100BB0005846FFF77AFF80B9002EF5D10DE002E02C
:100BC000761E36B216B90120BDE8F09F4146584660
:100BD000FFF76BFF08B9002EF2D15846FFF79AFFD6
:100BE00009F80400641CE4B2BC42D0D30020EBE757
:100BF00080000010400003002DE9F0471E4690469B
:100C000044F620650023894682462C461A4600F0A9
:100C100067F81E4F02E0641E24B264B339465046A2
:100C2000FFF763FF08B9002CF5D141465046FFF7A6
:100C30007CFF504600F0AAF80023012249465046A6
:100C400000F04EF826B101215046FFF724FF07E0DF
:100C500000215046FFF71FFF01215046FFF73BFFE1
:100C60000B4C02E06D1E2DB22DB121465046FFF710
:100C70001CFF18B104E00120BDE8F087002DF1D180
:100C80005046BDE8F047FFF745BF00008000001068
:100C90004000030030B585B00C4615460E2100918A
:100CA00001AB3B222946FFF743FFBDF8040040BAE1
:100CB0002080BDF8060040BA6080BDF8080040BA48
:100CC000A080BDF80C0040BAE080BDF80E0040BA2C
:100CD0002081BDF8100040BA608105B0002030BD11
:100CE0002DE9F0471E461546884681464FF40037E9
:100CF00039464846FFF7F9FE0028F9D10121484658
:100D0000FFF7DFFE1E4F02E0641E24B27CB33946BB
:100D10004846FFF7CAFE08B9002CF5D11EB10121E3
:100D20001848FFF7B8FE2A4641464846FFF7F5FE49
:100D300044F6206415B1012D0DD01EE0124D02E0E5
:100D4000641E24B29CB129464846FFF7AEFEA0B906
:100D5000002CF5D111E00A4D6D1C02E0641E24B296
:100D60002CB129464846FFF7A0FE20B105E0FFE779
:100D70000120BDE8F087002CF0D10020F9E7000049
:100D80000100030000540040820007002DE9F041FB
:100D9000074644F620640121FFF79DFE0E4E0E4DDE
:100DA0007C3E02E0641E24B254B129463846FFF767
:100DB0009CFE40B131463846FFF797FE18B104E07B
:100DC0000120BDE8F081002CECD101213846FFF76D
:100DD00082FE0020F5E7000080000010FEE770476B
:100DE00070B50F21C478027801234FF0E026E4B1FA
:100DF000124C246804F4E064C4F5E064C4F30724EE
:100E0000C4F10405E1404478AC4085780D402543A9
:100E10000B4C29011155007800F01F018B4040094F
:100E200006EB8000C0F8003170BD02F01F00834067
:100E3000500906EB8000C0F8803170BD0CED00E079
:100E400000E400E0024908430249086070470000DE
:100E50000000FA050CED00E0014801F0CDB80000FB
:100E6000FC010020094810B5807A48B108480168A3
:100E700021F00601016000F087FA044802F0AAF8A8
:100E8000BDE810404FF48020FFF714BDFC010020A6
:100E900010ED00E07047000070B572B60023574DAA
:100EA0003A22D0212846FFF7A7FE00287BD0544CD9
:100EB000002100BF01EB410004EB8000491C90EDD4
:100EC000010AC9B280ED000A90ED020A062980ED00
:100ED000010AEFD34A4A002112F1480201EB410016
:100EE00002EB8000491C90ED010AC9B280ED000AB6
:100EF00090ED020A032980ED010AEFD3D022414987
:100F00002846FFF7C7FE3F48DFED3F0AB0F9001063
:100F100000EE101AB8EEC01A81EE200A84ED020A23
:100F2000B0F9021001EE101AB8EEC11AC1EE201A83
:100F3000C4ED051AB0F9041001EE101AB8EEC11A8A
:100F4000C1EE201AC4ED081AB0F9061000EE901A8E
:100F5000B8EEE01ADFED2D0A81EE202A84ED0B2A8F
:100F6000B0F9081001EE101AB8EEC11A81EE202A6D
:100F700084ED0E2AB0F90A0001EE100A2048B8EEFE
:100F8000C11A6C3081EE202AF1EE000A84ED112A9C
:100F900094ED091A94ED0A2AD0ED002A02EE201AE7
:100FA00031EE002A00E021E09FED191A04F1300132
:100FB00042EE012AC0ED002A91EC022A02EEA02A9C
:100FC00032EE000A90ED012A00EE012A80ED012A9E
:100FD00094ED0F0A94ED102A02EE200AD0ED020AD9
:100FE00030EE210A40EE010AC0ED020A62B601218C
:100FF000BDE87040074800F0D8BB00000054004036
:1010000084010020EC07002000FEFF456811034327
:101010006F12033A00080040044A0029116801D009
:10102000014300E081431160704700003038024006
:10103000044A0029116801D0014300E08143116096
:101040007047000034380240044A0029116801D07A
:10105000014300E0814311607047000040380240C6
:10106000044A0029116801D0014300E08143116066
:101070007047000020380240044A0029116801D05E
:10108000014300E081431160704700004438024092
:1010900070B5204A1168204C11F00C0104D0661084
:1010A000042903D0082903D004601BE0066019E07E
:1010B0001849091F0B68C3F380550B6803F03F0301
:1010C00015B1B6FBF3F301E0B4FBF3F30C68096868
:1010D000C4F388146343C1F30141491C4900B3FBC5
:1010E000F1F1016011680F2303EA11110B4B5C5CF5
:1010F0000168E14041601468072505EA94241C5DFD
:1011000021FA04F48460126805EA52329A5CD140F4
:10111000C16070BD083802400024F4009000002037
:101120001CB504460E48012150F82400FFF774FF57
:101130000B480021083830F81400009001208DF889
:1011400004008DF806108DF8070002208DF80500C8
:101150000448694650F82400FFF734FC1CBD000029
:10116000C0300008040000200349044A31F8101080
:1011700052F8200041837047B83000080400002076
:10118000044951F820104A69034B33F810004240DB
:101190004A61704704000020B83000080349044A3F
:1011A00031F8101052F82000FFF76DBCB030000885
:1011B0000000002070B5044622480E4686B050F864
:1011C00024000121FFF728FF01218803FFF754FFC6
:1011D0001C4800258DF81050001F8DF8135030F872
:1011E00014000390184803A950F82400FFF7EAFB05
:1011F000012E25D11348C01F015D401E005D00F087
:1012000027F81048801E30F8140000908DF8045024
:1012100008208DF8050001258DF806506846FFF777
:101220004FFB0848801F005D8DF808000F208DF8E7
:1012300009008DF80A008DF80B5002A8FFF7D0FDC9
:1012400006B070BDB43000080000002070470000F8
:1012500010B58A0721F003040649130F21440F2219
:101260000C689A4094430C600A68984002430A60F4
:1012700010BD0000083801400CB500222E49019233
:101280000092086840F4803008604FF4A06308685A
:1012900000F4003000900198401C0190009810B9B3
:1012A00001989842F3D108688303244841D501226C
:1012B0000092224A3832136843F080531360204A68
:1012C000136843F48043136002680260026842F4CA
:1012D00000420260026842F4A0520260031F194AF1
:1012E0001A600A6842F080720A600A689201FCD5AE
:1012F000154B40F205621A60026822F00302026098
:10130000026842F0020202600268C2F38102022A0D
:10131000FAD1026822F400020260084A0B487C32CB
:101320001060086840F08060086008680001FCD523
:101330000CBD0092EDE70000003802400838024082
:101340000070004008544007003C0240003000504C
:101350000B4810B5007828B100F092FD01464078A6
:1013600038B903E0BDE8104000F0F8BB88780028E9
:1013700005D0BDE810400422024800F0B4BD10BD05
:1013800014000020FC0100200F4810B5016841F056
:10139000010101600C4A00210832116002680B4B08
:1013A0001A400260031D0A4A1A60026822F4802271
:1013B000026005480C300160FFF75EFF05494FF001
:1013C0000060086010BD000000380240FFFFF6FE1C
:1013D0001030002408ED00E070B5048C24F0010406
:1013E0000484058B048C4FF6FF7606EA031313433F
:1013F00025F0F3052B4324F00A020A4342F00101D1
:101400000383018470BDF0B5048C24F010040484BF
:10141000078B068C4FF6FF7404EA011527F4734717
:1014200004EA0331394304EA02220A4326F0A00108
:10143000294341F0100102830184F0BD2DE9F04100
:10144000DFF8D4800221404600F0D5F9A0B333483C
:10145000334C4FF4FA66D0ED0B0A2088771000EE7B
:10146000100A304DB8EE401AB3EE050A00EE801AAD
:10147000BCEEC11A11EE100A80B220806188B04221
:1014800001EE101AB8EE411A00EE801ABCEEC11A35
:1014900011EE101A6180A18801EE101AB8EE411AFF
:1014A00000EE801ABCEEC10A10EE101AA18004D919
:1014B000A0F5FA60208008E027E0B84201D90021B9
:1014C00000E0295C404600F0DFFA6088B04203D9B2
:1014D000A0F5FA60608008E0B84201D9002101E07F
:1014E0002088295C404600F0CFFAA088B04203D99A
:1014F000A0F5FA60A08008E0B84201D9002101E01F
:101500002088295C404600F0BFFA4046BDE8F04123
:10151000022100F04AB900000000014084010020CF
:10152000200000205431000870B501218AB008461F
:10153000FFF78AFD01211020FFF76EFD4FF42850C0
:10154000059002208DF8180000248DF81A403A4EBC
:101550008DF81B4003258DF8195005A93046FFF77B
:1015600031FA012209213046FFF77DFA01220B21D1
:101570003046FFF778FA01220D213046FFF773FA63
:10158000ADF81C5045F207202C4D0890ADF82440D2
:10159000ADF81E4007A9284600F0A2FA012128460E
:1015A00000F0EEF86020ADF800000120ADF8020078
:1015B0000420ADF8040032200290A815ADF8100008
:1015C000ADF80C40ADF80E40ADF812406946284623
:1015D00000F07CF96946284600F0AEF969462846D5
:1015E00000F0F4F901220021284600F0D3F8082188
:1015F000284600F09BF901220421284600F0CAF891
:101600000821284600F0D8F901220821284600F0D8
:10161000C1F80821284600F017FA0121284600F0F9
:10162000C7F801220221284600F047F900211B20BB
:10163000FFF77EF90AB070BD0010024000000140C3
:1016400070B588B001268DF8046013208DF807600E
:10165000002400908DF8064003258DF8055069465A
:101660003648FFF7AFF901210420FFF7EDFC48F2FF
:101670000E00009002208DF804008DF80760304EB7
:101680008DF806408DF8055069463046FFF79AF907
:1016900001210846FFF7D8FC012211463046FFF72A
:1016A000E2F9012202213046FFF7DDF90122032190
:1016B0003046FFF7D8F901220F213046FFF7D3F962
:1016C00001210846FFF7C0FC2A20ADF81400601E77
:1016D00006907603ADF81640ADF81C4005A93046DB
:1016E00000F0FEF90121304600F0B4F94021304607
:1016F00000F0BAF90421304600F0BCF90F20ADF833
:101700001000ADF808400A20ADF80A00ADF80E4010
:10171000ADF80C5002A9304600F079F801220E21F4
:10172000304600F0CAF800211C20FFF701F9012122
:10173000304600F03DF808B070BD000000080240DF
:101740000000024010B50C4C0121204600F053F877
:1017500058B100233A22D0210848FFF74DFA00285B
:1017600009D0BDE81040FFF797BB2046BDE8104008
:10177000012100F01AB810BD0014004000540040D0
:101780000029018802D041F0800101E021F08001B0
:101790000180704710B50123048C8B409C43048466
:1017A000038C8A401343038410BDC94301827047F0
:1017B0000029018802D041F0010101E021F001017E
:1017C0000180704770B50589048B068C25F00705EC
:1017D0000D434FF6FC410C4040F201110C434FF613
:1017E000FF7101EA031126F02206114331430581FE
:1017F0000483018470BD02460020138A92890B4243
:1018000002EA010202D0002A00D0012070472DE92F
:10181000F0410D460E884988AA882B89044616B3E4
:10182000042E28D0082E268C4FF6FF702BD026F4DD
:1018300080562684A78B268C00EA022200EA01311A
:1018400027F473473A4300EA0330104326F420425A
:101850000A4342F48051A0832184E9882046BDE8F0
:10186000F04100F031B9FFF7B7FDE9882046BDE847
:10187000F04100F00DB9FFF7C6FDE9882046BDE84C
:10188000F04100F00DB926F480762684A78B268CD3
:1018900000EA012100EA0310104327F0F307384360
:1018A00026F420620A4342F48071A0832184E988EF
:1018B0002046BDE8F04100F0FFB8002A828901D03F
:1018C0000A4300E08A4382817047000030B5028CF1
:1018D00022F001020284028C8388048B22F002022F
:1018E00024F073050C882C438D8915434A882A43BC
:1018F0000C4DA84202D00C4DA8420DD122F0080593
:10190000CA8923F440732A4322F004058A882A43B3
:101910000D8A1D434B8A2B4383800483896841636E
:10192000028430BD0000014000040140028B22F01F
:1019300008020A430283704770B5028C22F010023D
:101940000284028C8488038B0D8823F4E6464FF6CC
:10195000FF7303EA052535438E8922F0200203EA4E
:10196000061616434A8803EA02123243104EB0426A
:1019700002D0104EB04215D122F08006CA8924F45C
:10198000406403EA0212324322F040068A8803EAE6
:10199000021232430E8A03EA860626434C8A03EA81
:1019A000840434438480058389688163028470BD24
:1019B0000000014000040140028B4FF6FF7322F447
:1019C000006203EA012111430183704770B5028C64
:1019D00022F480720284028C8488838B0D8823F029
:1019E00073031D4322F400738E894FF6FF7202EADF
:1019F00006261E434B8802EA03233343104EB042AF
:101A000002D0104EB04215D123F40066CB8924F4E5
:101A1000405402EA0323334323F480668B8802EAAE
:101A2000032333430E8A02EA061626434C8A02EA4F
:101A300004143443848085838968C163038470BD42
:101A40000000014000040140828B22F008020A439A
:101A5000828370470029818802D041F0800101E033
:101A600021F0800181807047028922F070020A43D0
:101A700002817047028922F00702028102890A432B
:101A800002817047C162704741637047416270478D
:101A9000028B22F00C020283028B0A4302837047FE
:101AA000028B22F440620283028B4FF6FF7303EA3B
:101AB00001210A4302837047828B22F00C02828349
:101AC000828B0A4382837047828B22F44062828336
:101AD000828B4FF6FF7303EA01210A43828370472A
:101AE00030B50288164B174C98420DD0A0420BD04F
:101AF000B0F1804F08D0144DA84205D0134DA84234
:101B000002D0134DA84203D122F070054A882A431F
:101B1000104DA84206D0104DA84203D022F44075C3
:101B20000A892A4302804A68C2620A88028598426A
:101B300001D0A04201D1897A01860121818230BD84
:101B40000000014000040140000400400008004083
:101B5000000C0040001000400014004003484168A1
:101B6000002902D04168491E4160704714000020DE
:101B700010B5D0F8E02552689047002010BD10B590
:101B8000134600240A462146FEF7BFFB204610BD3F
:101B900010B5134600240A462146FEF7F7FB2046FF
:101BA00010BD10B50446087800060AD4C88840B1B4
:101BB00000212046FEF7CEFB2046BDE8104000F095
:101BC000A5BF8021F5E770B505460024052085F8FE
:101BD00011012346224621462846FEF796FB284659
:101BE00000F094FF204670BD10B5C0F838210223E4
:101BF000C0F8342180F81131134600240A462146EA
:101C0000FEF7C4FB204610BD70B505460024042035
:101C100085F811012346224621462846FEF7B6FBE9
:101C2000284600F073FF204670BD70B5054641B1EF
:101C3000D5F8E005426982B395F8120103283BD03C
:101C40003CE095F8110105F58C74022836D1E16964
:101C5000A06881420FD9081AE061E878012803D111
:101C6000D4E902100844E060A08BE16882B2284603
:101C7000FFF78EFF22E0216AB1FBF0F200FB1212A7
:101C800062B981420AD3606A814207D200221146BA
:101C90002846FFF77DFF002060620FE0D5F8E005E1
:101CA000C16829B195F81201032801D12846884757
:101CB0002846FFF788FF01E028469047002070BDC6
:101CC00070B5054641B1D5F8E00582690AB395F8CB
:101CD000120103282CD02DE095F8110105F55C7454
:101CE000032827D1E169A068814213D9081AE0616D
:101CF000E878012803D1D4E902100844E060E169E2
:101D0000A068814200D2084682B22846E168FFF707
:101D100036FF0FE0D5F8E005016929B195F8120109
:101D2000032801D1284688472846FFF76DFF01E0C8
:101D300028469047002070BD38B5044648880D46B7
:101D4000010A04295CD2DFE801F05B021420D4F818
:101D5000E815A0780A68694690470146E888402857
:101D600003D094F81201012837D10820ADF8000003
:101D700037E0D4F8E015A0788A6A694690470146B2
:101D800002204870C4F8EC1527E0C0B2062837D20C
:101D9000DFE800F003080D12171CD4F8E815A0784E
:101DA0004A6817E0D4F8E815A0788A6812E0D4F8F9
:101DB000E815A078CA680DE0D4F8E815A0780A699B
:101DC00008E0D4F8E815A0784A6903E0D4F8E815EB
:101DD000A0788A69694690470146BDF8000000284E
:101DE0000DD0E88800280AD0BDF80020904200D924
:101DF0001046ADF8000082B22046FFF7F5FE38BD70
:101E000029462046FFF7CDFE38BD70B500230028D7
:101E10001DD00446002502E06D1CEDB2641C26783E
:101E2000002EF9D1022404EB45041480CC545B1C31
:101E30000322CA545B1C002406E0CA545B1CDAB2BD
:101E4000401C8C54521CD3B20278002AF5D170BDCC
:101E500010B58121FEF72FFA002010BD10B5044601
:101E60008121FEF7F6F901212046FEF7F2F9002064
:101E700010BD00002220088000487047D8000020D4
:101E800030B50F4800210F4B4170817059694FF0F8
:101E900040440322A14200D942704FF08045A9423C
:101EA00002DD4178C91E4170196AA14200D98270D1
:101EB000A94202DD8178C91E8170014830BD000051
:101EC00026000020CC01002010B504460323042284
:101ED0008121FEF7FCF90323042201212046FEF7AD
:101EE000F6F9002010BD10B590F81231032B04D183
:101EF00013460A468121FEF749FA002010BD000072
:101F000070B50C78002214F06005254C13461DD0E6
:101F1000202D42D14A78022A14D0032A0AD00A2A54
:101F20000CD00B2A03D0FFF73CFE022070BD88784E
:101F3000606032E01A490122091D26E04888000A43
:101F4000A0602AE01649012208311EE04D78062DD6
:101F500004D00A2D1CD00B2D1FD11CE04C8822254B
:101F6000B5EB142F06D1CA884A2A00D94A220C4B55
:101F70002E3309E02125B5EB142F05D1084BCA8873
:101F80001E33092A00D909221946FFF72DFE04E065
:101F900001220349F9E788782060002070BD000025
:101FA000CC0000202DE9F0411D4617468846044626
:101FB000069E00F093FBC4F8E05504F2E455414658
:101FC00085E8C0002046FEF74DFB28680068804782
:101FD0002046BDE8F04100F06DBB10B5D0F8E0152B
:101FE000096A8847002010BD10B5D0F8E015496A8D
:101FF0008847002010BD00002DE9F0470446002569
:1020000000F01BFF00287CD0204600F01FFF0600D8
:1020100078D0300303D52046FEF748FA0546700312
:1020200003D52046FEF7CEF90543B0074FF0000A6E
:1020300002D5E168022048614D4F4FF00109002EA2
:1020400017DAA07A30B1D4F80C01D4F80C1120F0D2
:10205000030008602069416821F00101416038688F
:10206000816920468847E1684FF00040486145F0AB
:102070000105300520D53868416920468847206928
:102080008068E2684FF400615161A17A91B1C007A4
:1020900010D0D4F80C01016841F001010160D4F8BE
:1020A0000C01016841F0030101603248016841F010
:1020B0000601016045F00105300708D53868C168A0
:1020C00020468847E1680820486145F00105F00690
:1020D00003D52046FEF746FA0543F00403D5204613
:1020E000FEF77EFA0543B0041DD5204600F094FCAF
:1020F000E068D0F80C80204600F086FE03282DD042
:1021000001E028E028E084F80290402128F4705093
:10211000A18000F5A050E168C860E1684FF400506C
:10212000486145F00105F00209D53868C1692046CB
:102130008847E1684FF48010486145F00105B0021E
:1021400009D53868016A20468847E1684FF40010D5
:10215000486145F001052846BDE8F08784F802A0F3
:102160004FF4007128F47050A18000F51050D2E7B0
:102170007001002010ED00E090F8C8250A7090F87A
:10218000C9254A7090F8CA2590F8CB3502EB032296
:102190004A8090F8CC2590F8CD3502EB03228A8056
:1021A00090F8CE2590F8CF3502EB032292B2CA8088
:1021B0000121C0F83C2180F81111704710B50023AF
:1021C000044640221946FEF782F80023402280216F
:1021D0002046FEF77CF8012084F81201D4F8E415BB
:1021E000A07849688847002010BD10B50446D0F893
:1021F000E40500698047032084F81201002010BD27
:1022000010B5D0F8E015C96901B18847002010BDAC
:1022100010B50446D0F8E005026820469047D4F88F
:10222000E40580688047002010BD000070B50A46B4
:102230001A4D897804462970012905D894F81201AD
:10224000022807D003280CD02046BDE87040114674
:10225000FFF7A7BCA1B184F81011032084F8120184
:102260000BE091B194F81001884209D00146204654
:10227000FFF77EFC297884F810112046FFF7C8FF8D
:102280002046BDE87040FFF7BFBC022084F8120171
:1022900084F810112046FFF76BFCF1E77401002071
:1022A00010B50446488801280FD002282FD188880D
:1022B00010F0FF0F2BD122695168000A062820D2A6
:1022C000DFE800F01F0C1014181C0120C4F81401E2
:1022D000D4F8E00582682046904713E021F07001B1
:1022E00010310EE021F0700120310AE021F0700180
:1022F000303106E021F07001403102E021F0700140
:10230000503151602046BDE81040FFF77DBC10BD44
:102310001CB504466946FFF72FFF9DF8001011F029
:102320001F000AD001280DD0022810D001F0800132
:102330002046FEF70FF800201CBD6946204600F03D
:102340000BF8F8E76946204600F0EAF8F3E769463B
:10235000204600F07BF8EEE72DE9F0414A780026B0
:1023600001250A2A42D2DFE802F03B5641534108D8
:1023700005412A27FFF7E0FC62E004468888C8B9D7
:10238000C888B8B9887800F07F0794F8120103284C
:1023900010D084F8137139462046FDF7D3FF20464C
:1023A000FFF732FC1FB1022084F8120148E084F8E4
:1023B000125145E0204619E0FFF738FF40E0CA8897
:1023C000012A13D190F81221022A02D0032A0DD13A
:1023D00002E001221C4918E0012200F5887114E096
:1023E00090F81221022A04D0032A02D0FFF7D9FB69
:1023F00026E01549D0F81421083912B10322CA6029
:1024000000E0CD6010490122091DFFF7EDFB17E048
:10241000FFF746FF14E0044690F81201022801D0AD
:102420000328C7D1488801280AD10020C4F8140124
:10243000D4F8E0058268204690472046FFF7E4FB89
:102440003046BDE8F08100007C01002070B50D46EB
:10245000044609796878002658B3012816D0032865
:1024600031D194F8120102282FD0032827D168888F
:1024700028B921B1802902D02046FDF76BFFD4F89E
:10248000E00529468268204690470EE094F8120144
:1024900002281AD0032812D16888A0B929B180294E
:1024A00003D02046FDF7EBFEE9E72046FFF7ACFB43
:1024B00009E094F81201022807D003280DD029461C
:1024C0002046FFF76EFB304670BD0029FBD0802907
:1024D000F9D02046FDF73EFFF5E710480D064FF016
:1024E00000034FF0010208D501F07F0101EB8101EB
:1024F00004EBC10191F81A1105E001EB810104EB35
:10250000C10191F8721309B1426000E043600349D0
:102510000222091D2046FFF767FBD4E77401002063
:1025200070B5054690F8120100260C4603280DD11F
:10253000207901280AD8D5F8E00582682846904716
:10254000E08830B92846FFF75FFB02E02846FFF736
:1025500028FB304670BD10B5042180F81211D0F868
:10256000E405C0688047002010BD000010B50A4691
:10257000024903A0FFF749FC004810BDF8070020FE
:1025800048494420436F6E66696700007047704792
:102590001220088000487047600000207047704794
:1025A000704770470B4818210068B0FBF1F0B0F19C
:1025B000807F0DD220F07F414FF0E020491E416125
:1025C000054AF021117000218161072101617047E6
:1025D000FEE700002C00002023ED00E010B50A46C5
:1025E000024903A0FFF711FC004810BDF8070020C6
:1025F00048494420496E7465726661636500000055
:1026000004200880004870475C00002010B50A468E
:10261000024903A0FFF7F9FB004810BDF8070020AE
:1026200053544D6963726F656C656374726F6E6944
:10263000637300000A4610B5044928B104A000BF26
:10264000FFF7E3FB014810BD06A0F9E7F8070020FB
:102650004A6F79737469636B20696E204653204D0D
:102660006F6465004A6F79737469636B20696E20CB
:102670004853206D6F6465000A4610B5044928B1BF
:1026800004A000BFFFF7C1FB014810BD05A0F9E79A
:10269000F8070020303030303030303030313143C6
:1026A00000000000303030303030303030313142D6
:1026B0000000000008B54FF4C060FEF7C3FB4320E4
:1026C0008DF8000001208DF8010003218DF8021023
:1026D0008DF803006846FEF783FB08BD7CB5012139
:1026E0000846FEF799FC4FF4D850032400908DF86B
:1026F000054002208DF8040000208DF80600204DD2
:102700008DF8070069462846FEF75CF90A22082181
:102710002846FEF7A8F90A2209212846FEF7A3F960
:102720000A220B212846FEF79EF90A220C21284690
:10273000FEF799F901218DF8061028158DF807107C
:1027400000908DF8054069462846FEF73BF90A22BD
:1027500011462846FEF787F901218803FEF78CFC15
:1027600001218020FEF764FC01210807FEF778FCB8
:1027700001210020FEF71EFD0120FEF79BF87CBD25
:10278000000002404FF47A714843AFF30080C0EB81
:1027900000100021C0000722B0FBF2F0491C81426A
:1027A000FCD9704770B50446017A0025C06801293C
:1027B0000CD0C16841F04001C160204600F0F8F83B
:1027C000217A4FF4803003291DD01EE0816B627A9C
:1027D00021F480310AB141F480118163E068C1685D
:1027E00021F0401121F0880121F4202141F0100155
:1027F000C160204600F0DCF8E07801283DD1E168B6
:102800002A2088602EE04FF44030617A40F4301086
:1028100009B140F48010E16888631420FFF7B2FF2B
:10282000E168C868227A032A01D140F48030C86088
:10283000207A032816D1E068016B21F0406101F194
:10284000806121F47F0141F0805606F5341606635D
:10285000C820FFF797FFE16846F400000863C8202E
:10286000FFF790FFE078012807D1E068816821F048
:102870001E010A3141F020018160284670BD000030
:102880002DE9F04104460027D0F80C013D462B46C7
:1028900007602069016821F4C0510160E07A402698
:1028A000012826D10321204600F0C1FAE0688021EA
:1028B00041621846E26866F31F4061F30F009062C0
:1028C00000EB104060F30F03E06861F31F43C0F8B2
:1028D000043103EB134060F30F03E06865F31F431B
:1028E000C0F8083103EB134060F30F03E068C0F851
:1028F0000C311021204600F067FA204600F048FA1B
:10290000206905612069456121694FF0FF308861C8
:102910002069C56100234FF09040FF2214E000BF02
:1029200004EB830CDCF818E0DEF80010002901DA73
:10293000014600E02946CEF80010DCF818100D61C1
:10294000DCF818108A605B1C61789942E8D8002393
:10295000294613E004EB830CDCF854E0DEF8005069
:10296000002D01DA054600E00D46CEF80050DCF8F7
:1029700054502961DCF85450AA605B1C65789D4274
:10298000E8D82069016941F480710161E07801288B
:1029900008D1032066F38A00216940F4803066F391
:1029A00059400863204600F0C9F93846BDE8F08177
:1029B000F8B5002704463E460097124D0320FFF766
:1029C000E6FEE06800690090761CAE4201D9002066
:1029D000F8BD00980028F1DA0099002041F00101CB
:1029E00000910099E2681161E1680A690092401C57
:1029F000A84202D8009AD207F7D10320FFF7C7FEFA
:102A00003846F8BD400D0300C0680021826822F0FE
:102A1000010282600846704710B5016900238C6886
:102A200082691168C4F341042CB1012C03D0022C3B
:102A300004D0032C05D16FF30A0102E06FF30A0101
:102A4000C91C11600069416841F4807141601846F9
:102A500010BD0000F0B54A7800254C69012A15D058
:102A60000A7800EB82035A6D16681269DCB38C6831
:102A7000C1F8144064F306025B6D22F4C01202F543
:102A800000221A61C278012A30D035E083691F68BC
:102A90001A6934B18E68B44206D966F306024E61F3
:102AA00004E022F07F0201E064F3060222F4C01287
:102AB00002F500221A61C278012A05D10C780A6950
:102AC00000EB8404A469626147F004421A60C27892
:102AD000CAB94A69BAB10A78006901219140426BCA
:102AE0000A4342630FE0FFE70C7AC3E70B780A69F9
:102AF00000EB83035B6D5A61097846F0044200EBFA
:102B00008100406D02602846F0BD0000426D07491B
:102B10001161C178012908D1426D00F5B961516197
:102B2000406D01684FF0802101607047180008C0B7
:102B3000F0B50E7800254F780122B2402B4600EB0D
:102B40008604012F19D0646D62F31F4322681604B6
:102B50000DD40E8966F30A02CE78897966F3934222
:102B600061F3995242F0805141F4004121600069C3
:102B7000C1691943C1612846F0BDA46962F30F031E
:102B8000E4E710B502464C780B78002002EB830294
:102B9000012C09D0526D1368C97823F4001303295E
:102BA00004D0022902D003E09269F4E743F0805395
:102BB000136010BD30B50C7803464D78012200201B
:102BC000A24003EB8401012D09D04C6D014662F354
:102BD0001F4120601A69D3698B43D36130BD8C6972
:102BE000014662F30F01F4E702464B7809780020B2
:102BF00002EB8101012B05D0496D0A6842F40012F5
:102C00000A6070478A691168002901DA41F0804141
:102C100041F4001111607047F0B54B780A78002438
:102C200001264F6900EB8202012B15D0556D2B68F0
:102C30002A69002F62D08E6837447F1EB7FBF6F7F3
:102C400067F3DC42C2F3C947774367F312022A6194
:102C5000C278012A58D05DE095692B682A696FB166
:102C6000D1F808C067F3120267447F1EB7FBFCF778
:102C700067F3DC42CF78012F05D008E06FF3120232
:102C800066F3DC4203E022F0C04202F100522A6106
:102C9000C278012A0ED0CA78012A12D04A69C2B17C
:102CA0000A7896400269556B35435563CA78012A04
:102CB00007D00EE00D780A6900EB8505AD696A6101
:102CC000F4E702699268C2F30D22D2070CD043F0F8
:102CD000805343F004420B7800EB83039B691A6036
:102CE000CA78012A03D026E043F00053F1E78A8A2C
:102CF00093B20A78C96800F07CF91CE08F6867F32A
:102D0000120266F3DC42A2E70D780A6900EB850542
:102D10006D6D6A61CA78012A06D14A7912B143F011
:102D2000005301E043F08053097843F0044200EB84
:102D30008100406D02602046F0BD000010B5C36800
:102D4000002211469A61C468531E6361C4686360BF
:102D5000C4686361C468094BA361C37803B91021D7
:102D6000C36841F4872141F00811986941F440118A
:102D7000884308439861104610BD00000008008099
:102D8000C0680021826842F00102826008467047F4
:102D900038B5002421460094009A42F010020092B7
:102DA000009AC3681A61074AC06803690093491C06
:102DB000914202D8009BDB06F7D40320FFF7E7FC23
:102DC000204638BD400D030038B50024224600944B
:102DD000009B43F020030093009B61F38A13009350
:102DE0000099C36819610749C06803690093521CC0
:102DF0008A4202D8009B9B06F7D40320FFF7C7FC4A
:102E0000204638BD400D030001460020096989684D
:102E1000C1F3410139B1012903D0022905D00329A9
:102E200000D10220704703207047012070470269DB
:102E3000106861F3010010607047C068406910F0CD
:102E4000010F01D00020704701207047C068416920
:102E500080690840704700698169C069084080B294
:102E6000704700698169C0690840000C704700EB39
:102E70008101496D896800694069084070470346CF
:102E800010B50020D21C9208D3F8D03003E01C68A3
:102E900041F8044B401C9042F9D3084610BD000095
:102EA00070B500220125C270402685701446134675
:102EB0008680012901D061B114E0C572082101703A
:102EC00004214FF0A04241709115C180022101728E
:102ED00008E0C3720C210170062141701F4A4FF4B3
:102EE000A061C18002F50061C0E9032100210AE070
:102EF00002EB411303F5106600EB810503F5306327
:102F0000AE61491C6B6543788B42F1D802F5806154
:102F100041614031C0F8CC10002108E002EB4113C0
:102F200000EB810503F5A063491CC5F890300378D8
:102F30008B42F3D8002108E002EB013300EB81055E
:102F400003F58053491CC5F8D03003788B42F3D881
:102F500002F56062C0F80C21204670BD00000440FC
:102F600010B5C0680024C268012922F0C04201D017
:102F700019B104E042F0005201E042F08042C26028
:102F80003220FFF7FFFB204610BD10B5044601209C
:102F900084F812010020FF2106E004EB800293690F
:102FA0009960526D9160401C62788242F5D8216927
:102FB00000200861216948612169C8612169401EBA
:102FC00088612046FFF7E4FE2046BDE8104010214E
:102FD000FFF7FABE817A00290AD001698968C9071A
:102FE00006D0D0F80C11D0F80C0121F003010160DB
:102FF000704730B5C47800256CB900EB820000241E
:10300000DB1C9B08D0F8D00003E051F8042B0260D1
:10301000641C9C42F9D3284630BDFEE7014A0249B0
:1030200000F013B86D3000081C00002002E008C852
:10303000121F08C1002AFAD170477047002001E032
:1030400001C1121F002AFBD170472DE9F04116463D
:103050000F460446002503E03946B0476D1C641C4A
:1030600020780028F8D12846BDE8F0810549096894
:10307000C90105D54FF060410A68002AFCD00870EC
:1030800070470000FCED00E004A0FFF7C7FF01213E
:103090000020FEF78FF8FDF773FB000048656C6CAD
:1030A0006F20576F726C640A000000000000060079
:1030B000010001000100000000100020004000801D
:1030C00008000000080000000800000008000000E0
:1030D0004D50553630353020496E697469616C69E0
:1030E0007A6174696F6E20436F6D706C6574652CC6
:1030F000204F6666736574732041637175697265EC
:10310000642E20426567696E6E696E6720496E7431
:1031100065727275707420436F6E6669672E2E2E0D
:10312000200A000000000000000000000100010073
:10313000010001000000010000000100010000008A
:10314000010001000100000000000100010000007A
:103150000000000000010101020202030303030456
:1031600004040505050606060707070808080809F8
:1031700009090A0A0A0B0B0B0C0C0C0D0D0D0D0E98
:103180000E0E0F0F0F101010111111121212121338
:1031900013131414141515151616161617171718D9
:1031A0001818191919191A1A1A1B1B1B1C1C1C1D7B
:1031B0001D1D1D1E1E1E1F1F1F1F2020202121211F
:1031C00022222222232323242424252525252626C2
:1031D0002627272727282828292929292A2A2A2B68
:1031E0002B2B2B2C2C2C2D2D2D2D2E2E2E2F2F2F0F
:1031F0002F303030303131313232323233333333B9
:103200003434343535353536363636373737373862
:103210003838383939393A3A3A3A3B3B3B3B3C3C0F
:103220003C3C3D3D3D3D3E3E3E3E3F3F3F3F4040BE
:103230004040404141414142424242434343434472
:103240004444444445454545464646464647474727
:10325000474848484848494949494A4A4A4A4A4BDE
:103260004B4B4B4B4C4C4C4C4C4D4D4D4D4D4E4E99
:103270004E4E4E4F4F4F4F4F505050505051515156
:103280005151515252525252535353535353545417
:1032900054545454555555555555565656565656DC
:1032A00057575757575757585858585858595959A2
:1032B000595959595A5A5A5A5A5A5A5A5B5B5B5B6E
:1032C0005B5B5B5C5C5C5C5C5C5C5C5D5D5D5D5D3C
:1032D0005D5D5D5D5E5E5E5E5E5E5E5E5E5F5F5F0F
:1032E0005F5F5F5F5F5F5F5F6060606060606060E6
:1032F00060606061616161616161616161616161C1
:10330000626262626262626262626262626262629D
:10331000636363636363636363636363636363637D
:103320006363636363636363646464646464646465
:10333000646464646464646464646464646464644D
:10334000646464646464646464646464646464643D
:10335000646464646464646464646464646464642D
:103360006464646464646463636363636363636326
:10337000636363636363636363636363636363621E
:10338000626262626262626262626262626262611E
:103390006161616161616161616161616060606021
:1033A000606060606060605F5F5F5F5F5F5F5F5F26
:1033B0005F5F5E5E5E5E5E5E5E5E5E5D5D5D5D5D30
:1033C0005D5D5D5D5C5C5C5C5C5C5C5C5B5B5B5B3D
:1033D0005B5B5B5A5A5A5A5A5A5A5A59595959594F
:1033E0005959585858585858575757575757575664
:1033F000565656565655555555555554545454547D
:103400005453535353535352525252525151515198
:10341000515150505050504F4F4F4F4F4E4E4E4EB7
:103420004E4D4D4D4D4D4C4C4C4C4C4B4B4B4B4BDA
:103430004A4A4A4A4A494949494848484848474700
:103440004747464646464645454545444444444428
:103450004343434342424242414141414040404054
:10346000403F3F3F3F3E3E3E3E3D3D3D3D3C3C3C80
:103470003C3B3B3B3B3A3A3A3A39393938383838B1
:1034800037373737363636363535353534343433E5
:1034900033333332323232313131303030302F2F1A
:1034A0002F2F2E2E2E2D2D2D2D2C2C2C2B2B2B2B50
:1034B0002A2A2A292929292828282727272726268A
:1034C00026252525252424242323232222222221C4
:1034D00021212020201F1F1F1F1E1E1E1D1D1D1D00
:1034E0001C1C1C1B1B1B1A1A1A191919191818183D
:1034F000171717161616161515151414141313137B
:10350000121212121111111010100F0F0F0E0E0EB9
:103510000D0D0D0D0C0C0C0B0B0B0A0A0A090909F9
:103520000808080807070706060605050504040439
:103530000303030302020201010100005C350008DD
:103540000000002084010000E4010008603600084B
:1035500084010020B40A00003C300008211302401E
:10356000DA0C04D1759B023505847A030A100B012D
:10357000020304060708099125140801261B080DFB
:10358000041A35041A79041A6D141ADD0417040399
:103590000904120132021640830410571A0236221F
:1035A000011AA51C1A9F041A8D041AA3041AA10457
:1035B0001A8F041A9D04695C696013C91E1B085D9B
:1035C000044B011F1C411A51100110DA7514140923
:1035D00002221301011DE0320904511403010215F6
:1035E000092111011401224A160705810304100B59
:1035F0000A05010902A1010901A110080509190123
:10360000290315180F250195037501810295017590
:1036100005810120281730093109381581257F756A
:103620000895038106C0093C05FF090129101075A2
:10363000019502B12275069501B101C0C11C1B089C
:103640002B041B1123A812221408BD211B0857CCE0
:103650001AEB081ADBB89AE9BC13440102102000E7
:040000050800018965
:00000001FF
