:020000040800F2
:10000000F00400209D010008D70E0008C508000874
:10001000D50E000821070008E11A000800000000C2
:10002000000000000000000000000000891100082E
:10003000C107000800000000670F00084112000817
:10004000B7010008B7010008B7010008B7010008B0
:10005000B7010008B7010008B7010008B7010008A0
:10006000B7010008B7010008B7010008B701000890
:10007000B7010008B7010008B7010008B701000880
:10008000B7010008B7010008B7010008B701000870
:10009000B7010008B7010008B7010008B701000860
:1000A000B701000819140008B7010008B7010008DB
:1000B000F9160008B7010008B7010008B7010008E9
:1000C000B7010008B7010008B7010008B701000830
:1000D000B7010008B7010008B7010008B701000820
:1000E000B7010008B7010008B7010008B701000810
:1000F000B7010008B7010008B7010008B701000800
:10010000B7010008B7010008B7010008B7010008EF
:10011000B7010008B7010008B7010008B7010008DF
:10012000B7010008B7010008B7010008B7010008CF
:10013000B7010008B7010008B7010008B7010008BF
:10014000B7010008B7010008B7010008B7010008AF
:10015000B7010008B7010008B7010008B70100089F
:10016000B7010008B7010008B7010008B70100088F
:10017000B7010008B7010008B7010008B70100087F
:10018000B7010008B7010008DFF80CD000F026FA2C
:1001900000480047E5230008F00400200648804797
:1001A00006480047FEE7FEE7FEE7FEE7FEE7FEE75C
:1001B000FEE7FEE7FEE7FEE74512000889010008BA
:1001C00000F0004230F000400AD0C10D01F560712E
:1001D000C0F3160042EA0151C208400711437047BC
:1001E00000200146704730B50B4601460020202212
:1001F000012409E021FA02F59D4205D303FA02F534
:10020000491B04FA02F52844151EA2F10102F1DC93
:1002100030BD2DE9F05F0546002092469B4688469A
:100220000646814640241BE0284641464746224672
:1002300000F0F5F953465A46C01A914110D31146C1
:100240001846224600F0DCF92D1A67EB01084F46EC
:1002500022460120002100F0D3F917EB00094E419E
:10026000201EA4F10104DFDC484631462A464346FD
:10027000BDE8F09F2DE9FE4F804681EA0300C00FE4
:100280000C46009021F0004123F00045B8EB02003D
:10029000A94105D24046214690461C460B460246DF
:1002A00023F00040104304D14046214603B0BDE88E
:1002B000F08F270DC7F30A00C3F30A510290401ACA
:1002C0000190402866DAC3F3130040F4801B0098C5
:1002D000924620B10023D2EB030A63EB0B0B01988B
:1002E0005946C0F14002504600F08AF906460D46D4
:1002F00050465946019A00F0A2F910EB08006141FE
:10030000002487EA115284EAE7731A433BD0009A2B
:100310003AB3019A012A4FEA075210DC001B61EB45
:1003200002014FF0004202EA0752CDE90042001CF0
:1003300041F5801132462B4600F0A0F9B6E7001BCC
:1003400061EB0201001C41F5801300185B4120188D
:10035000A2F5001747EB030140EAD570B6196D41CD
:1003600011E06D084FEA360645EAC0754FEA0752BC
:10037000001B61EB0201001C41F5801149084FEAA6
:1003800030000019514132462B4603B0BDE8F04F12
:1003900000F067B90098012240000023D0EB020270
:1003A00063EBE073009821464FEAE074B8EB00007D
:1003B00061EB0401E9E783F000435BE781F0004172
:1003C00058E72DE9FE4F81EA030404F0004421F0D0
:1003D000004100944FF0000B23F0004350EA010469
:1003E00002D052EA030404D10020014603B0BDE864
:1003F000F08FC3F30A54C1F30A552C44A4F2F3342A
:100400000194A0FB0254C1F3130141F48011C3F322
:10041000130343F4801301FB024400FB034E840AE0
:10042000970A44EA815447EA8357A4FB0768029578
:100430008D0A05FB07854FEA932C04FB0C54270516
:10044000029D4FEA065847EA1637B5EB08056EEBF2
:10045000070C870E920E47EA811742EA8312A7FB28
:100460000201B6EB0B0164EB00042B0D43EA0C33E5
:100470005E1844EB1C50DA465146E7FB0201C5F317
:1004800013044FEA0B3343EA14534FEA0432019C3E
:1004900043EA0603A4F10C040294009CCDE900B4E5
:1004A00000F0ECF8A2E72DE9F04D81EA030404F036
:1004B000004B21F0004514464FF0000A23F00041A4
:1004C00050EA050220D054EA01021DD0C5F30A57B4
:1004D0000246C5F31303C1F31300C1F30A5640F4F7
:1004E000801543F48013A7EB0608101BD64608F2CC
:1004F000FD3873EB050002D308F1010801E0921802
:100500005B41B8F1000F03DA00200146BDE8F08D31
:1005100000204FF48011064684460EE0171B73EB53
:10052000050705D3121B63EB050306434CEA010CD8
:1005300049084FEA300092185B4150EA0107EDD1BB
:1005400052EA030012D082EA040083EA050108435C
:1005500003D100224FF0004308E0101BAB4102D250
:100560000122002302E06FF0010253101AEB060093
:100570004CEB085110EB0A0041EB0B01BDE8F04DCC
:1005800000F06FB8C1F30A52C1F3130140F2FF3318
:1005900041F480119A4202DA00200146704740F28D
:1005A00033439A42A2F2334202DC524200F037B89F
:1005B00000F026B830B5002904DB4FF0004440427B
:1005C00064EB0101002B04DB4FF00044524264EB6A
:1005D0000303994208BF904230BD0000064C074D0E
:1005E00006E0E06840F0010394E807009847103403
:1005F000AC42F6D3FFF7CCFD0C2D00082C2D0008E3
:10060000202A04DB203A00FA02F1002070479140D2
:10061000C2F1200320FA03F3194390407047202AC7
:1006200004DB203A21FA02F00021704721FA02F39C
:10063000D040C2F120029140084319467047202A59
:1006400006DBCB17203A41FA02F043EAE07306E0FA
:1006500041FA02F3D040C2F120029140084319460A
:10066000704710B5002B08DA401C41F100019218C8
:100670005B411A4301D120F0010010BD2DE9F04D7E
:1006800092469B4611B1B1FA81F202E0B0FA80F2D3
:1006900020329046FFF7B4FF04460F4640EA0A00B6
:1006A00041EA0B0153465A46084303D120463946D6
:1006B000BDE8F08D114653EA010015D0C8F14002A3
:1006C0005046FFF7ACFF05460E4650465946424697
:1006D000FFF796FF084301D0012000E0002005430A
:1006E00046EAE0762C4337430A984FEA4453A0EB9E
:1006F00008004FEAD4240A304FF0000244EA47547D
:100700004FEAD72502D500200146D1E7010510198F
:100710006941DDE9084500196941BDE8F04DA0E7F0
:10072000FEE730EE601AB5EEC00A00F1280180ED58
:10073000091AD0ED0D0AD0ED031A90ED042AD0ED80
:100740000B2A41EE810AD0ED0A1A42EE210A90ED01
:10075000052A42EE220A90ED0C2A80ED0D2AC0ED0A
:100760000C0AF1EE10FA81EC021A02D24FF0FF31BE
:1007700000E0012100EE101AB8EEC00A20EE801A47
:1007800090ED080AB4EEC01AF1EE10FA0FD900EE9F
:10079000101AB8EEC00A60EE800A90ED070AF4EE77
:1007A000C00AF1EE10FA02DA90ED0C0A704700EE82
:1007B000901AF8EEE00A20EE200A80ED0C0A70474D
:1007C000704708B58DF800008DF801108DF8021003
:1007D00001208DF80300684600F07EFB08BD000094
:1007E000014801F07FF9FEE728250008F0B5002355
:1007F000012403270D6804FA03F21540954242D103
:10080000D0F800C05E0007FA06F52CEA050CC0F827
:1008100000C091F804C0D0F800E00CFA06FC4CEAE5
:100820000E0CC0F800C091F804C0BCF1010F02D05A
:10083000BCF1020F1FD1D0F808C02CEA050CC0F89B
:1008400008C091F805C0D0F808E00CFA06FC4CEAA4
:100850000E0CC0F808C0D0F804C02CEA020CC0F896
:1008600004C0426891F806C00CFA03FC1FFA8CFC25
:1008700042EA0C024260C268AA43C260CA79C568F3
:10088000B2402A43C2605B1C102BB3D3F0BD4B07B0
:10089000DB0E9A40C90810B500EB8100016A0F24F5
:1008A0009C40A1430162016A1143016210BD0246EE
:1008B000002012690A4200D001207047418370472E
:1008C00001837047FEE70029018802D041F480616E
:1008D00001E021F480610180704702460020938A84
:1008E000128B43EA024323F07F42914300D101205F
:1008F00070470029018802D041F0010101E021F098
:100900000101018070470029018802D041F4807103
:1009100001E021F48071018070470029018802D034
:1009200041F4007101E021F40071018070470CB5C1
:100930000246002000920A0F21F07F41019202D06E
:10094000009A143202E0009A090C183200921268E0
:100950000A4200D001200CBD7FB5044680880D46B8
:1009600020F03F06684600F0C7FB26490298B0FB1E
:10097000F1F189B20E43A680228822F00102228082
:10098000214B2A689A421BD85200B0FBF2F080B289
:10099000042800D20420491C2184A083208840F030
:1009A0000100208021884FF6F5300140A8886A892F
:1009B000104308432080A8892989084320817FBDEE
:1009C000EB88A3F53F46FF3E05D102EB4202B0FBA8
:1009D000F2F080B208E002EBC20303EB0212B0FBBC
:1009E000F2F080B240F48040020501D140F00100F5
:1009F0004FF4967251434FF47A72B1FBF2F140F426
:100A00000040C8E740420F00A0860100008AC0B243
:100A1000704712B141F0010101E001F0FE010182D5
:100A200070470182704700002DE9FF5F8B469A46B0
:100A3000914605460021FFF75CFF01212846FFF79C
:100A400058FF584C0220594E20710120A071E071CE
:100A500003206071544885420DD10121480500F002
:100A600033FB0121022000F023FB4FF44070206093
:100A70002146304628E04E4885427DD04D4885428B
:100A800024D10121C80500F01FFB0121084600F018
:100A90000FFB0121042000F00BFB474F042208212B
:100AA0003846FFF7F4FEDFF814810422092140469E
:100AB000FFF7EDFEA81520603A493846FFF796FE8D
:100AC0006815206037494046FFF790FE3C4800908B
:100AD0004FF48040ADF80C000020ADF80800ADF8F0
:100AE0000400ADF80A004BF6FF70ADF80600694649
:100AF0002846FFF731FF042208213046FFF7C7FEE2
:100B0000042209213046FFF7C2FE01230022594684
:100B1000284600F01BF918B1012004B0BDE8F09F91
:100B2000284600F069F9002375225946284600F04E
:100B3000ADF8682801D00220EFE701236B22594667
:100B4000284600F081F9B8B900231C2259462846EE
:100B500000F09CF800F0E70141EAC900C3B21C2292
:100B60005946284600F070F930B900231B22594637
:100B7000284600F08BF800E012E000F0E70141EABF
:100B8000CA00C3B21B225946284600F05DF938B9A5
:100B900005231A225946284600F056F90028BCD0F1
:100BA0000320BAE74C00002000540040000402403B
:100BB00000580040005C0040000002400008024075
:100BC000801A06002DE9F05F9946904644F62065AC
:100BD0008A4683462C46012300220A9F00F0B6F87D
:100BE000284E02E0641E24B29CB331465846FFF7FB
:100BF0009EFE08B9002CF5D141465846FFF711FF7B
:100C0000584600F0F9F801231A465146584600F0BC
:100C10009DF801215846FFF756FE0024DFF8688052
:100C20002CE0781E84422E461AD100215846FFF748
:100C30004AFE01215846FFF770FE02E0761E36B2EA
:100C40003EB141465846FFF748FE80B9002EF5D127
:100C50000DE002E0761E36B216B90120BDE8F09F25
:100C600041465846FFF739FE08B9002EF2D15846E2
:100C7000FFF7CCFE09F80400641CE4B2BC42D0D3F8
:100C80000020EBE780000010400003002DE9F04752
:100C90001E46904644F620650023894682462C462F
:100CA0001A4600F053F81E4F02E0641E24B264B3EB
:100CB00039465046FFF73BFE08B9002CF5D14146B6
:100CC0005046FFF7AEFE504600F096F80023012292
:100CD0004946504600F03AF826B101215046FFF748
:100CE000F2FD07E000215046FFF7EDFD01215046DF
:100CF000FFF713FE0B4C02E06D1E2DB22DB1214605
:100D00005046FFF7EAFD18B104E00120BDE8F08786
:100D1000002DF1D15046BDE8F047FFF777BE000047
:100D2000800000104000030030B585B00C46154629
:100D30000221009101AB47222946FFF743FFBDF88E
:100D4000040040BA608105B0002030BD2DE9F047B5
:100D500044F620651F461646894682462C464FF4C7
:100D6000003841465046FFF7E2FD0028F9D1012145
:100D70005046FFF7C8FDDFF8748002E0641E24B21D
:100D80006CB341465046FFF7A8FD08B9002CF5D1D9
:100D90001FB101211648FFF796FD324649465046DD
:100DA000FFF737FE16B1012E0DD01DE0114C02E009
:100DB0006D1E2DB29DB121465046FFF78EFD98B9AC
:100DC000002DF5D110E0094C641C02E06D1E2DB21F
:100DD0002DB121465046FFF780FD18B104E00120F7
:100DE000BDE8F087002DF1D10020F9E701000300F4
:100DF00000540040820007002DE9F041074644F608
:100E000020640121FFF789FD0E4E0E4D7C3E02E06D
:100E1000641E24B254B129463846FFF788FD40B11C
:100E200031463846FFF783FD18B104E00120BDE8E4
:100E3000F081002CECD101213846FFF76EFD002037
:100E4000F5E70000800000102DE9F04798461746AE
:100E500044F62065002381462C461A46FFF776FFAC
:100E60001A4E02E0641E24B2DCB131464846FFF758
:100E70005EFD08B9002CF5D139464846FFF7D1FD93
:100E8000134C48462146FFF728FD0028F9D002E020
:100E90006D1E2DB22DB131464846FFF748FD18B101
:100EA00004E00120BDE8F087002DF1D1414648461D
:100EB000FFF7B7FD21464846FFF70FFD0028F9D0A0
:100EC0004846FFF799FF0020ECE700008000001083
:100ED00084000700FEE7704770B50F21C4780278E0
:100EE00001234FF0E026E4B1124C246804F4E064DE
:100EF000C4F5E064C4F30724C4F10405E140447878
:100F0000AC4085780D4025430B4C290111550078E4
:100F100000F01F018B40400906EB8000C0F8003153
:100F200070BD02F01F008340500906EB8000C0F83E
:100F3000803170BD0CED00E000E400E0D0ED000A6F
:100F400090ED010AD0ED021A30EE801A31EE211A2E
:100F500080ED031AB8EE001A50EE010AC0ED040A43
:100F600080ED050A7047704710B572B60023284C13
:100F70003A22D0212046FFF789FEE0B3D02225494E
:100F80002046FFF7D1FE2348244B543800F140019E
:100F9000204ADFED231AD1EC020A1F4931EE600A24
:100FA00081ED000A10EE101A994200F13C01C1ECEB
:100FB000020A04DC10EE101A11F17F5F1CD9B2F99D
:100FC0000A1000EE101AB8EEC00A80EE212AB1EE27
:100FD000000A41EE000A9FED131A80ED112A90EDF0
:100FE000080A0C480C3830EE800AD0ED020A40EEB8
:100FF000010AC0ED020A09E0B2F90A1000EE101A67
:10100000B8EEC00AC0EE210AC0ED110A62B610BDEA
:1010100000540040A80000200000002000004040D4
:10102000681103436F12033A70B51E4D0221284622
:10103000FFF73DFC840004212846FFF738FC04EB51
:10104000400408212846FFF732FC2044C0B2164C69
:1010500000EB4005154E34F815004FF00101002853
:10106000304602D0FFF72CFC01E0FFF727FC04EB31
:1010700045044FF0020160880028304602D0FFF797
:101080001FFC01E0FFF71AFCA0884FF010010028B8
:10109000304603D0BDE87040FFF712BCBDE8704099
:1010A000FFF70CBC00000240F824000800080240D2
:1010B000044A0029116801D0014300E08143116016
:1010C0007047000030380240044A0029116801D0FE
:1010D000014300E081431160704700004038024046
:1010E000044A0029116801D0014300E081431160E6
:1010F000704700004438024070B5204A1168204C07
:1011000011F00C0104D06610042903D0082903D083
:1011100004601BE0066019E01849091F0B68C3F35F
:1011200080550B6803F03F0315B1B6FBF3F301E004
:10113000B4FBF3F30C680968C4F388146343C1F388
:101140000141491C4900B3FBF1F1016011680F2313
:1011500003EA11110B4B5C5C0168E14041601468CB
:10116000072505EA94241C5D21FA04F484601268C2
:1011700005EA52329A5CD140C16070BD0838024025
:101180000024F4003C000020704700000CB5002053
:101190002749019000900A6842F480320A604FF4B7
:1011A000A0430A6802F400320092019A521C019294
:1011B000009A12B9019A9A42F3D10A68920334D57F
:1011C000012000901A484030026842F080520260CC
:1011D0001848026842F4404202601548083002682C
:1011E0000260026842F400420260026842F4A052C7
:1011F0000260031F104A1A600A6842F080720A6097
:101200000A689201FCD50D4A40F20571116001682F
:1012100021F003010160016841F0020101600168F1
:10122000C1F381010229FAD10CBD00900CBD000070
:10123000003802400070004008544007003C024063
:10124000FFF792BE124810B5016841F470010160C9
:101250001048016841F0010101600E4A0021083286
:10126000116002680C4B1A400260031D0B4A1A60A1
:10127000026822F48022026006480C300160FFF709
:1012800085FF03494FF000608039086010BD000001
:1012900088ED00E000380240FFFFF6FE1030002429
:1012A00070B5048C24F001040484058B048C4FF683
:1012B000FF7606EA0313134325F0F3052B4324F0CE
:1012C0000A020A4342F001010383018470BDF0B5B4
:1012D000048C24F010040484078B068C4FF6FF74F2
:1012E00004EA011527F4734704EA0331394304EA99
:1012F00002220A4326F0A001294341F01001028393
:101300000184F0BD2DE9F04101218AB00846FFF7C4
:10131000E7FE01211020FFF7CBFE02258DF81850C3
:1013200000244FF428508DF81A400126DFF8E080A1
:1013300005908DF81B6003278DF8197005A94046AC
:10134000FFF754FA012209214046FFF7A0FA0122D3
:101350000B214046FFF79BFA01220D214046FFF783
:1013600096FAADF81C70ADF82440ADF81E4045F279
:101370000720284C089007A9204600F073FB702036
:10138000ADF800004FF47A700290ADF80260ADF84D
:101390000C506946204600F071FA6946204600F07C
:1013A000A3FA6946204600F0E9FA0122002120460E
:1013B00000F0BCF90821204600F090FA0122042137
:1013C000204600F0B3F90821204600F0CDFA0122B2
:1013D0000821204600F0AAF90821204600F00CFB65
:1013E00001221146204600F041FA00211920FFF7A2
:1013F000E8F90121204600F0A7F90121204600F07C
:101400008BF90121204600F0A9F90AB0BDE8F0816E
:10141000001002400000014070B5654D01212DED26
:10142000028B284600F0C0F900287DD0614800F00A
:10143000B9F9614C00EE900A94ED020AF8EEE00A68
:1014400084ED030A9FED5D1A60EE810AC4ED020A85
:1014500030EEC00ADFED5A0A5A4980EE208A18EEB3
:10146000100A884204DC18EE100A5749884201D954
:1014700094ED048A554E84ED048AF0EE480A96ED08
:10148000020A5348FFF74DF9BDEEC00A84ED050A84
:10149000B068FEF795FE41EC100B4EA053EC102BFC
:1014A00000F020FB18EE100AFEF78AFE41EC100B4C
:1014B00049A053EC102B00F015FB60690C2190FB48
:1014C000F1F010EB40004FF47A7160614DD540426D
:1014D0006061E069012809DA0120C4E90610A088EA
:1014E0006188A18060803EA000F0FCFAA06901281C
:1014F00047DA218860693C4E014489B221806288C4
:1015000002446280A2880244A280715C00EB400029
:101510004143284600F078FA6088315C606900EB4E
:1015200040004143284600E01EE000F06FFAA0882A
:10153000315C606900EB40004143284600F068FAE6
:1015400020884FF4FA61884202D9A0F5FA60208021
:101550006088884202D9A0F5FA606080A08888423D
:101560001DD9A0F5FA60A08019E0E0690028BDDD72
:101570000020C4E90610A0886188A18060801BA0BB
:10158000B2E7401EA0610021284600F03DFA00218C
:10159000284600F03BFA0021284600F039FABDEC5D
:1015A000028B2846BDE87040012100F0CAB8000057
:1015B0000000014000080040080000202EE34D3BE1
:1015C0006F12833A00007A4400007AC49C00002025
:1015D000B4000020256620002566200A00000000D7
:1015E0006469723D310000003B2500086469723D6A
:1015F0003000000070B5012188B00846FFF758FDA3
:1016000001210420FFF754FD01210846FFF75CFD8E
:1016100001258DF8045013208DF807500024009008
:101620008DF8064003268DF8056069463048FFF7BF
:10163000DDF80E20009002208DF804008DF8075090
:101640008DF806408DF805602A4E69463046FFF752
:10165000CDF8012211463046FFF719F90122022187
:101660003046FFF714F9012203213046FFF70FF946
:101670005320ADF814004CF2503006908606ADF8B9
:101680001640ADF81C4005A9304600F0EBF90420E7
:10169000ADF808000F20ADF810000A20ADF80A00E0
:1016A000ADF80E40ADF80C5002A9304600F088F8B5
:1016B0000820ADF8080002A9304600F081F80C209F
:1016C000ADF8080002A9304600F07AF801221C218A
:1016D000304600F0CBF800211C20FFF772F8012102
:1016E000304600F031F8FFF79FFC08B070BD0000F5
:1016F000000802400000024010B54FF080441C2159
:10170000204600F051F808B1FFF78EFC2046BDE8F6
:1017100010401C2100F015B80029018802D041F0CA
:10172000800101E021F080010180704710B50123A4
:10173000048C8B409C430484038C8A4013430384B1
:1017400010BDC943018270470029018802D041F0D1
:10175000010101E021F0010101807047002930F80A
:10176000441F02D041F4004101E0C1F30E010180A9
:10177000704770B50589048B068C25F007050D436D
:101780004FF6FC410C4040F201110C434FF6FF7143
:1017900001EA031126F02206114331430581048337
:1017A000018470BD406A704702460020138A928906
:1017B0000B4202EA010202D0002A00D00120704749
:1017C0002DE9F0410D460E884988AA882B890446E8
:1017D00016B3042E28D0082E268C4FF6FF702BD07F
:1017E00026F480562684A78B268C00EA022200EA83
:1017F000013127F473473A4300EA0330104326F4DB
:1018000020420A4342F48051A0832184E988204683
:10181000BDE8F04100F01AB9FFF742FDE988204623
:10182000BDE8F04100F0F6B8FFF751FDE988204629
:10183000BDE8F04100F0F6B826F480762684A78B48
:10184000268C00EA012100EA0310104327F0F30779
:10185000384326F420620A4342F48071A083218435
:10186000E9882046BDE8F04100F0E8B8002A828906
:1018700001D00A4300E08A438281704730B5028C70
:1018800022F001020284028C8388048B22F002027F
:1018900024F073050C882C438D8915434A882A430C
:1018A0000C4DA84202D00C4DA8420DD122F00805E3
:1018B000CA8923F440732A4322F004058A882A4304
:1018C0000D8A1D434B8A2B438380048389684163BF
:1018D000028430BD0000014000040140028B22F070
:1018E00008020A430283704770B5028C22F010028E
:1018F0000284028C8488038B0D8823F4E6464FF61D
:10190000FF7303EA052535438E8922F0200203EA9E
:10191000061616434A8803EA02123243104EB042BA
:1019200002D0104EB04215D122F08006CA8924F4AC
:10193000406403EA0212324322F040068A8803EA36
:10194000021232430E8A03EA860626434C8A03EAD1
:10195000840434438480058389688163028470BD74
:101960000000014000040140028B4FF6FF7322F497
:10197000006203EA012111430183704770B5028CB4
:1019800022F480720284028C8488838B0D8823F079
:1019900073031D4322F400738E894FF6FF7202EA2F
:1019A00006261E434B8802EA03233343104EB042FF
:1019B00002D0104EB04215D123F40066CB8924F436
:1019C000405402EA0323334323F480668B8802EAFF
:1019D000032333430E8A02EA061626434C8A02EAA0
:1019E00004143443848085838968C163038470BD93
:1019F0000000014000040140828B22F008020A43EB
:101A000082837047C162704741637047816370474A
:101A1000C1637047028B22F00C020283028B0A43DF
:101A200002837047028B22F440620283028B4FF6DE
:101A3000FF7303EA01210A4302837047828B22F07D
:101A40000C028283828B0A4382837047828B22F44A
:101A500040628283828B4FF6FF7303EA01210A43BF
:101A60008283704730B50288164B174C98420DD0D0
:101A7000A0420BD0B0F1804F08D0144DA84205D041
:101A8000134DA84202D0134DA84203D122F0700595
:101A90004A882A43104DA84206D0104DA84203D0D0
:101AA00022F440750A892A4302804A68C2620A8881
:101AB0000285984201D0A04201D1897A0186012194
:101AC000818230BD0000014000040140000400405C
:101AD00000080040000C00400010004000140040CE
:101AE000FEE700000FB4054B10B503A9044A0298A5
:101AF00000F0C6F810BC5DF814FB0000C923000814
:101B00000400002002E008C8121F08C1002AFAD110
:101B100070477047002001E001C1121F002AFBD16D
:101B2000704700002DE9FF5FDDE90220010DDDF8BF
:101B300038B0024310D10F9801244CA2012808D0DC
:101B4000002100980F9BC0E90021C0E90243BDE8D5
:101B5000FF9F6FEA0B01F4E7A1F2FF3144F610504A
:101B600041430D140F9801280ED0A5EB0B00401C2B
:101B70004FF000043E4EDFF8FC90B0F1000AA046A2
:101B800005DACAF1000717E0CBF10000F0E70746DD
:101B900012E0F80707D02246334640464946FEF792
:101BA00010FC804689462246334610461946FEF709
:101BB00008FC04460E467F10002FEAD1DDE9020141
:101BC000BAF1000F42464B4602DAFEF7FAFB01E09B
:101BD000FEF769FC04460E460022274BFEF7EAFC9E
:101BE00003D84FF0FF30014607E00022234B204688
:101BF0003146FEF73FFBFEF7C5FC102409E0002C40
:101C00000ADB0A220023FEF704FB019B30321A553F
:101C1000641E50EA0102F2D1641C019AC4F111035E
:101C200014440F9A012A09D00122084301D15B45CF
:101C30000FDD4FF0000205F101050DE0084303D16F
:101C4000A3EB0B056D1E09E000204FF0110B0F9068
:101C500088E701DA00226D1E002A83D000980F99D0
:101C6000C0E90231C0E9004571E700003000000022
:101C7000000024400000F03F0000F0430000E03F7F
:101C80002DE9FF4F95B09B4689460646002512E296
:101C9000252878D10024761CF94A2746012105948D
:101CA0003378203B01FA03F0104202D00443761C43
:101CB000F6E730782A2811D06FF02F033078A0F1A2
:101CC0003002092A16D8059A44F0020402EB820277
:101CD00003EB42021044761C0590EFE759F8042B01
:101CE0000592002A03DA504244F40054059044F06F
:101CF0000204761C30782E2816D116F8010F44F015
:101D000004042A280DD06FF02F023078A0F13003A0
:101D1000092B09D807EB870302EB4303C718761C8E
:101D2000F3E759F8047B761C30786C280FD006DC7A
:101D30004C2817D068280DD06A2814D104E07428E4
:101D400010D07A280FD10DE044F400140AE044F4D6
:101D5000801401E044F440147278824202D1761C6F
:101D600004F58014761C307866280BD013DC5828D4
:101D700077D009DC002875D04528F6D04628F4D065
:101D800047281AD19FE118E0632835D0642879D01C
:101D9000652812D197E1702873D008DC6728F1D04C
:101DA00069286FD06E280DD06F2806D1B5E0732852
:101DB0002CD0752875D0782874D05A46179990473A
:101DC0006D1C76E1C4F30250022809D003280DD01F
:101DD000D9F8001004280DD00D6009F1040968E15C
:101DE000D9F80010EA17C1E90052F6E7D9F8001057
:101DF0000D80F2E70D70F0E719F8041B8DF8001064
:101E000000208DF80100EA46012003E059F804ABF8
:101E10004FF0FF3061074FF0000102D40DE008F1F0
:101E200001018846B9420FDA8045F8DB1AF808103C
:101E30000029F4D108E008F1010188468142FADB6B
:101E40001AF808100029F6D105985B46A0EB0807A0
:101E500021463846179A00F09EFA284400EB080500
:101E600007E04DE02BE10DE01AF8010B5A461799F7
:101E70009047B8F10108F7D25B4621463846179AD9
:101E800014E142E00A220092C4F302524FF0000A29
:101E9000022A08D059F804CB032A4FEAEC710AD081
:101EA0000DE029E02AE009F1070121F00702F2E83C
:101EB00002C1914609E00FFA8CFC4FEAEC71042A4A
:101EC00003D14FFA8CFC4FEAEC71002907DA0A467D
:101ED0000021DCF1000C61EB02012D2202E0220561
:101EE00004D52B228DF80420012203E0E20701D063
:101EF0002022F7E7904653E00A2102E010220DE08D
:101F000010214FF0000A00910BE010224FF0000A60
:101F100044F004040827009203E008224FF0000A6E
:101F20000092C4F30252022A05D059F804CB0021D2
:101F3000032A08D009E009F1070121F00702F2E8BD
:101F400002C1914605E01FFA8CFC042A01D10CF075
:101F5000FF0C4FF00008220722D5702827D0009BE5
:101F600083F0100353EA0A0309D15CEA010206D0A8
:101F700030228DF804208DF8050002229046009B47
:101F800083F0080353EA0A030AD15CEA010201D193
:101F9000620705D530228DF804204FF001087F1E1E
:101FA000582809D037A003900EA8029013E04022D1
:101FB0008DF804200122E1E737A0F4E7534660469C
:101FC000009AFEF726F984460398825C0298A0F1F5
:101FD0000100029002705CEA0100EFD1029806A9AC
:101FE000A1EB000000F1200A600702D524F4803440
:101FF00000E00127574502DDA7EB0A0000E00020C2
:1020000000EB0A01009005984144A0EB0100059007
:10201000E00306D45B462146179A059800F0BBF909
:102020000544002706E001A85A46C05D179990476D
:102030006D1C7F1C4745F6DBE0030CD55B46214653
:10204000179A059800F0A7F9054404E030205A4695
:10205000179990476D1C0099481E00900029F5DCE7
:1020600008E0029802995A460078491C0291179993
:1020700090476D1CBAF10001AAF1010AF1DC6BE195
:10208000092801003031323334353637383961624E
:102090006364656600000000303132333435363712
:1020A00038394142434445460000000000F060F9E1
:1020B000054406F10106307800287FF4E9AD19B037
:1020C0002846BDE8F08F620700D4062709F1070211
:1020D00022F0070CFCE80223E14603F000485FEA27
:1020E000080C02D00FF27C2C0DE05FEA045C02D5F4
:1020F0000FF2742C07E05FEAC47C02D00FF26C2C64
:1021000001E0AFF2700C4FF0FF3823F00043CDF840
:1021100050C065280CD006DC452809D046281DD0C3
:1021200047283ED13EE0662818D0672839D139E0EB
:102130000021112F01DB112000E0781CCDE9000106
:1021400006A90EA8FFF7EEFCDDE90F010E9A039138
:102150000021009207F1010A04914EE04FF0004087
:102160000097CDE9011006A90EA8FFF7DBFCDDE919
:102170000F0203920E9B11990022DDF80CA0009330
:10218000049219B907F1010100EB010AB7EB0A004B
:1021900004D4C0F1FF3007F1010A0490AAEB070054
:1021A000019046E0012F00DA01270021112F01DD07
:1021B000112000E03846CDE9000106A90EA8FFF77E
:1021C000B1FCDDE90F010E9A039100210491009208
:1021D000BA4621070CD40399514500DA8A46BAF170
:1021E000010F05DD009AAAF10101515C302908D0E8
:1021F000B84202DA10F1040F06DA0121CDE901102C
:1022000017E0AAF10101E9E7002805DC049901447F
:102210000491AAEB000102E0411C514500DD8A4611
:102220000499A0EB010000F1010001904FF0004083
:102230000290200704D40198504501DBCDF80480BA
:1022400000208DF84F0002980DF14F07B0F1004FBC
:1022500025D02B200E9002984FF0020800280CDAAF
:10226000404202902D200E9007E00A210298FDF7CF
:10227000BAFF3031029007F8011DB8F10001A8F152
:102280000108F2DC02980028EFD1791E0E98087040
:10229000307800F0200040F0450007F8020D12A849
:1022A000A0EB070000F107081498007800B10120A6
:1022B00000EB0A01019801EBE07105984144A0EBA5
:1022C0000100A0F101000590E00306D45B46214621
:1022D000179A059800F05FF805441498007820B12B
:1022E0005A461799904705F10105E00323D55B464F
:1022F0002146179A059800F04EF805441BE0049813
:10230000002807DBDDE90301884203DD0098405C1B
:10231000179901E0179930205A46904704986D1C90
:10232000401C04900198401E019004D12E205A4672
:10233000179990476D1CBAF10001AAF1010ADEDC81
:1023400005E017F8010B5A46179990476D1CB8F134
:102350000001A8F10108F4DC5B462146179A0598B4
:10236000A4E600002D0000002B000000200000006B
:102370002DE9F041044600251E461746880405D481
:1023800006E039462020B04705F10105641EF8D566
:102390002846BDE8F0812DE9F041044600251E469F
:1023A0009046C80301D5302700E02027880405D5D2
:1023B00006E041463846B04705F10105641EF8D5F0
:1023C0002846BDE8F081000005490968C90105D526
:1023D0004FF060410A68002AFCD008707047000086
:1023E000FCED00E01CB536A0FFF77CFB39489FED03
:1023F000380A80ED010A9FED380A80ED020A9FED50
:10240000370A80ED000A80ED060AB3EE040A80ED7B
:10241000080A9FED330A80ED070AFEF78FFDD021F1
:10242000002308222F48FEF7FFFA08B1FEF7D8F97B
:102430002D484FF47A7100240068B0FBF1F0401E83
:10244000B0F1807F08D24FF0E0214861274AF020A8
:1024500010708C6107200861FEF754FFFFF7CAF87F
:1024600001210220FEF724FE01210420FEF72CFEAC
:10247000C020009002208DF804008DF807401C4C0D
:1024800069462046FEF7B2F9022206212046FEF7F1
:10249000FEF9022207212046FEF7F9F9154C002328
:1024A0001A4603212046FFF764F94FF4FA612046EB
:1024B000FFF7A8FA01212046FFF746F9FEE70000E2
:1024C00048656C6C6F20576F726C640A00000000E6
:1024D00000000000B40000203480373A6F12833AC5
:1024E00000002043005400402800002023ED00E0BD
:1024F000000402400008004000000000000000004E
:1025000001000100010001000000010000000100C5
:1025100001000000010001000100000000000100B6
:102520000100000000000000437269746963616C7F
:10253000204661696C757265200A00000101010284
:102540000202030303030404040505050606060747
:102550000707080808080909090A0A0A0B0B0B0CE7
:102560000C0C0D0D0D0D0E0E0E0F0F0F1010101187
:102570001111121212121313131414141515151627
:10258000161616171717181818191919191A1A1ACA
:102590001B1B1B1C1C1C1D1D1D1D1E1E1E1F1F1F6B
:1025A0001F20202021212122222222232323242410
:1025B00024252525252626262727272728282829B4
:1025C0002929292A2A2A2B2B2B2B2C2C2C2D2D2D5B
:1025D0002D2E2E2E2F2F2F2F303030303131313203
:1025E00032323233333333343434353535353636AD
:1025F000363637373737383838383939393A3A3A5A
:102600003A3B3B3B3B3C3C3C3C3D3D3D3D3E3E3E06
:102610003E3F3F3F3F4040404040414141414242B8
:10262000424243434343444444444445454545466C
:102630004646464647474747484848484849494923
:10264000494A4A4A4A4A4B4B4B4B4B4C4C4C4C4CDC
:102650004D4D4D4D4D4E4E4E4E4E4F4F4F4F4F5098
:102660005050505051515151515152525252525357
:10267000535353535354545454545455555555551A
:1026800055565656565656575757575757575858E0
:1026900058585858595959595959595A5A5A5A5AA9
:1026A0005A5A5A5B5B5B5B5B5B5B5C5C5C5C5C5C77
:1026B0005C5C5D5D5D5D5D5D5D5D5D5E5E5E5E5E47
:1026C0005E5E5E5E5F5F5F5F5F5F5F5F5F5F5F601D
:1026D00060606060606060606060616161616161F4
:1026E00061616161616161626262626262626262D1
:1026F00062626262626262636363636363636363B1
:102700006363636363636363636363636363636498
:102710006464646464646464646464646464646479
:102720006464646464646464646464646464646469
:102730006464646464646464646464646464646459
:10274000646464646464646464646464646463634B
:102750006363636363636363636363636363636349
:102760006363636363636262626262626262626243
:102770006262626262626161616161616161616143
:1027800061616160606060606060606060605F5F48
:102790005F5F5F5F5F5F5F5F5F5E5E5E5E5E5E5E50
:1027A0005E5E5D5D5D5D5D5D5D5D5D5C5C5C5C5C5C
:1027B0005C5C5C5B5B5B5B5B5B5B5A5A5A5A5A5A6C
:1027C0005A5A59595959595959585858585858577F
:1027D0005757575757575656565656565555555597
:1027E00055555454545454545353535353535252B1
:1027F00052525251515151515150505050504F4FCF
:102800004F4F4F4E4E4E4E4E4D4D4D4D4D4C4C4CF0
:102810004C4C4B4B4B4B4B4A4A4A4A4A4949494913
:10282000484848484847474747464646464645453C
:102830004545444444444443434343424242424165
:1028400041414140404040403F3F3F3F3E3E3E3E91
:102850003D3D3D3D3C3C3C3C3B3B3B3B3A3A3A3AC0
:1028600039393938383838373737373636363635F4
:102870003535353434343333333332323232313127
:1028800031303030302F2F2F2F2E2E2E2D2D2D2D5D
:102890002C2C2C2B2B2B2B2A2A2A29292929282896
:1028A00028272727272626262525252524242423CF
:1028B0002323222222222121212020201F1F1F1F0B
:1028C0001E1E1E1D1D1D1D1C1C1C1B1B1B1A1A1A47
:1028D0001919191918181817171716161616151585
:1028E00015141414131313121212121111111010C3
:1028F000100F0F0F0E0E0E0D0D0D0D0C0C0C0B0B03
:102900000B0A0A0A09090908080808070707060642
:102910000605050504040403030303020202010182
:1029200001000000000000000000000000000000A6
:102930000000000000000000000000000000000097
:102940000000000000000000000000000000000087
:102950000000000000000000000000000000000077
:102960000000000000000000000000000000000067
:102D00000000000000000000000000002C2D000862
:102D10000000002054000000041B0008802D000863
:102D2000540000209C040000141B00080000000058
:102D30000000000000009B023505000000000000BC
:102D40000000000000000000000000000000000083
:102D500000000000007A030A0000000000000000EC
:102D60000102030406070809000000000102030431
:102D7000010203040607080900000000000000002B
:040000050800018965
:00000001FF
