:020000040800F2
:10000000900400209D01000837060008EF02000858
:100010003506000811020008650E00080000000007
:10002000000000000000000000000000550800086B
:100030001302000800000000A10600080D090008D6
:10004000B7010008B7010008B7010008B7010008B0
:10005000B7010008B701000815020008B701000841
:10006000B7010008B7010008B7010008B701000890
:10007000B7010008B7010008B7010008B701000880
:10008000B7010008B7010008B7010008B701000870
:10009000B7010008B7010008B7010008B701000860
:1000A000B7010008B7010008B7010008D10900082E
:1000B000910B0008B7010008B7010008B70100085C
:1000C000B7010008B7010008B7010008B701000830
:1000D000B7010008B7010008B7010008B701000820
:1000E000B7010008B70100089F060008B701000823
:1000F000B7010008B7010008B7010008B701000800
:10010000B7010008B7010008B7010008B7010008EF
:10011000B7010008B7010008B7010008450C000846
:10012000B7010008B7010008B7010008B7010008CF
:10013000B7010008B7010008B7010008B7010008BF
:10014000B7010008B7010008B70100089D060008C4
:10015000B7010008B7010008B7010008B70100089F
:10016000B7010008B7010008B7010008B70100088F
:10017000B7010008B7010008B7010008B70100087F
:10018000B7010008B7010008DFF80CD000F02EF826
:1001900000480047191000089004002006488047D6
:1001A00006480047FEE7FEE7FEE7FEE7FEE7FEE75C
:1001B000FEE7FEE7FEE7FEE71109000889010008F7
:1001C00030B50B46014600202022012409E021FA27
:1001D00002F59D4205D303FA02F5491B04FA02F524
:1001E0002844151EA2F10102F1DC30BD064C074D7A
:1001F00006E0E06840F0010394E8070098471034F7
:10020000AC42F6D3FFF7C4FF4C1400086C1400088E
:10021000FEE770477047F0B50023012403270D68FF
:1002200004FA03F21540954242D1D0F800C05E00B6
:1002300007FA06F52CEA050CC0F800C091F804C0D6
:10024000D0F800E00CFA06FC4CEA0E0CC0F800C036
:1002500091F804C0BCF1010F02D0BCF1020F1FD114
:10026000D0F808C02CEA050CC0F808C091F805C009
:10027000D0F808E00CFA06FC4CEA0E0CC0F808C0F6
:10028000D0F804C02CEA020CC0F804C0426891F80F
:1002900006C00CFA03FC1FFA8CFC42EA0C02426016
:1002A000C268AA43C260CA79C568B2402A43C26024
:1002B0005B1C102BB3D3F0BD4B07DB0E9A40C90873
:1002C00010B500EB8100016A0F249C40A14301623C
:1002D000016A1143016210BD0246002012690A4200
:1002E00000D0012070474183704701837047FEE7CB
:1002F0000029018802D041F4806101E021F480618D
:100300000180704702460020938A128B43EA024321
:1003100023F07F42914300D10120704700290188DA
:1003200002D041F4807101E021F4807101807047B6
:100330000029018802D041F4007101E021F400712C
:10034000018070470CB50246002000920A0F21F090
:100350007F41019202D0009A143202E0009A090C07
:100360001832009212680A4200D001200CBD008AA7
:10037000C0B2704712B141F0010101E001F0FE018D
:1003800001827047018270472DE9F05F99469046DF
:1003900044F620658A4683462C46012300220A9FA4
:1003A00000F0CAF8284E02E0641E24B29CB3314625
:1003B0005846FFF7C7FF08B9002CF5D1414658460B
:1003C000FFF7E0FF584600F00DF901231A465146A9
:1003D000584600F0B1F801215846FFF789FF002484
:1003E000DFF868802CE0781E84422E461AD1002166
:1003F0005846FFF77DFF01215846FFF799FF02E0BD
:10040000761E36B23EB141465846FFF77BFF80B9B3
:10041000002EF5D10DE002E0761E36B216B90120AD
:10042000BDE8F09F41465846FFF76CFF08B9002E23
:10043000F2D15846FFF79BFF09F80400641CE4B2B0
:10044000BC42D0D30020EBE7800000104000030046
:100450002DE9F0471E46904644F620650023894664
:1004600082462C461A4600F067F81E4F02E0641ED2
:1004700024B264B339465046FFF764FF08B9002C34
:10048000F5D141465046FFF77DFF504600F0AAF8EF
:10049000002301224946504600F04EF826B10121C2
:1004A0005046FFF725FF07E000215046FFF720FFE9
:1004B00001215046FFF73CFF0B4C02E06D1E2DB2B0
:1004C0002DB121465046FFF71DFF18B104E0012071
:1004D000BDE8F087002DF1D15046BDE8F047FFF7A9
:1004E00046BF0000800000104000030030B585B01A
:1004F0000C4615460E21009101AB3B222946FFF721
:1005000043FFBDF8040040BA2080BDF8060040BAA1
:100510006080BDF8080040BAA080BDF80C0040BA69
:10052000E080BDF80E0040BA2081BDF8100040BA4E
:10053000608105B0002030BD2DE9F04744F620650C
:100540001F461646894682462C464FF400384146DF
:100550005046FFF7F7FE0028F9D101215046FFF77A
:10056000DDFEDFF8748002E0641E24B26CB3414605
:100570005046FFF7C7FE08B9002CF5D11FB1012185
:100580001648FFF7B5FE324649465046FFF7F2FEE1
:1005900016B1012E0DD01DE0114C02E06D1E2DB2E2
:1005A0009DB121465046FFF7ADFE98B9002DF5D11B
:1005B00010E0094C641C02E06D1E2DB22DB12146E5
:1005C0005046FFF79FFE18B104E00120BDE8F08718
:1005D000002DF1D10020F9E7010003000054004094
:1005E000820007002DE9F041074644F6206401210E
:1005F000FFF79EFE0E4E0E4D7C3E02E0641E24B2BE
:1006000054B129463846FFF79DFE40B13146384681
:10061000FFF798FE18B104E00120BDE8F081002C3E
:10062000ECD101213846FFF783FE0020F5E70000FA
:1006300080000010FEE7704770B50F21C478027883
:1006400001234FF0E026E4B1124C246804F4E06486
:10065000C4F5E064C4F30724C4F10405E140447820
:10066000AC4085780D4025430B4C2901115500788D
:1006700000F01F018B40400906EB8000C0F80031FC
:1006800070BD02F01F008340500906EB8000C0F8E7
:10069000803170BD0CED00E000E400E07047704771
:1006A0007047000070B572B60023584D3A22D02131
:1006B0002846FFF7CDFE00287DD0554C002100BF15
:1006C00001EB410004EB8000491C90ED010AC9B226
:1006D00080ED000A90ED020A062980ED010AEFD3B1
:1006E0004B4A002112F1480201EB410002EB80006D
:1006F000491C90ED010AC9B280ED000A90ED020A92
:10070000032980ED010AEFD34149D02278312846F0
:10071000FFF7ECFE3E48DFED3F0A7830B0F90010FD
:1007200000EE101AB8EEC01A81EE200A84ED020A1B
:10073000B0F9021001EE101AB8EEC11AC1EE201A7B
:10074000C4ED051AB0F9041001EE101AB8EEC11A82
:10075000C1EE201AC4ED081AB0F9061000EE901A86
:10076000B8EEE01ADFED2C0A81EE202A84ED0B2A88
:10077000B0F9081001EE101AB8EEC11A81EE202A65
:1007800084ED0E2AB0F90A0001EE100A2048B8EEF6
:10079000C11A6C3081EE202AF1EE000A84ED112A94
:1007A00094ED091A94ED0A2AD0ED002A02EE201ADF
:1007B00031EE002A00E021E09FED181A04F130012B
:1007C00042EE012AC0ED002A91EC022A02EEA02A94
:1007D00032EE000A90ED012A00EE012A80ED012A96
:1007E00094ED0F0A94ED102A02EE200AD0ED020AD1
:1007F00030EE210A40EE010AC0ED020A62B6012184
:10080000BDE87040064800F031BA000000540040D6
:100810000C00002000FEFF45681103436F12033AED
:1008200000140040044A0029116801D0014300E08F
:10083000814311607047000030380240044A0029AB
:10084000116801D0014300E081431160704700004E
:1008500040380240704700000CB500202749019045
:1008600000900A6842F480320A604FF4A0430A689C
:1008700002F400320092019A521C0192009A12B9BD
:10088000019A9A42F3D10A68920334D5012000906C
:100890001A484030026842F08052026018480268EC
:1008A00042F4404202601548083002680260026863
:1008B00042F400420260026842F4A0520260031F48
:1008C000104A1A600A6842F080720A600A6892014F
:1008D000FCD50D4A40F205711160016821F0030159
:1008E0000160016841F0020101600168C1F381010A
:1008F0000229FAD10CBD00900CBD00000038024066
:100900000070004008544007003C0240704700005F
:10091000124810B5016841F4700101601048016887
:1009200041F0010101600E4A0021083211600268A5
:100930000C4B1A400260031D0B4A1A60026822F435
:100940008022026006480C300160FFF785FF0349F2
:100950004FF000608039086010BD000088ED00E0B5
:1009600000380240FFFFF6FE1030002470B5048C02
:1009700024F001040484058B048C4FF6FF7606EA0C
:100980000313134325F0F3052B4324F00A020A4313
:1009900042F001010383018470BDF0B5048C24F0A2
:1009A00010040484078B068C4FF6FF7404EA0115CB
:1009B00027F4734704EA0331394304EA02220A4365
:1009C00026F0A001294341F0100102830184F0BD0B
:1009D0002DE9F041DFF8A4800221404600F053F9F0
:1009E000B8B3274C4FF4FA6677102088254D401C89
:1009F00080B220806188491C6180A188491CA18047
:100A0000B04203D9A0F5FA6020800AE0B84201D9CB
:100A1000002103E0285CD22110FB01F1404600F0E8
:100A2000B4F96088B04203D9A0F5FA6060800AE0AA
:100A3000B84201D9002103E0285CD22110FB01F16A
:100A4000404600F0A4F9A088B04203D9A0F5FA60AE
:100A5000A0800DE0B84204D90021404600F097F98B
:100A600006E0285CD22110FB01F1404600F091F92C
:100A70004046BDE8F041022100F0F8B80000014016
:100A80000400002064100008F0B5012189B0084678
:100A9000FFF7C8FE01210420FFF7C4FE012108462C
:100AA000FFF7CCFE01258DF8045013208DF8075078
:100AB000002400908DF8064003268DF805606946F5
:100AC0003148FFF7A8FB0E20009002208DF80400AB
:100AD0008DF807502D4F8DF806408DF8056069465A
:100AE0003846FFF798FB012211463846FFF7E4FB32
:100AF000012202213846FFF7DFFB0122032138469D
:100B0000FFF7DAFB5320ADF814004CF2503006909A
:100B10008706ADF81640ADF81C4005A9384600F030
:100B200063F90121384600F018F94021384600F0F9
:100B30001EF90421384600F020F9ADF808400A20DB
:100B4000ADF80A00ADF80E40ADF81040ADF80C60FD
:100B500002A9384600F0A3F81C208DF820008DF87B
:100B600021408DF822408DF8235008A8FFF764FD3E
:100B700001224021384600F0E8F80121384600F013
:100B800078F809B0F0BD0000000802400000024003
:100B90002DE9F04140210E06304600F074F898B37C
:100BA000234C02212046FFF797FB850004212046B5
:100BB000FFF792FB05EB400508212046FFF78CFB71
:100BC0002844C4B2092C00D90024214619A000F001
:100BD0004BF904EB4405194C194F4FF0010134F85F
:100BE00015000028384602D0FFF77FFB01E0FFF731
:100BF0007AFB04EB45044FF0020160880028384678
:100C000003D0FFF772FB02E00CE0FFF76CFBA0885B
:100C10004FF010010028384602D0FFF766FB01E0D4
:100C2000FFF761FB3046BDE8F041402100F01EB8FF
:100C3000000002402564200A000000003410000873
:100C40000008024010B5084C0121204600F01BF8B6
:100C500018B1BDE81040FFF725BD2046BDE81040A3
:100C6000012100F003B8000000140040C9430182D4
:100C700070470029018802D041F0010101E021F014
:100C800001010180704702460020138A92890B42BD
:100C900002EA010202D0002A00D0012070472DE9AB
:100CA000F0410D460E884988AA882B89044616B360
:100CB000042E28D0082E268C4FF6FF702BD026F459
:100CC00080562684A78B268C00EA022200EA013196
:100CD00027F473473A4300EA0330104326F42042D6
:100CE0000A4342F48051A0832184E9882046BDE86C
:100CF000F04100F06CB8FFF739FEE9882046BDE806
:100D0000F04100F048B8FFF748FEE9882046BDE80A
:100D1000F04100F048B826F480762684A78B268C14
:100D200000EA012100EA0310104327F0F3073843DB
:100D300026F420620A4342F48071A0832184E9886A
:100D40002046BDE8F04100F03AB8002A828901D07F
:100D50000A4300E08A43828170470029818802D0DB
:100D600041F0800101E021F080018180704702891B
:100D700022F070020A4302817047028922F00702C2
:100D8000028102890A43028170474163704781638F
:100D90007047C1637047028B22F00C020283028B02
:100DA0000A4302837047028B22F440620283028B63
:100DB0004FF6FF7303EA01210A4302837047828BD7
:100DC00022F00C028283828B0A4382837047828BDB
:100DD00022F440628283828B4FF6FF7303EA012183
:100DE0000A4382837047000030B50288164B174CC7
:100DF00098420DD0A0420BD0B0F1804F08D0144DD6
:100E0000A84205D0134DA84202D0134DA84203D1E9
:100E100022F070054A882A43104DA84206D0104D92
:100E2000A84203D022F440750A892A4302804A6806
:100E3000C2620A880285984201D0A04201D1897A13
:100E400001860121818230BD000001400004014083
:100E50000004004000080040000C0040001000406A
:100E600000140040FEE700000FB4054B10B503A9C5
:100E7000044A029800F018F810BC5DF814FB00005A
:100E8000FD0F00080000002002E008C8121F08C182
:100E9000002AFAD170477047002001E001C1121FFB
:100EA000002AFBD1704700002DE9FF4F89B09B4617
:100EB0000446002597E0252833D10027641C4E49BD
:100EC000B84601222378203B02FA03F0084202D000
:100ED0000743641CF6E720782E2819D114F8010F77
:100EE00047F004072A280ED06FF02F022078A0F1D7
:100EF000300109290CD808EB880102EB410100EB15
:100F00000108641CF2E70A98641C50F8048B0A90EC
:100F1000207800286BD0642808D0692806D075286E
:100F200020D05A460B9990476D1C5BE00A994FF010
:100F30000A0901C90A91002804DAC0F100004FF043
:100F40002D0102E0390504D52B218DF82010012157
:100F500003E0F90704D02021F7E78A4608AE0EE047
:100F60000021FAE70A994FF00A0901C90A91F7E747
:100F70004946FFF725F901F1300106F8011D002867
:100F8000F6D1ADEB060000F12009780701D44FF04F
:100F90000108C84502DDA8EB090000E000208046FA
:100FA000002706E008A85A46C05D0B9990476D1CC3
:100FB0007F1C5745F6DB04E030205A460B999047DA
:100FC0006D1CB8F10001A8F10108F5DC05E016F888
:100FD000010B5A460B9990476D1CB9F10001A9F11C
:100FE0000109F4DC641C207800287FF464AF0DB0A4
:100FF0002846BDE8F08F000009280100054909686E
:10100000C90105D54FF060410A68002AFCD008707C
:1010100070470000FCED00E002A0FFF725FFFFF79E
:1010200033FDFEE748656C6C6F20576F726C640A85
:1010300000000000000000000000000001000100AE
:10104000010001000000010000000100010000009B
:10105000010001000100000000000100010000008B
:101060000000000000010101020202030303030467
:101070000404050505060606070707080808080909
:1010800009090A0A0A0B0B0B0C0C0C0D0D0D0D0EA9
:101090000E0E0F0F0F101010111111121212121349
:1010A00013131414141515151616161617171718EA
:1010B0001818191919191A1A1A1B1B1B1C1C1C1D8C
:1010C0001D1D1D1E1E1E1F1F1F1F20202021212130
:1010D00022222222232323242424252525252626D3
:1010E0002627272727282828292929292A2A2A2B79
:1010F0002B2B2B2C2C2C2D2D2D2D2E2E2E2F2F2F20
:101100002F303030303131313232323233333333C9
:101110003434343535353536363636373737373873
:101120003838383939393A3A3A3A3B3B3B3B3C3C20
:101130003C3C3D3D3D3D3E3E3E3E3F3F3F3F4040CF
:101140004040404141414142424242434343434483
:101150004444444445454545464646464647474738
:10116000474848484848494949494A4A4A4A4A4BEF
:101170004B4B4B4B4C4C4C4C4C4D4D4D4D4D4E4EAA
:101180004E4E4E4F4F4F4F4F505050505051515167
:101190005151515252525252535353535353545428
:1011A00054545454555555555555565656565656ED
:1011B00057575757575757585858585858595959B3
:1011C000595959595A5A5A5A5A5A5A5A5B5B5B5B7F
:1011D0005B5B5B5C5C5C5C5C5C5C5C5D5D5D5D5D4D
:1011E0005D5D5D5D5E5E5E5E5E5E5E5E5E5F5F5F20
:1011F0005F5F5F5F5F5F5F5F6060606060606060F7
:1012000060606061616161616161616161616161D1
:1012100062626262626262626262626262626262AE
:10122000636363636363636363636363636363638E
:101230006363636363636363646464646464646476
:10124000646464646464646464646464646464645E
:10125000646464646464646464646464646464644E
:10126000646464646464646464646464646464643E
:101270006464646464646463636363636363636337
:10128000636363636363636363636363636363622F
:10129000626262626262626262626262626262612F
:1012A0006161616161616161616161616060606032
:1012B000606060606060605F5F5F5F5F5F5F5F5F37
:1012C0005F5F5E5E5E5E5E5E5E5E5E5D5D5D5D5D41
:1012D0005D5D5D5D5C5C5C5C5C5C5C5C5B5B5B5B4E
:1012E0005B5B5B5A5A5A5A5A5A5A5A595959595960
:1012F0005959585858585858575757575757575675
:10130000565656565655555555555554545454548D
:1013100054535353535353525252525251515151A9
:10132000515150505050504F4F4F4F4F4E4E4E4EC8
:101330004E4D4D4D4D4D4C4C4C4C4C4B4B4B4B4BEB
:101340004A4A4A4A4A494949494848484848474711
:101350004747464646464645454545444444444439
:101360004343434342424242414141414040404065
:10137000403F3F3F3F3E3E3E3E3D3D3D3D3C3C3C91
:101380003C3B3B3B3B3A3A3A3A39393938383838C2
:1013900037373737363636363535353534343433F6
:1013A00033333332323232313131303030302F2F2B
:1013B0002F2F2E2E2E2D2D2D2D2C2C2C2B2B2B2B61
:1013C0002A2A2A292929292828282727272726269B
:1013D00026252525252424242323232222222221D5
:1013E00021212020201F1F1F1F1E1E1E1D1D1D1D11
:1013F0001C1C1C1B1B1B1A1A1A191919191818184E
:10140000171717161616161515151414141313138B
:10141000121212121111111010100F0F0F0E0E0ECA
:101420000D0D0D0D0C0C0C0B0B0B0A0A0A0909090A
:10143000080808080707070606060505050404044A
:101440000303030302020201010100006C140008FF
:10145000000000200C000000880E0008781400082E
:101460000C00002084040000980E0008000000001A
:0814700000009B02350500009D
:040000050800018965
:00000001FF
