:020000040800F2
:10000000F00400209D010008C3090008B1030008A6
:10001000C109000809020008651500080000000079
:10002000000000000000000000000000C50B0008F8
:10003000AF020008000000002B0A00087D0C000839
:10004000B7010008B7010008B7010008B7010008B0
:10005000B7010008B7010008B7010008B7010008A0
:10006000B7010008B7010008B7010008B701000890
:10007000B7010008B7010008B7010008B701000880
:10008000B7010008B7010008B7010008B701000870
:10009000B7010008B7010008B7010008B701000860
:1000A000B7010008550E0008B7010008B7010008A5
:1000B000FD100008B7010008B7010008B7010008EB
:1000C000B7010008B7010008B7010008B701000830
:1000D000B7010008B7010008B7010008B701000820
:1000E000B7010008B7010008B7010008B701000810
:1000F000B7010008B7010008B7010008B701000800
:10010000B7010008B7010008B7010008B7010008EF
:10011000B7010008B7010008B7010008B7010008DF
:10012000B7010008B7010008B7010008B7010008CF
:10013000B7010008B7010008B7010008B7010008BF
:10014000B7010008B7010008B7010008B7010008AF
:10015000B7010008B7010008B7010008B70100089F
:10016000B7010008B7010008B7010008B70100088F
:10017000B7010008B7010008B7010008B70100087F
:10018000B7010008B7010008DFF80CD000F02AF82A
:1001900000480047D5150008F004002006488047B5
:1001A00006480047FEE7FEE7FEE7FEE7FEE7FEE75C
:1001B000FEE7FEE7FEE7FEE7810C00088901000884
:1001C00040EA01039B0703D009E008C9121F08C0D9
:1001D000042AFAD203E011F8013B00F8013B521E59
:1001E000F9D27047064C074D06E0E06840F0010385
:1001F00094E8070098471034AC42F6D3FFF7C8FFE5
:10020000141F0008341F0008FEE70FB42DED020B89
:100210000CA8DDED0F0ADDED051A9DED0B1A9DED25
:10022000062ADDED0D2A41EE810ADDED0C1A42EEC3
:10023000210A9DED072A42EE220A9DED0E2A8DED40
:100240000F2ACDED0E0AF5EEC00A8DED0B0AF1EE88
:1002500010FA80EC021A02D24FF0FF3000E00120C9
:1002600000EE100AB8EEC00A20EE801A9DED0A0AD0
:10027000B4EEC01AF1EE10FA10D900EE100AB8EE82
:10028000C00A60EE800A9DED090AF4EEC00AF1EEA4
:1002900010FA03DA9DED0E0A06B0704700EE900AE0
:1002A000F8EEE00A20EE200A8DED0E0AF4E7704722
:1002B00008B58DF800008DF801108DF802100120AE
:1002C0008DF80300684600F07DFB08BD014801F091
:1002D0004BF9FEE700170008F0B5002301240327BF
:1002E0000D6804FA03F21540954242D1D0F800C0DF
:1002F0005E0007FA06F52CEA050CC0F800C091F87C
:1003000004C0D0F800E00CFA06FC4CEA0E0CC0F871
:1003100000C091F804C0BCF1010F02D0BCF1020F83
:100320001FD1D0F808C02CEA050CC0F808C091F81D
:1003300005C0D0F808E00CFA06FC4CEA0E0CC0F838
:1003400008C0D0F804C02CEA020CC0F804C042680F
:1003500091F806C00CFA03FC1FFA8CFC42EA0C026E
:100360004260C268AA43C260CA79C568B2402A43E3
:10037000C2605B1C102BB3D3F0BD4B07DB0E9A4061
:10038000C90810B500EB8100016A0F249C40A1430D
:100390000162016A1143016210BD02460020126928
:1003A0000A4200D0012070474183704701837047A3
:1003B000FEE70029018802D041F4806101E021F4C8
:1003C00080610180704702460020938A128B43EAC5
:1003D000024323F07F42914300D10120704700295E
:1003E000018802D041F0010101E021F0010101800A
:1003F00070470029018802D041F4807101E021F4A6
:100400008071018070470029018802D041F4007199
:1004100001E021F40071018070470CB50246002014
:1004200000920A0F21F07F41019202D0009A14320B
:1004300002E0009A090C1832009212680A4200D0B9
:1004400001200CBD7FB5044680880D4620F03F0694
:10045000684600F06FFB26490298B0FBF1F189B2C3
:100460000E43A680228822F001022280214B2A68B6
:100470009A421BD85200B0FBF2F080B2042800D29E
:100480000420491C2184A083208840F001002080A2
:1004900021884FF6F5300140A8886A891043084347
:1004A0002080A8892989084320817FBDEB88A3F596
:1004B0003F46FF3E05D102EB4202B0FBF2F080B2B4
:1004C00008E002EBC20303EB0212B0FBF2F080B2D1
:1004D00040F48040020501D140F001004FF49672D3
:1004E00051434FF47A72B1FBF2F140F40040C8E797
:1004F00040420F00A0860100008AC0B2704712B1CE
:1005000041F0010101E001F0FE010182704701822A
:10051000704700002DE9FF5F8B469A4691460546DD
:100520000021FFF75CFF01212846FFF758FF584CD8
:100530000220594E20710120A071E07103206071EA
:10054000544885420DD10121480500F0DBFA012114
:10055000022000F0CBFA4FF4407020602146304674
:1005600028E04E4885427DD04D48854224D1012166
:10057000C80500F0C7FA0121084600F0B7FA0121CA
:10058000042000F0B3FA474F042208213846FFF751
:10059000F4FEDFF81481042209214046FFF7EDFE46
:1005A000A81520603A493846FFF796FE6815206086
:1005B00037494046FFF790FE3C4800904FF480409A
:1005C000ADF80C000020ADF80800ADF80400ADF85F
:1005D0000A004BF6FF70ADF8060069462846FFF7A3
:1005E00031FF042208213046FFF7C7FE042209210B
:1005F0003046FFF7C2FE012300225946284600F08C
:100600001BF918B1012004B0BDE8F09F284600F0A6
:1006100069F9002375225946284600F0ADF868288C
:1006200001D00220EFE701236B225946284600F053
:1006300081F9B8B900231C225946284600F09CF8DD
:1006400000F0E70141EAC900C3B21C22594628461E
:1006500000F070F930B900231B225946284600F0FB
:100660008BF800E012E000F0E70141EACA00C3B2F3
:100670001B225946284600F05DF938B905231A2295
:100680005946284600F056F90028BCD00320BAE7A6
:100690004C0000200054004000040240005800407C
:1006A000005C00400000024000080240801A060082
:1006B0002DE9F05F9946904644F620658A468346C8
:1006C0002C46012300220A9F00F0B6F8284E02E0D3
:1006D000641E24B29CB331465846FFF79EFE08B90B
:1006E000002CF5D141465846FFF711FF584600F05F
:1006F000F9F801231A465146584600F09DF80121A9
:100700005846FFF756FE0024DFF868802CE0781E7C
:1007100084422E461AD100215846FFF74AFE012195
:100720005846FFF770FE02E0761E36B23EB14146F3
:100730005846FFF748FE80B9002EF5D10DE002E0E3
:10074000761E36B216B90120BDE8F09F41465846E4
:10075000FFF739FE08B9002EF2D15846FFF7CCFE5C
:1007600009F80400641CE4B2BC42D0D30020EBE7DB
:1007700080000010400003002DE9F0471E4690461F
:1007800044F620650023894682462C461A4600F02E
:1007900053F81E4F02E0641E24B264B3394650463B
:1007A000FFF73BFE08B9002CF5D141465046FFF754
:1007B000AEFE504600F096F800230122494650460E
:1007C00000F03AF826B101215046FFF7F2FD07E0AC
:1007D00000215046FFF7EDFD01215046FFF713FEC3
:1007E0000B4C02E06D1E2DB22DB121465046FFF795
:1007F000EAFD18B104E00120BDE8F087002DF1D139
:100800005046BDE8F047FFF777BE000080000010BB
:100810004000030030B585B00C461546022100911A
:1008200001AB47222946FFF743FFBDF8040040BA59
:10083000608105B0002030BD2DE9F04744F6206509
:100840001F461646894682462C464FF400384146DC
:100850005046FFF7E2FD0028F9D101215046FFF78D
:10086000C8FDDFF8748002E0641E24B26CB3414618
:100870005046FFF7A8FD08B9002CF5D11FB10121A2
:100880001648FFF796FD324649465046FFF737FEB9
:1008900016B1012E0DD01DE0114C02E06D1E2DB2DF
:1008A0009DB121465046FFF78EFD98B9002DF5D138
:1008B00010E0094C641C02E06D1E2DB22DB12146E2
:1008C0005046FFF780FD18B104E00120BDE8F08735
:1008D000002DF1D10020F9E7010003000054004091
:1008E000820007002DE9F041074644F6206401210B
:1008F000FFF789FD0E4E0E4D7C3E02E0641E24B2D1
:1009000054B129463846FFF788FD40B13146384694
:10091000FFF783FD18B104E00120BDE8F081002C51
:10092000ECD101213846FFF76EFD0020F5E700000D
:10093000800000102DE9F0479846174644F62065E0
:10094000002381462C461A46FFF776FF1A4E02E036
:10095000641E24B2DCB131464846FFF75EFD08B99B
:10096000002CF5D139464846FFF7D1FD134C4846D7
:100970002146FFF728FD0028F9D002E06D1E2DB2B8
:100980002DB131464846FFF748FD18B104E001207B
:10099000BDE8F087002DF1D141464846FFF7B7FD8D
:1009A00021464846FFF70FFD0028F9D04846FFF7DB
:1009B00099FF0020ECE70000800000108400070091
:1009C000FEE7704770B50F21C478027801234FF01D
:1009D000E026E4B1124C246804F4E064C4F5E06459
:1009E000C4F30724C4F10405E1404478AC408578A1
:1009F0000D4025430B4C29011155007800F01F01D3
:100A00008B40400906EB8000C0F8003170BD02F059
:100A10001F008340500906EB8000C0F8803170BD94
:100A20000CED00E000E400E07047704710B572B6CE
:100A30000023284C3A22D0212046FFF79DFEE0B348
:100A4000D02225492046FFF7E5FE2348244B5438A1
:100A500000F14001204ADFED231AD1EC020A1F49C0
:100A600031EE600A81ED000A10EE101A994200F191
:100A70003C01C1EC020A04DC10EE101A11F17F5F98
:100A80001CD9B2F90A1000EE101AB8EEC00A80EEB6
:100A9000212AB1EE000A41EE000A9FED131A80ED03
:100AA000112A90ED080A0C480C3830EE800AD0ED7F
:100AB000020A40EE010AC0ED020A09E0B2F90A108A
:100AC00000EE101AB8EEC00AC0EE210AC0ED110AFD
:100AD00062B610BD00540040A800002000000020B5
:100AE00000004040681103436F12033A044A002992
:100AF000116801D0014300E081431160704700009C
:100B000030380240044A0029116801D0014300E056
:100B1000814311607047000040380240044A0029B8
:100B2000116801D0014300E081431160704700006B
:100B30004438024070B5204A1168204C11F00C0175
:100B400004D06610042903D0082903D004601BE0F8
:100B5000066019E01849091F0B68C3F380550B683C
:100B600003F03F0315B1B6FBF3F301E0B4FBF3F37D
:100B70000C680968C4F388146343C1F30141491C3C
:100B80004900B3FBF1F1016011680F2303EA111171
:100B90000B4B5C5C0168E14041601468072505EA85
:100BA00094241C5D21FA04F48460126805EA523230
:100BB0009A5CD140C16070BD083802400024F40046
:100BC0003C000020704700000CB500202749019030
:100BD00000900A6842F480320A604FF4A0430A6829
:100BE00002F400320092019A521C0192009A12B94A
:100BF000019A9A42F3D10A68920334D501200090F9
:100C00001A484030026842F0805202601848026878
:100C100042F44042026015480830026802600268EF
:100C200042F400420260026842F4A0520260031FD4
:100C3000104A1A600A6842F080720A600A689201DB
:100C4000FCD50D4A40F205711160016821F00301E5
:100C50000160016841F0020101600168C1F3810196
:100C60000229FAD10CBD00900CBD000000380240F2
:100C70000070004008544007003C0240FFF7D6BE19
:100C8000124810B5016841F4700101601048016814
:100C900041F0010101600E4A002108321160026832
:100CA0000C4B1A400260031D0B4A1A60026822F4C2
:100CB0008022026006480C300160FFF785FF03497F
:100CC0004FF000608039086010BD000088ED00E042
:100CD00000380240FFFFF6FE1030002470B5048C8F
:100CE00024F001040484058B048C4FF6FF7606EA99
:100CF0000313134325F0F3052B4324F00A020A43A0
:100D000042F001010383018470BDF0B5048C24F02E
:100D100010040484078B068C4FF6FF7404EA011557
:100D200027F4734704EA0331394304EA02220A43F1
:100D300026F0A001294341F0100102830184F0BD97
:100D40002DE9F04101218AB00846FFF7E7FE0121B5
:100D50001020FFF7CBFE02258DF8185000244FF429
:100D600028508DF81A400126DFF8E08005908DF8B4
:100D70001B6003278DF8197005A94046FFF7ACFAF0
:100D8000012209214046FFF7F8FA01220B214046D3
:100D9000FFF7F3FA01220D214046FFF7EEFAADF816
:100DA0001C70ADF82440ADF81E4045F20720284CD9
:100DB000089007A9204600F097FB7020ADF80000CE
:100DC0004FF47A700290ADF80260ADF80C506946AD
:100DD000204600F095FA6946204600F0C7FA6946B9
:100DE000204600F00DFB01220021204600F0E0F932
:100DF0000821204600F0B4FA01220421204600F028
:100E0000D7F90821204600F0F1FA012208212046F6
:100E100000F0CEF90821204600F030FB01221146F7
:100E2000204600F065FA00211920FFF741FA012160
:100E3000204600F0CBF90121204600F0AFF9012156
:100E4000204600F0CDF90AB0BDE8F0810010024064
:100E50000000014070B5614D01212DED028B8AB07B
:100E6000284600F0E3F900287ED05D4800F0DCF968
:100E70005C4C40F2DC51E269131A9FED5B1A8B4225
:100E800002DC02448A420EDDE06194ED020A84ED48
:100E9000030A00EE100AB8EEC00A20EE010A84ED43
:100EA000020A20692CE000EE100AE061D4ED020A8B
:100EB000B8EEC00A04F1080120EE010A81EC020A32
:100EC00070EE600A9FED491A80EE810ADFED480A54
:100ED00028224849684630EEC08AFFF771F9454834
:100EE000B0EE480A10380FC8FFF78FF9BDEEC00A00
:100EF0000C2110EE100A90FBF1F000EB4000206195
:100F00004FF47A7100280CDA40422061A069012870
:100F10000CDA0120C4E90510A0886188A1806080F6
:100F200043E0A069002801DD0020F3E760690128A3
:100F30003BDA21882069304E014489B221806288E1
:100F400002446280A2880244A280715C00EB4000EF
:100F50004143284600F09AFA6088315C206900EB32
:100F600040004143284600E01EE000F091FAA088CE
:100F7000315C206900EB40004143284600F08AFACA
:100F800020884FF4FA61884202D9A0F5FA602080E7
:100F90006088884202D9A0F5FA606080A088884203
:100FA00012D9A0F5FA60A0800EE060690021401E11
:100FB0006061284600F06AFA0021284600F068FACD
:100FC0000021284600F066FA0AB02846BDEC028BE4
:100FD0000121BDE8704000F0F6B8000000000140BB
:100FE00000080040080000202EE34D3B6F12833ABA
:100FF00000002042C40000204417000870B5012101
:1010000088B00846FFF772FD01210420FFF76EFD4E
:1010100001210846FFF776FD01258DF804501320C5
:101020008DF80750002400908DF8064003268DF8B7
:10103000056069462F48FFF74FF90E200090022007
:101040008DF804008DF807508DF806408DF8056086
:10105000294E69463046FFF73FF9012211463046D6
:10106000FFF78BF9012202213046FFF786F90122B2
:1010700003213046FFF781F95320ADF814004CF2FC
:10108000503006908606ADF81640ADF81C4005A914
:10109000304600F029FA0420ADF808000F20ADF822
:1010A00010000A20ADF80A00ADF80E40ADF80C5063
:1010B00002A9304600F0C6F80820ADF8080002A9E1
:1010C000304600F0BFF80C20ADF8080002A9304609
:1010D00000F0B8F801221C21304600F009F9002187
:1010E0001C20FFF7E5F80121304600F06FF808B04A
:1010F00070BD000000080240000002402DE9F041F0
:101100004FF080451C21284600F090F8B0B3204EE7
:1011100002213046FFF741F9840004213046FFF7F1
:101120003CF904EB400408213046FFF736F920442F
:10113000C0B2184C00EB4006174F34F816004FF0C1
:1011400001010028384602D0FFF730F901E0FFF72F
:101150002BF904EB46044FF0020160880028384662
:1011600002D0FFF723F901E0FFF71EF9A0884FF046
:1011700010010028384602D0FFF718F901E0FFF708
:1011800013F92846BDE8F0411C2100F01CB800000E
:1011900000000240141700080008024000290188DE
:1011A00002D041F0800101E021F080010180704710
:1011B00010B50123048C8B409C430484038C8A402B
:1011C0001343038410BDC94301827047002901887D
:1011D00002D041F0010101E021F0010101807047DE
:1011E000002930F8441F02D041F4004101E0C1F36E
:1011F0000E010180704770B50589048B068C25F0BF
:1012000007050D434FF6FC410C4040F201110C4321
:101210004FF6FF7101EA031126F022061143314314
:1012200005810483018470BD406A70470246002036
:10123000138A92890B4202EA010202D0002A00D0EE
:10124000012070472DE9F0410D460E884988AA8893
:101250002B89044616B3042E28D0082E268C4FF670
:10126000FF702BD026F480562684A78B268C00EAAC
:10127000022200EA013127F473473A4300EA0330BF
:10128000104326F420420A4342F48051A083218473
:10129000E9882046BDE8F04100F01AB9FFF71EFDCD
:1012A000E9882046BDE8F04100F0F6B8FFF72DFDD3
:1012B000E9882046BDE8F04100F0F6B826F48076D3
:1012C0002684A78B268C00EA012100EA0310104334
:1012D00027F0F307384326F420620A4342F4807172
:1012E000A0832184E9882046BDE8F04100F0E8B8F9
:1012F000002A828901D00A4300E08A438281704734
:1013000030B5028C22F001020284028C8388048BA7
:1013100022F0020224F073050C882C438D891543BA
:101320004A882A430C4DA84202D00C4DA8420DD148
:1013300022F00805CA8923F440732A4322F00405E9
:101340008A882A430D8A1D434B8A2B43838004835A
:1013500089684163028430BD0000014000040140FF
:10136000028B22F008020A430283704770B5028C98
:1013700022F010020284028C8488038B0D8823F4EF
:10138000E6464FF6FF7303EA052535438E8922F0C2
:10139000200203EA061616434A8803EA0212324381
:1013A000104EB04202D0104EB04215D122F080064D
:1013B000CA8924F4406403EA0212324322F0400650
:1013C0008A8803EA021232430E8A03EA860626431B
:1013D0004C8A03EA840434438480058389688163EA
:1013E000028470BD0000014000040140028B4FF6F2
:1013F000FF7322F4006203EA012111430183704765
:1014000070B5028C22F480720284028C8488838BF3
:101410000D8823F073031D4322F400738E894FF669
:10142000FF7202EA06261E434B8802EA0323334377
:10143000104EB04202D0104EB04215D123F40066D7
:10144000CB8924F4405402EA0323334323F4806617
:101450008B8802EA032333430E8A02EA06162643E8
:101460004C8A02EA04143443848085838968C1630A
:10147000038470BD0000014000040140828B22F013
:1014800008020A4382837047C16270474163704714
:1014900081637047C1637047028B22F00C020283A4
:1014A000028B0A4302837047028B22F4406202835C
:1014B000028B4FF6FF7303EA01210A430283704750
:1014C000828B22F00C028283828B0A4382837047D4
:1014D000828B22F440628283828B4FF6FF7303EA91
:1014E00001210A438283704730B50288164B174C9E
:1014F00098420DD0A0420BD0B0F1804F08D0144DCF
:10150000A84205D0134DA84202D0134DA84203D1E2
:1015100022F070054A882A43104DA84206D0104D8B
:10152000A84203D022F440750A892A4302804A68FF
:10153000C2620A880285984201D0A04201D1897A0C
:1015400001860121818230BD00000140000401407C
:101550000004004000080040000C00400010004063
:1015600000140040FEE70000014A024900F013B8F1
:10157000B91500080400002002E008C8121F08C1C5
:10158000002AFAD170477047002001E001C1121F04
:10159000002AFBD170472DE9F04116460F4604465C
:1015A000002503E03946B0476D1C641C20780028F4
:1015B000F8D12846BDE8F08105490968C90105D57B
:1015C0004FF060410A68002AFCD0087070470000A4
:1015D000FCED00E08AB03BA0FFF7C6FF3E489FED60
:1015E0003D0A00F1100180ED010A9FED3C0A28221E
:1015F00080ED020A9FED3A0A80ED000A9FED390A5C
:1016000080ED060AB7EE000A80ED080A9FED360A63
:1016100080ED070A6846FEF7D3FD2F480FC8FFF795
:1016200003FAD021002308223048FEF773FF08B1E7
:10163000FEF74CFE2E484FF47A7100240068B0FB90
:10164000F1F0401EB0F1807F08D24FF0E0214861F8
:10165000284AF02010708C6107200861FFF770FBAA
:10166000FFF7CCFC01210220FFF740FA0121042002
:10167000FFF748FAC020009002208DF804008DF892
:1016800007401D4C69462046FEF726FE0222062131
:101690002046FEF772FE022207212046FEF76DFE6D
:1016A000164C00231A4603212046FFF7A4FD4FF4F1
:1016B000FA612046FFF7E8FE01212046FFF786FD8C
:1016C000FEE7000048656C6C6F20576F726C640A0F
:1016D00000000000B003673CB40000205B40D0383D
:1016E000ACA8C13B0000000000004843005400408B
:1016F0002800002023ED00E0000402400008004024
:10170000437269746963616C204661696C757265C6
:10171000200A00000000000000000000010001009D
:1017200001000100000001000000010001000000B4
:1017300001000100010000000000010001000000A4
:101740000000000000010101020202030303030480
:101750000404050505060606070707080808080922
:1017600009090A0A0A0B0B0B0C0C0C0D0D0D0D0EC2
:101770000E0E0F0F0F101010111111121212121362
:101780001313141414151515161616161717171803
:101790001818191919191A1A1A1B1B1B1C1C1C1DA5
:1017A0001D1D1D1E1E1E1F1F1F1F20202021212149
:1017B00022222222232323242424252525252626EC
:1017C0002627272727282828292929292A2A2A2B92
:1017D0002B2B2B2C2C2C2D2D2D2D2E2E2E2F2F2F39
:1017E0002F303030303131313232323233333333E3
:1017F000343434353535353636363637373737388D
:101800003838383939393A3A3A3A3B3B3B3B3C3C39
:101810003C3C3D3D3D3D3E3E3E3E3F3F3F3F4040E8
:10182000404040414141414242424243434343449C
:101830004444444445454545464646464647474751
:10184000474848484848494949494A4A4A4A4A4B08
:101850004B4B4B4B4C4C4C4C4C4D4D4D4D4D4E4EC3
:101860004E4E4E4F4F4F4F4F505050505051515180
:101870005151515252525252535353535353545441
:101880005454545455555555555556565656565606
:1018900057575757575757585858585858595959CC
:1018A000595959595A5A5A5A5A5A5A5A5B5B5B5B98
:1018B0005B5B5B5C5C5C5C5C5C5C5C5D5D5D5D5D66
:1018C0005D5D5D5D5E5E5E5E5E5E5E5E5E5F5F5F39
:1018D0005F5F5F5F5F5F5F5F606060606060606010
:1018E00060606061616161616161616161616161EB
:1018F00062626262626262626262626262626262C8
:1019000063636363636363636363636363636363A7
:10191000636363636363636364646464646464648F
:101920006464646464646464646464646464646477
:101930006464646464646464646464646464646467
:101940006464646464646464646464646464646457
:101950006464646464646463636363636363636350
:101960006363636363636363636363636363636248
:101970006262626262626262626262626262626148
:10198000616161616161616161616161606060604B
:10199000606060606060605F5F5F5F5F5F5F5F5F50
:1019A0005F5F5E5E5E5E5E5E5E5E5E5D5D5D5D5D5A
:1019B0005D5D5D5D5C5C5C5C5C5C5C5C5B5B5B5B67
:1019C0005B5B5B5A5A5A5A5A5A5A5A595959595979
:1019D000595958585858585857575757575757568E
:1019E00056565656565555555555555454545454A7
:1019F00054535353535353525252525251515151C3
:101A0000515150505050504F4F4F4F4F4E4E4E4EE1
:101A10004E4D4D4D4D4D4C4C4C4C4C4B4B4B4B4B04
:101A20004A4A4A4A4A49494949484848484847472A
:101A30004747464646464645454545444444444452
:101A4000434343434242424241414141404040407E
:101A5000403F3F3F3F3E3E3E3E3D3D3D3D3C3C3CAA
:101A60003C3B3B3B3B3A3A3A3A39393938383838DB
:101A7000373737373636363635353535343434330F
:101A800033333332323232313131303030302F2F44
:101A90002F2F2E2E2E2D2D2D2D2C2C2C2B2B2B2B7A
:101AA0002A2A2A29292929282828272727272626B4
:101AB00026252525252424242323232222222221EE
:101AC00021212020201F1F1F1F1E1E1E1D1D1D1D2A
:101AD0001C1C1C1B1B1B1A1A1A1919191918181867
:101AE00017171716161616151515141414131313A5
:101AF000121212121111111010100F0F0F0E0E0EE4
:101B00000D0D0D0D0C0C0C0B0B0B0A0A0A09090923
:101B10000808080807070706060605050504040463
:101B200003030303020202010101000000000000A0
:101B300000000000000000000000000000000000A5
:101B40000000000000000000000000000000000095
:101B50000000000000000000000000000000000085
:101B60000000000000000000000000000000000075
:101F100000000000341F00080000002054000000F2
:101F200078150008881F0008540000209C04000059
:101F300088150008000000000000000000009B025F
:101F40003505000000000000000000000000000057
:101F5000000000000000000000000000007A030AFA
:101F60000000000000000000010203040607080949
:101F7000000000000102030401020304060708092F
:081F8000000000000000000059
:040000050800018965
:00000001FF
